:100000000C94390C0C94560C0C94560C0C94560C05
:100010000C94560C0C94560C0C94560C0C94560CD8
:100020000C94560C0C94560C0C94560C0C94560CC8
:100030000C94755A0C94560C0C94560C0C947E59D6
:100040000C94525B0C94560C0C94560C0C94560C5D
:100050000C94560C0C94560C0C944C5F0C94560C4F
:100060000C94560C0C94D45A0C94275A0C94F659B0
:100070000C94560C0C94560C0C94560C0C94560C78
:100080000C94560C0C94560C0C94560CE532E83239
:100090000733463363336933B43384339B33D93303
:1000A000DC330134ED3325343E345F347234434263
:1000B0000000000004004578706F004E2F4400439C
:1000C0006F748000414E415300410042473A004363
:1000D000616C69622E2042617474657269650044C6
:1000E0004542554700546D72314C6174206D617802
:1000F0001F54757300546D72314C6174206D696EBC
:100100001F54757300546D7231204A69747465729E
:100110001F54757300546D6978206D61781F546D9C
:1001200073004672656520537461636B1F546200EF
:100130005B4D454E555D20706F757220726573651D
:1001400074005354415453001F665345531E544D7D
:10015000311F66544D321E47415A1F66475A2500CB
:1001600050484153455320444520564F4C00286485
:10017000806661757429000656807269660A547239
:10018000696D730000000300504841534520444509
:1001900020564F4C005472696D7300466F6E647543
:1001A000204F4E00466F6E6475204F464600434F09
:1001B000555242455300494E5445525300547269BA
:1001C0006D2D202B0056455253494F4E0046571F68
:1001D0001B3A206F70656E74782D39781E56455223
:1001E000531F1B3A20322E312E381E444154451FD6
:1001F0001B3A20323031362D30382D31371E5449DC
:100200004D451F1B3A2032303A32363A30351E45C2
:100210004550521F1B3A203231362D30000000FF6E
:10022000FFFFFFFF6FFFFFFF070007FF1830180CED
:1002300006087F7F7F0823130864623649552250E1
:10024000FF0503FFFFFF1C2241FFFF41221CFF149B
:10025000083E081408083E0808FF5030FFFF000859
:100260000808FFFFFF40FFFF20100804023E414145
:100270003EFF00427F40FF62514946FF41494936F7
:10028000FF1814127FFF27454539FF3E494932FFC9
:1002900001790503FF36494936FF0649291EFFFF4C
:1002A0003636FFFFFF5636FFFFFF081422411414B5
:1002B00014141441221408FF020151090606090909
:1002C00006FF7E0909097E7F494949363E41414181
:1002D000227F4141221C7F494949417F0909090187
:1002E0003E4149497A7F0808087FFF417F41FF204E
:1002F00040413F017F081422417F404040FF7F0280
:100300000C027F7F0408107F3E4141413E7F090976
:1003100009063E4151215E7F09192946264949496E
:100320003201017F01013F4040403F1F2040201F1C
:100330003F4030403F6314081463070870080761AA
:1003400051494543FF7F4141FF0204081020FF410E
:10035000417FFF605846586040404040FFFF010227
:1003600004FF20545454787F48444438384444446B
:1003700020384444487F3854545418087E090102F8
:100380000C5252523E7F08040478FF447D40FF2007
:1003900040443DFF7F102844FFFF417F40FF7C0425
:1003A0001804787C0804047838444444387C1414D5
:1003B0001408081414187C7C080404084854545485
:1003C00020043F4440203C4040207C1C2040201C16
:1003D0003C4020403C44281028440C5050503C44A1
:1003E00064544C4410081008FFFFFF7FFFFF4122B8
:1003F0005428FF0808221C08081C220808385456F4
:10040000551838555654182055565478FF4A794295
:10041000FF1CA2622210000000000000000000008B
:10042000FFFFFFFFFFFFFFFFFFFFFFFFFFFF006674
:100430000076003E001EFFFFFFFFFFFFFFFF800171
:100440008001800180018001800180018001FFFF27
:10045000FFFFFFFFFFFF0030007800780030FFFF54
:10046000FFFFFFFFFFFF00600060006000600060B2
:10047000006000600060FFFFFFFFFFFFF81FFC3F10
:100480000E70066006600E70FC3FF81FFFFFFFFF56
:10049000000018601C60FE7FFE7F006000600000AE
:1004A000FFFFFFFF18781C7C0E6E06678663CE6127
:1004B000FC607860FFFFFFFF066006608661866172
:1004C0008661CE73FC3F781EFFFFFFFF8007C007E9
:1004D000E006700638061C06FE7FFE7FFFFFFFFF6A
:1004E0007E187E38667066606660E670C63F861F5E
:1004F000FFFFFFFFF81FFC3F8E71866186618E73E0
:100500001C3F181EFFFFFFFF06000600867FC67F08
:10051000E60076003E001E00FFFFFFFF781EFC3F56
:10052000CE7386618661CE73FC3F781EFFFFFFFFAE
:100530007800FC00CE6186718639CE1DFC0FF8076D
:10054000FFFFFFFF0000300C781E781E300CFFFF0D
:10055000FFFFFFFFFFFFE07FF07FB8019C018E01EE
:100560008E019C01B801F07FE07FFE7FFE7F8661F7
:100570008661866186618661CE73FC3F781EF81FB6
:10058000FC3F0E7006600660066006600E701C3848
:100590001818FE7FFE7F0660066006600E701C382D
:1005A000381CF00FE007FE7FFE7F86618661866162
:1005B00086618661866106600660FE7FFE7F860139
:1005C0008601860186018601860106000600F81F65
:1005D000FC3F0E7006608661866186618E719C7F2D
:1005E000983FFE7FFE7F80018001800180018001B5
:1005F0008001FE7FFE7FFFFFFFFF06600660FE7F3B
:10060000FE7F06600660FFFFFFFF001800380070E5
:10061000006006600670FE3FFE1F06000600FE7FBB
:10062000FE7F8001C003E007700E381C1C380E707E
:100630000660FE7FFE7F006000600060006000607A
:10064000006000600060FE7FFE7F1C003800F0014B
:10065000F00138001C00FE7FFE7FFE7FFE7F7000F1
:10066000E000C00180030007000EFE7FFE7FF81F40
:10067000FC3F0E7006600660066006600E70FC3F70
:10068000F81FFE7FFE7F86018601860186018601B6
:10069000CE01FC007800F81FFC3F0E700660066675
:1006A000066E063C0E38FC7FF867FE7FFE7F8601F3
:1006B00086018607860F861DCE39FC707860781813
:1006C000FC38CE7186618661866186618E731C3FBF
:1006D000181E0600060006000600FE7FFE7F0600CC
:1006E000060006000600FE1FFE3F0070006000606E
:1006F000006000600070FE3FFE1FFE07FE0F001C42
:100700000038007000700038001CFE0FFE07FE1F4E
:10071000FE3F00700070003E003E00700070FE3F23
:10072000FE1F1E783E7C700EE007C003C003E0078A
:10073000700E3E7C1E787E00FE00C0018003007FAC
:10074000007F8003C001FE007E000678067C066EF6
:1007500006678663C661E66076603E601E600018CC
:10076000003C607E6066606660666066E066C07FD2
:10077000807FFE7FFE7F8061C061E06060606060BE
:10078000E070C03F801F801FC03FE070606060600D
:1007900060606060607000380018801FC03FE070CB
:1007A00060606060E060C0618061FE7FFE7F801FEE
:1007B000C03FE0766066606660666066E066C007BF
:1007C000800780018001F87FFC7F8E018601060092
:1007D0000E001C001800E001F00338671866186668
:1007E000186618661876F83FF81FFE7FFE7F8001B6
:1007F000C001E00060006000E000C07F807FFFFF7C
:10080000FFFF60606060E67FE67F00600060FFFFE2
:10081000FFFFFFFF0018003800700060606060702C
:10082000E63FE61FFFFFFE7FFE7F0006000F801FF2
:10083000C039E0706060FFFFFFFFFFFFFFFF066051
:100840000660FE7FFE7F00600060FFFFFFFFE07F2D
:10085000E07F6000E000C007C007E000E000C07F6C
:10086000807FE07FE07F8001C001E00060006000E9
:10087000E000C07F807F801FC03FE07060606060EC
:1008800060606060E070C03F801FE07FE07F6006D6
:100890006006600660066006E007C0038001800114
:1008A000C003E007600660066006C0078007E07FBF
:1008B000E07FE07FE07F8001C001E0006000600039
:1008C000E000C00180018061C063E067606660662F
:1008D00060666066607E003C001860006000F81F83
:1008E000F83F607060600060007000380018E01F22
:1008F000E03F007000600060007000380018E07F8A
:10090000E07FE007E00F001C003800700070003846
:10091000001CE00FE007E01FE03F007000700038AF
:10092000003800700070E03FE01F6060E070C03988
:10093000801F000F000F801FC039E0706060E00171
:10094000E003006700660066006600660076E03F30
:10095000E01F606060706078607C606E6067E0637C
:10096000E061E0606060000000FFFFFF80E060FF8A
:1009700000181818FFFF6060FFFF60606060FF3EB6
:100980007F417F3E00427F7F406273594F4641491D
:100990007F7F36181C127F7F2767457D393E7F4950
:1009A0007B3201797D0703367F497F36064F693FE9
:1009B0001EFF3636FFFF7E7F097F7E7F7F497F36B1
:1009C0003E7F4177367F7F413E1C7F7F4949417F93
:1009D0007F0909013E7F415B7A7F7F087F7F417FEE
:1009E0007F41FF3070417F3F7F7F1C77637F7F4077
:1009F00040FF7F7E0C7E7F7F7E1C3F7F3E7F417F5E
:100A00003E7F7F090F063E7F412F5E7F7F196F4635
:100A1000264F5D7932017F7F01FF3F7F607F3F1F5F
:100A20003F603F1F7F3F103F7F63771C7763070F57
:100A3000787F0F71795D4F472074547C787F7F44B5
:100A40007C38387C444420387C447F7F387C545C3C
:100A500018087E7F09020C5E527E3E7F7F047C7800
:100A6000447D7D40FF3070447D3D7F7F2844FF41C1
:100A70007F7F40FF7C1C381C787C780C7C78387C2D
:100A8000447C387C7C243C18183C247C7C7C780C8E
:100A90001C18485C7C7420043F7F44203C7C603CF4
:100AA0007C1C3C603C1C3C7038703C446C386C4492
:100AB0000C5C507C3C4464745C4C4D6178206578DF
:100AC000706F732061747465696E7421004D617874
:100AD000206D6978616765732061747465696E74EF
:100AE00021005F2D2E2C0003010200040506071BC8
:100AF0001E272D36394B4E636C7278878D939CB1CF
:100B0000B4C6C9D2D8E1E40101020A3C01010414CF
:100B1000500101081E6402020F287805051E329656
:100B200000000200000200000000000000000005BC
:100B3000060102434F4E462E204D4F44454C450082
:100B400001426970206D696E2E0001426970206655
:100B5000696E004368726F6E6F20004C696D697436
:100B600065732080742E005472696D732080742E1A
:100B700000506173205472696D00496E762E2067B3
:100B8000617A00536F757263652047617A00547211
:100B9000696D2067617A00416C65727465206761D8
:100BA0007A00416C6572746520696E7400426970E8
:100BB000732063656E7472000150726F746F2E0043
:100BC0005472616D652050504D006D73000002023B
:100BD00002020045434F4C41474500456C81766514
:100BE000004D6F6465062520536F75726365004D77
:100BF000756C7469706C696575720043616C004353
:100C00004F555242450001547970650070742700B9
:100C1000707400783D00793D00434F4E462E4845A4
:100C20004C49005479706520646520506C61742EC5
:100C300000436F6C6C6563746966004C696D697420
:100C400065204379636C2E00496E762E206C6F6EA2
:100C500067697475642E00496E762E206C6174800D
:100C600072616C00496E762E20636F6C6C656374E4
:100C700069660012080010381010103810000010BB
:100C8000440092004410000000000044FE440000B4
:100C900000104400920044100000104400920044F0
:100CA0001000000044FE44000000000010440092C8
:100CB00000441000001038101010381000436F75F9
:100CC00072626500526174696F00000000010104E6
:100CD0000000494E5345524552204D495841474521
:100CE00000454449544552204D495841474500016B
:100CF000536F757263650001448063616C61676561
:100D0000005472696D00445265780044696666005B
:100D1000416C65727465004F4646004F7080726189
:100D200074696F6E005265746172642068617574D5
:100D300000526574617264206261730052616C6577
:100D40006E746920686175740052616C656E7469B7
:100D500020626173000004464F4E4354494F4E5386
:100D600020535045432E0000FF000000FF0000000C
:100D700000FF0000000000FF01434F4E464947209E
:100D8000524144494F00536F6E00014D6F6465003E
:100D900001447572806500436F6E7472617374658F
:100DA00000416C61726D657300014261747465721B
:100DB000696500014D806D6F69726520706C6569B1
:100DC0006E65000153696C656E63650001496E6173
:100DD0006374697669748000528074726F80636C8A
:100DE0006169726167650001416C61726D65000146
:100DF0004475728065004C6F676F20642761636380
:100E00007565696C004F7264726520766F696573F1
:100E1000205258004E6F6D00496E74657200506824
:100E200061736500448070617373656D656E7420D5
:100E3000454550524F4D0044522F4558504F0000E9
:100E40000303030303030303030303030303030372
:100E5000004C494D4954455300055472696D732047
:100E60003D3E205375627472696D7300496E7665FC
:100E7000727365722047617A3F002F3134002F333F
:100E800032004D495845555200034F46464F4E00DB
:100E9000032D2D2D494E5604013443480136434855
:100EA00001384348313043483132434831344348B4
:100EB0003136434805417563756E416C61726D4E04
:100EC0006F4B6579546F757400034F4646202B3D78
:100ED000203A3D0343483143483243483343483482
:100EE000064578706F0020457846696E0046696E49
:100EF0000020204D6F79656E0047726F73002001EE
:100F0000445047413132330650504D00202050505C
:100F10004D31360050504D73696D03504F534E455F
:100F200047044F46460042746E734374726C546FAC
:100F300075734F4E00032D2D2D783E30783C307C5C
:100F4000787C663E30663C307C667C08416A6F7512
:100F5000746500204D756C7469706C2E52656D70EF
:100F60006C616365022B3D2A3D3A3D034F46464F77
:100F70004E0044697250726647617A41696C052D72
:100F80002D2D0020617B780020613E780020613C9F
:100F90007800207C617C3E787C617C3C7845540004
:100FA00020204F550020204F55580020613D620001
:100FB00020613E620020613C6200205E7D7800205E
:100FC0007C5E7C7D7854656D700042697374000DA1
:100FD00052656D706C2E0020202020202045636F0C
:100FE0006C6167650020202020205472696D2069A3
:100FF0006E7374616E742E52656D69736520822004
:10100000300020205B416A7573746547565D00208F
:1010100020426970002020202020202020205B4AD0
:101020006F75657220666963682E5D5B4A6F7565D2
:1010300072206C657320325D5B4C6972652076614D
:101040006C6575725D5B566172696F5D0020202072
:1010500020205B566962726575725D002020205207
:101060008074726F80636C2E0020202004436872AD
:101070003143687232546F757404427031004270AB
:1010800032004270330057726E3157726E324368CD
:101090006565526174615469636B5369726E52691C
:1010A0006E6753636946526F62744368727054612D
:1010B00064614372636B416C726D042D2D2D00428F
:1010C00061747443687231436872325478002052FC
:1010D0007800204131002041320020416C740052E0
:1010E000706D00436172625431002054320020560A
:1010F00069740044697374416C7447456C656D563E
:10110000656C6D56666173436F7572436E736D5097
:1011100075697341636358416363594163635A431B
:1011200061700056697456566974416445540041B3
:10113000312D0041322D00416C742D416C742B52C5
:10114000706D2B54312B0054322B005669742B4494
:1011500073742B5669412B456C6D2D456C732D5660
:1011600066732D4375722B5075692B416363005470
:101170006D7073042D2D2D203132302031323058D6
:1011800031343020393000054D656E750045786981
:1011900074004261730020486175740044726F6985
:1011A000744761756368032D2D2D494430494431DE
:1011B000494432544852525544454C4541494C47A4
:1011C000454154524E744467744464745062745080
:1011D000687447627447687441677441644C3100B5
:1011E0004C32004C33004C34004C35004C36004C33
:1011F00037004C38004C39004C31304C31314C31D7
:10120000324F4E00556E042D2D2D00446972005052
:1012100072660047617A0041696C005031002050CD
:10122000320020503300204D415800435943314390
:101230005943324359433354726D4454726D505480
:10124000726D4754726D4133504F53034F46464FB2
:101250004E00475A73475A25475A7400A9327629D7
:10126000511CDA1B0A1D055243414C49425241545C
:10127000494F4E00065B4D454E555D20504F55522F
:1012800020444542555400085245474C4552204E93
:1012900045555452455300065B4D454E555D205112
:1012A00055414E4420505245540004424F55474545
:1012B0005220535449434B532F504F545300000373
:1012C000494E54455253204C4F472E00505600541F
:1012D00052004348004D4F44454C4500454550524F
:1012E0004F4D20706C65696E652100494E54455222
:1012F0005300546F7563686520706F75722069675D
:101300006E6F7265720047415A0047617A207061C2
:10131000732082207A80726F00546F756368652035
:10132000706F757220636F6E74696E756572001BE5
:1013300020FC04040404040484C48404E4F4E404E9
:1013400084C4C40404040404040404FCFF00000076
:10135000FCFE00FFFFFF80FFFFFF80FFFFFF00009C
:10136000008080800000FFFF000000FFFFFFFFFF04
:10137000FFFFFFFFFFFFFFFFFFF8FCFF3F0F030032
:1013800000FF3F2020202127272F2F2F2B272F2F13
:101390002F2F2F2F27232020202020203F414C4576
:1013A00052544500DA5BE525D82CC41A5C4D604DDB
:1013B0001746861B395211315355505052494D45ED
:1013C00052204D4F44454C4500436F7069652E2EA9
:1013D0002E004480706C6163656D656E742E2E2ED8
:1013E0000064697370004D4F44454C455300436899
:1013F000617267656D656E742E2E2E0045455052E4
:101400004F4D00000102030002010303010200032B
:10141000020100E2AEA1A6A4A2C02F258122AF4501
:101420004550524F4D20636F72726F6D707565003D
:10143000466F726D617461676520454550524F4D2E
:1014400000535053008040FFFFFFFFFFFFFFFFFFEF
:10145000FFFFFFFFFFFFFFFFFFFFFFFFFFFFFFFF9C
:10146000FFFFFFFFFFFFFFFFFFFFFFFFFFFFFFFF8C
:10147000FFFFFFFFFFFFFFFFFFFFFFFFFFFFFFFF7C
:10148000FFFFFFFFFFFFFFFFFFFFFFFFFFFFFFFF6C
:10149000FFFFFFFFFFFFFFFFFFFFFFFFFFFFFFFF5C
:1014A000FFFFFFFFFFFFFFFFFFFFFFFFFFFFFFFF4C
:1014B000FFFFFFFFFFFFFFFFFFFFFFFFFFFFFFFF3C
:1014C000FFFFFFFFFFFFFFFFFFFFFFFFFFFFFFFF2C
:1014D000FFFFFFFFFFFFFFFFFFFFFFFFFFFFFFFF1C
:1014E000FFFFFFFFFFFFFFFFFFFFFFFFFFFFFFFF0C
:1014F000FFFFFFFFFFFFFFFFFFFFFFFFFFFFFFFFFC
:10150000FFFFFFFFFFFFFFFFFFFFFFFFFFFFFFFFEB
:10151000FFFFFFFFFFFFFFFFFFFFFFFFFFFFFFFFDB
:10152000FFFFFFFFFFFFFFFFFFFFFFFFFFFFFFFFCB
:10153000FFFFFFFFFFFFFFFFFFFFFFFFFFFFFFFFBB
:10154000FFFFFFFFFFFFFFFFFFFFFFFFFFFFFFFFAB
:10155000FFFFFFFFFFFFFFFFFFFFFFFFFFFFFFFF9B
:10156000FFFFFFFFFFFFFFFFFFFFFFFFFFFFFFFF8B
:10157000FFFFFFFFFFFFFFFFFFFFFFFFFFFFFFFF7B
:10158000FFFFFFFFFFFFFFFFFFFFFFFFFFFFFFFF6B
:10159000FFFFFFFFFF070707070707070707070703
:1015A0000707070707070707FFFFE7C7070707073B
:1015B00007071F7FFFFFFF3F0F070707070787E7A3
:1015C000F7FFFFFFFFFFFFFFFFFFFFFFFF1F070307
:1015D00003C1F1F8F8F8F8F0F1C10303071FFFFFAA
:1015E000FF00000000F8F8F87000010307FFFF009B
:1015F000000000383838383838FFFF00000000811C
:10160000030F1F3FFFFF00000000FFFFFF0001036B
:10161000070F1F3F7FFEFEFEFEFEFE0000000000E3
:101620000000FEFEFEFEFEFEFFFFFFFFFFFEF8F0E5
:10163000C08000000103000000C0E0F8FCFFFFFFD5
:10164000FFFFFFFFFFFFFFFFFFFFFFFFFFF8E0C00F
:10165000C0838F1F1F1F1F1F8F83C0C0E0F8FFFFB5
:10166000FF00000000F8F8F8F8F8FCFCFFFFFF00AE
:101670000000001E1E1E1E1E1EFFFF00000000FFB9
:10168000FFFCF8F0C08100000000FFFFFF000080B9
:10169000C0E0F0F8FCFEFFFFFFFFFF0000000000CD
:1016A0000000FFFFFFFFFFFFFFFFFFFF7F1F0F0394
:1016B00001000080E0F0C000000003071F3FFFFFB3
:1016C000FFFFFFFFFFFFFFFFFFFFFFFFFFE7E7E772
:1016D000E7E7E7E7E7E7E7E7E7E7E7E7E7E7E7E79A
:1016E000E7E7E7E7E7E7E7E7E7E7E7E7E7E7E7E78A
:1016F000E7E7E7E7E7E7E7E7E7E7E7E7E7E7E7E77A
:10170000E7E7E7E7E7E7E7E7E7E7FFFFFFFEFFFFDA
:10171000FFFFFFFFFFFFFFFFFFFFFFE0E0E0E0E074
:10172000E0E0FFFFFFFFFFFFEFE7E1E0E0E0E0E0E8
:10173000F0F8FEFFFFFFFFFFFCF8E0E0E0E0E0E193
:10174000E7EFFFFFFFFFFFFFFFFFFFFFFFFFFFFFD1
:10175000FFFFFFFFFFFFFFFFFFFFFFFFFFFFFFFF99
:10176000FFFFFFFFFFFFFFFFFFFFFFFFFFFFFFFF89
:10177000FFFFFFFFFFFFFFFFFFFFFFFFFFFFFFFF79
:10178000FFFFFFFFFFFFFFFFFFFFFFFFFFFFFFFF69
:10179000FFFFFFFFFFFFFFFFFFFFFFFFFFFFFFFF59
:1017A000FFFFFFFFFFFFFFFFFFFFFFFFFFFFFFFF49
:1017B000FFFFFFFFFFFFFFFFFFFFFFFFFFFFFFFF39
:1017C000FFFFFFFFFFFFFFFFFFFFFFFFFFFFFFFF29
:1017D000FFFFFFFFFFFFFFFFFFFFFFFFFFFFFFFF19
:1017E000FFFFFFFFFFFFFFFFFFFFFFFFFFFFFFFF09
:1017F000FFFFFFFFFFFFFFFFFFFFFFFFFFFFFFFFF9
:10180000FFFFFFFFFFFFFFFFFFFFFFFFFFFFFFFFE8
:10181000FFFFFFFFFFFFFFFFFFFFFFFFFFFFFFFFD8
:10182000FFFFFFFFFFFFFFFFFFFFFFFFFFFFFFFFC8
:10183000FFFFFFFFFFFFFFFFFFFFFFFFFFFFFFFFB8
:10184000FFFFFFFFFFFFFF53504500534F4E004186
:101850006C61726D65732044807361637469768016
:101860006573005B4D454E555D085B455849545DB9
:10187000000011241FBECFEFD0E1DEBFCDBF11E0CD
:10188000A0E0B1E0E2E9F8EC02C005900D92A031D1
:10189000B107D9F71CE0A0E1B1E001C01D92AA3365
:1018A000B107E1F70E94805F0C9447640C9400003C
:1018B0009C0145E0359527954A95E1F7280F391F9A
:1018C000AC01440F452F441F550B241B350B892FAA
:1018D000990F990B8595280F391FC90108958853D1
:1018E00091404BEA5AEA849F9001859F300D949F66
:1018F000300D1124C90108951F93CF93DF93EC019C
:101900001881110F61111160188389818F5F89839C
:101910008A81882361F011110AC0833631F0CE012B
:101920000E946F0C80628093DC0819821A828A817F
:10193000883091F148F48130B9F190F0823061F152
:10194000843009F047C028C08F35D1F020F48031B1
:1019500009F040C021C0813639F08236D9F534C053
:101960001F30C1F581E634C0CE010E946F0C806645
:101970008093DC0810922E0210922D028FE528C071
:101980008981803229F4CE010E946F0C806819C0D1
:10199000883201F580E11CC09981903328F090E0F5
:1019A000959587958A8319828A8190E0019729818C
:1019B00030E082239323892B69F4CE010E946F0CBF
:1019C00080648093DC0806C08981803418F088E048
:1019D0008A831982DF91CF911F910895CF92DF9270
:1019E000EF92FF92CF93DF936B017C01C0E1D0E0D7
:1019F00040E050E8E0E0F0E89A01DA010E94676315
:101A0000C616D706E806F90610F44E275F27F695A6
:101A1000E795219719F04E2B5F2BEECFCA01DF918E
:101A2000CF91FF90EF90DF90CF90089529E1AC0126
:101A3000249FC001259F900D1124892F08959C019A
:101A4000B5E035952795BA95E1F7AC01421B530BEC
:101A50009A01880F892F881F990B280F391FC901F8
:101A6000089549E2489F9001499F300D1124359512
:101A7000279535952795492F441F4427441F50E04B
:101A8000841B950B66E0959587956A95E1F7281B71
:101A9000390B241B350BC9010895992787FD9095B3
:101AA0000C94310D9F92AF92BF92CF92DF92EF9242
:101AB000FF920F931F93CF93DF93982E6A017B01C0
:101AC0000E94CA238C01FC0183812481922F9F7381
:101AD000880F991F880F991F9595879595958795DC
:101AE0000E94580C5C01F80181818C590E944D0DB7
:101AF000EC01F801808184560E944D0DFC019C2F61
:101B00008D2FAC16BD0614F49A2D8B2DA92EB82E50
:101B1000AE16BF060CF45F01C114D1048CEFE806C9
:101B20008FEFF806B4F0C114D10484E0E806F104A4
:101B30003CF4C114D104E104F10479F184F005C04E
:101B4000C12CD12C94E0E92EF12CDE01AA19BB099D
:101B500009C0C12CD12C8CEFE82EFF24FA94D501BA
:101B6000AE1BBF0BA70196010E9485636B017C0130
:101B7000CC24F7FCC394DD24EE24FF24DC01CB014C
:101B80008C199109A109B109CD0195958795959574
:101B900087958C0D911DA80EB91ECA15DB050CF496
:101BA0005E01AE16BF060CF45F01F801848187FF69
:101BB00003C0B194A194B108E92DF0E0E650FE4FC6
:101BC0008081803869F0DF91CF911F910F91FF9054
:101BD000EF90DF90CF90BF90AF909F900C944D0D01
:101BE000C501DF91CF911F910F91FF90EF90DF9092
:101BF000CF90BF90AF909F900895AF92BF92CF9239
:101C0000DF92EF92FF920F931F93CF93DF93B82E43
:101C1000882309F475C1992787FD909597FF03C024
:101C2000919581959109282F8F3139F491E0809118
:101C30002C02882309F45FC15BC18E3109F45AC1BB
:101C40008A3030F499270D960E942025982F53C191
:101C50008231C8F42A50E091A80B822F869564E067
:101C6000E69FF0011124E80FF11DED5FFB4E64913A
:101C7000217080B3660F620F80950E94FF2491E06F
:101C8000811139C135C18251C82ED12CEE24E39483
:101C9000F12C082E02C0EE0CFF1C0A94E2F72091F2
:101CA0002A0230912B022E213F21232B59F0209123
:101CB0006707309168072E213F2191E0232B09F01F
:101CC0001AC116C120912A0230912B022E293F29D8
:101CD00030932B0220932A020E945721EC019A8113
:101CE000892F82958F708A3008F0885F9F7009F481
:101CF00009C1882309F40CC10E94FD0D811108C19E
:101D000001C1F601EE0FFF1FE15BF84F80E090E8A4
:101D100091838083E1C088810E94FD0D182F898105
:101D20000E94FD0D2A812F7030E02630310521F010
:101D300027303105A9F411C0112309F4CDC088233F
:101D400009F4CAC080916707909168078E299F297E
:101D50009093680780936707CDC0112381F3F2CF7A
:101D60008127EDCF84E0A8120CC0F601EE0FFF1F13
:101D7000E15BF84F80819181181619060CF4ACC014
:101D8000E1CF95E0A91208C0F601EE0FFF1FE15B5D
:101D9000F84F80818170D3CF88810E94C10F8C0160
:101DA00062E0A6121CC089810E94C10F2A812F7097
:101DB00030E02930310521F02A30310559F405C0D1
:101DC0000817190709F088C0BDCF801791070CF4D8
:101DD000B9CF82C0081719070CF4B4CF7DC0888131
:101DE0008B3340F0298183E0280290011124205890
:101DF0003E4F04C089810E944D0D9C014A814F7065
:101E000050E04330510539F13CF44130510559F06F
:101E10004230510529F515C04430510569F045306F
:101E20005105F1F413C0021B130B015F1F4F0F315B
:101E3000110508F487CF50C017FF03C01195019515
:101E40001109201731070CF47DCF46C017FF03C0DE
:101E5000119501951109021713070CF473CF3CC0BB
:101E6000C601880F991FFC01E15BF84F4081518149
:101E70004115504811F411830083FC01E15BF84FD8
:101E800080819181A801481B590B8A818F708C3009
:101E900091F481E037FD07C0421753070CF480E04E
:101EA00057FF3FC011C0241735070CF480E014160B
:101EB000150654F036C057FF03C05195419551099E
:101EC00081E04217530744F0F601EE0FFF1FE15B7C
:101ED000F84F1183008333CF809167079091680793
:101EE000E094F094E822F922F0926807E092670704
:101EF00090E001C091E01B14BCF081E0982714C071
:101F000091E012C08A818F708F3009F0FACEE4CF51
:101F10008A818F700E944521A82E81E0A81222CFCD
:101F2000FACE8111D1CFD8CF892FDF91CF911F91D8
:101F30000F91FF90EF90DF90CF90BF90AF900895FA
:101F40000F931F93CF93DF93C1E0D0E00DE01C2FE0
:101F50000C9FF0010D9FF00D1124EE59F44F858177
:101F6000882321F00E94FD0D811105C02196C53006
:101F7000D10569F710E0812FDF91CF911F910F916B
:101F80000895811103C020E030E07BC0982F91506C
:101F9000973038F4E82FF0E0EE0FFF1FE25FFC4FC0
:101FA0000BC0883009F426C08C3048F4E82FF0E0EC
:101FB000EE0FFF1FEF5AFE4F2081318162C080314A
:101FC00068F4682F6C508091A70B0E94952473E0F1
:101FD000880F991F7A95E1F70C94580C803169F4B9
:101FE00081E00E94FD0D81114AC082E00E94FD0D3A
:101FF0008111C9CF20E034E044C0873110F48D5006
:1020000003C0833230F485500E94FD0D8823B9F15E
:10201000F1CF8B32C8F4482F50E043525109DA0116
:10202000AA0FBB1FAA51B84F2D913C91873248F49B
:10203000FA01EE0FFF1FE151F44F80819181281BBF
:10204000390B220F331F1DC08B3338F4E82FF0E01B
:10205000EE0FFF1FEC54FE4FAFCF8B3321F42091D6
:10206000B00B30E00EC08E3308F08DCF98E0899F22
:10207000F0011124E15CFE4F2581368102C020E091
:102080003CEFC9010895CF93DF93D0E0C0E08D2FDE
:102090000E94962326E0969587952A95E1F7C80F2A
:1020A000DF5FD430A1F7D0E18D2F0E94C10FC90F9F
:1020B000DF5FD731C9F780912F029C2F981B892FA2
:1020C000992787FD909597FF03C091958195910978
:1020D000823024F0C0932F0281E001C080E0DF91C4
:1020E000CF9108958091210190911401981761F189
:1020F000809314010E944310882349F010922E020D
:1021000010922D028091EE0B81FD0E94A4238091FC
:10211000EE0B843069F08091110190911201892BAE
:1021200039F48091690786FB882780F9817001C0A6
:1021300081E090911001992311F091E08927882383
:1021400011F0C79A0895C79808957F928F929F9231
:10215000AF92BF92CF92DF92EF92FF920F931F93B5
:10216000CF93DF937C01862F0E94C120EB012CEFDF
:10217000F21A1E141F040CF009C0882E912CE114D1
:1021800088E0F80654F0C80DD91D21978881992759
:1021900087FD9095982F882763C0911117C029C09B
:1021A0008A159B0551F0FE01E80FF91FE80DF91D96
:1021B00080810E944D0D9C5F02C080E098E08E15EA
:1021C0009F0558F57394A8018C010DC0712C00E097
:1021D00010E040E050E0640121E0C21AD10854014F
:1021E00082E0A81AB108872D90E08C159D05C4F2F5
:1021F00016C0B4016150710980E098E00E940F643C
:102200008B01C7010E942364762E609FA001619F0D
:10221000500D1124040F151F02C0A8018C01FE01EE
:10222000E70DF11DC081DD27C7FDD0959701241B67
:10223000350BA181BB27A7FDB095AC1BBD0B0E9440
:102240007363982F872F762F66279801241B350BF1
:1022500040E050E00E94A9639C2F8827820F931FC3
:1022600069E170E00E940F64CB01DF91CF911F9173
:102270000F91FF90EF90DF90CF90BF90AF909F9025
:102280008F907F9008959C016330A1F034F4613009
:1022900051F064F4662391F120C06530A9F084F018
:1022A0006630D9F416C097FF29C010C01816190659
:1022B0002CF50CC097FF22C03195219531091EC025
:1022C00018161906B4F002C097FD16C020E030E0E1
:1022D00015C01816190684F40CC067FF06C03195A6
:1022E0002195310986E0861B682F6750C9010C943F
:1022F000A51020E034E002C020E03CEFC9010895C1
:10230000609125010C94A5109C01220F331F492FC9
:10231000441F4427441F50E0841B950BBC01759556
:102320006795260F371F240F351FF4E09595879585
:10233000FA95E1F7280F391F240F351FC9010895B9
:10234000992787FD90950C948411CF92DF92EF929C
:10235000FF92CF93DF93EC01862F0E94A011FC0126
:102360009E01DE010E9467639B01AC01DF010E94B8
:102370007A63272F382F492F5527DE010E947A6371
:102380006B017C01CCE0F694E794D794C794CA958E
:10239000D1F720E031E02E1B3F0B0E9467636058AD
:1023A0007F4F8F4F9F4F6C0D7D1D8E1D9F1D472FA3
:1023B000582F692F7727CA01DF91CF91FF90EF90B7
:1023C000DF90CF9008952F923F924F925F926F923D
:1023D0007F928F929F92AF92BF92CF92DF92EF92B5
:1023E000FF920F931F93CF93DF93CDB7DEB728975C
:1023F0000FB6F894DEBF0FBECDBF682E592E762ED5
:1024000028E0E82FF92FCE010196DC0101900D9212
:102410002A95E1F7C12CD12C88248A94482E392E94
:10242000A12C24E0B22E8C2D711008C0F601EE0F05
:10243000FF1FE457FD4F91819F7791830E94DA231C
:102440007C01FC018081982F937009F48EC021815A
:10245000622F637070E0482D552747FD5095641733
:10246000750709F47AC0269526952F7130E0009003
:10247000A70B02C0359527950A94E2F720FD6DC0A1
:10248000859585950E94FD0D882309F466C0F701A6
:102490009180F3E09F22E42DF32DE90DF11DE90D6C
:1024A000F11D00811181F701808117FF03C080FDBC
:1024B00003C053C081FF51C071100AC0F601EE0F76
:1024C000FF1FE457FD4F81819FEF90FB87F98183C8
:1024D000892CF7016381662351F1818187FF05C053
:1024E000C8010E9443118C0122C0212E221C2224EB
:1024F000221C19F0119501951109772767FD709538
:1025000077FF0CC0719561957109C501801B910B16
:102510000E94A5118501081B190B04C0C8010E9467
:10252000A5118C01222019F0119501951109F701CF
:1025300082810E94A0119801DC010E945F63BB2789
:1025400097FDBA95A92F982F872FE62DF52DE90D28
:10255000F11DE90DF11D91838083FFEFCF1ADF0A92
:102560008EE0C816D10409F05ECF28960FB6F89415
:10257000DEBF0FBECDBFDF91CF911F910F91FF90B6
:10258000EF90DF90CF90BF90AF909F908F907F9013
:102590006F905F904F903F902F9008952F923F92B1
:1025A0004F925F926F927F928F929F92AF92BF9263
:1025B000CF92DF92EF92FF920F931F93CF93DF930F
:1025C00000D000D000D0CDB7DEB7582EE091610B1F
:1025D000EE2339F1A0911203B09113034091160339
:1025E000509117039D010E945F636B017C019A016A
:1025F000DA010E945F63C60ED71EE81EF91E8E2FF9
:102600000E944D0D9C01DC010E945F636C157D05ED
:102610008E059F0530F4C701B6010E94EE0C6C01D7
:1026200002C0C12CD12C00E010E0612C22242394A4
:10263000312C960140E050E029833A834B835C8340
:10264000A2E38A2E912CA12CB12C802F043060F4AF
:102650009091A80BF80134E0939FE00DF11D112437
:10266000ED5FFB4E749001C0702E0E949623BC015A
:1026700046E0409FF001419FF00D1124E254F44FD9
:1026800080819181681B790B161617061CF4248132
:10269000358102C0228133812436310514F424E6C9
:1026A00030E0882777FD8095982FEAE0660F771F46
:1026B000881F991FEA95D1F7442737FD4095542F7D
:1026C0000E94A9632D833E838D819E818115ACEF8D
:1026D0009A0724F08130944034F409C0E0E0FCEF24
:1026E000FE83ED8304C020E034E03E832D8380919F
:1026F000F00887FF0AC032E0731207C04D815E8187
:102700005195419551095E834D83E72CF12CF701DA
:10271000EE0FFF1FE05FFC4F8D819E8191838083D0
:1027200097FF03C091958195910954E096958795FF
:102730005A95E1F7282F823070F4C1010E2C01C0A8
:10274000880F0A94EAF7211102C0982F03C09091D4
:1027500013019823692A93E0971508F483C0A1E038
:10276000A51508F456C08091690790E00E2C02C0B0
:10277000959587950A94E2F780FF4BC08091F60704
:102780008111E2C046C0A42DAF73B0E0CD01880F27
:10279000991F8A51984FAD01440F551F4151544F15
:1027A000DC012D913C91DA018D919C91281B390B14
:1027B000A181BB27A7FDB0950E945F63A50194018D
:1027C0000E94A96342944694469443E04422842D97
:1027D00090E08130910519F00297D9F413C0ED8192
:1027E000FE81E20FF31FFE83ED83E1152CEFF2076C
:1027F00024F0E115F4404CF40CC040E05CEF5E8343
:102800004D8307C03E832D8304C080E094E09E8307
:102810008D83C114D104B9F091E0791619F0A3E0C9
:102820007A1211C08091610B0E944D0D2D813E8165
:10283000DC010E945F6329813A814B815C810E94A7
:10284000A9632D833E83C701880F991FFC01E05DBA
:10285000FD4F2D813E8131832083FC01EE50FE4FE0
:10286000318320830F5F1F4F0730110509F0EDCE34
:10287000652D82EF91E00E94E311B090A70B0091CB
:10288000EF0808708091F00860E4A62EA82270E896
:10289000972E982220E034E08091F6019091F70184
:1028A000281B390B6901EE24D7FCE094FE2C8090A4
:1028B0001B01EAEE2E2EE1E03E2E10E0612F8B2D63
:1028C0000E949524123011F5002301F1AA2019F07D
:1028D0002CE03EEF02C023E83FEF992019F0280FCB
:1028E000391F04C0AC01421B530B9A01442737FD2A
:1028F0004095542FC701B6010E948D635BE095950A
:102900008795779567955A95D1F7CB01882011F077
:1029100080E090E0BC01660F771FD1016D937D933D
:102920001D011F5F143051F6511019C01091F208AB
:102930001621809113018095812319F082E00E9475
:10294000B424109313010BC0F701EE0FFF1FE950E1
:10295000F44F4080842D807C09F015CF5ACF269605
:102960000FB6F894DEBF0FBECDBFDF91CF911F91A0
:102970000F91FF90EF90DF90CF90BF90AF909F901E
:102980008F907F906F905F904F903F902F90089521
:10299000CF92DF92EF92FF920F931F93CF93DF932B
:1029A000CDB7DEB728970FB6F894DEBF0FBECDBF08
:1029B0006C01809126010E94DA237C018E010F5F59
:1029C0001F4F88E0F80111928A95E9F7F70181819C
:1029D0008370D801A80FB11DA80FB11DCD92DC9254
:1029E00061E0C8010E94E311F70181818370F80161
:1029F000E80FF11DE80FF11D8081918128960FB637
:102A0000F894DEBF0FBECDBFDF91CF911F910F9124
:102A1000FF90EF90DF90CF9008958F718E3050F43B
:102A200090E0FC01EE0FFF1FE80FF91FE85CFE4F7E
:102A300083E682830895CF93DF93EC0180E00E94C8
:102A40000D15E091B70BE1110EC082E3C93AD8072A
:102A500019F481E08093B30B8BE5CA3DD80751F49C
:102A60001092B30B07C0AE2FB0E0AD54B44F8091BD
:102A7000B20B8C93EF5FE093B70BF0E0EE0FFF1F0C
:102A8000E65DF34FD183C0838FEB8093B80BDF916A
:102A9000CF9108958F718E3058F490E0FC01EE0FC5
:102AA000FF1FE80FF91FE85CFE4F82E68283118268
:102AB00008950F931F93CF93DF93809121019091FD
:102AC00022010196909322018093210180911101AE
:102AD00090911201009729F0019790931201809331
:102AE000110180911001882319F081508093100109
:102AF00080910C03882319F0815080930C038091FE
:102B00001B01882319F0815080931B018091F607E7
:102B1000882319F081508093F60706B30095C1E031
:102B2000D0E010E0B8010C2E02C0759567950A94AC
:102B3000E2F761709E0121503109C901880F991F88
:102B4000820F931F885C9E4F0E947C0C2196C73099
:102B5000D10541F710B31095C6E0D0E06C2F665058
:102B6000812F0E94FF2461E0811101C060E0CE014D
:102B7000880F991F8C0F9D1F885C9E4F0E947C0CB4
:102B80002196CE30D10551F78091620180FF09C0B6
:102B90008091210190912201811103C081E00E9466
:102BA000B4248091620181FF0CC080912101909139
:102BB0002201803411F18091210190912201883409
:102BC000E1F08091620182FF12C080912101909119
:102BD00022018038B1F08091210190912201883842
:102BE00081F08091210190912201803951F08091F2
:102BF000290C81608093290C08C081E00E94B424D4
:102C0000E0CF81E00E94B424F2CFDF91CF911F91F9
:102C10000F910895282F30E82303F0011124E15B80
:102C2000FC4F80E09081909591938F5F8038D1F731
:102C30000895CF92DF92EF92FF920F931F93CF935D
:102C4000DF937C01C62F2EEE40E460E08EE58C1B06
:102C50000E94891E00E02EEE40E460E28EE38C1BB1
:102C60000E94E21E0DE30C1BC0E0DCEF1FEF6FE3E0
:102C7000C62ECE01F70109959C5F96958795C89E53
:102C8000A001C99E500D1124852F86958695DC2CB8
:102C9000D81A1F3FC9F02D2D30E0211B31092F5FBD
:102CA0003F4F2330310530F442E0612F802F0E94E6
:102CB0005A1F0AC0412F4D1961E01D1508F460E04C
:102CC0006D0D802F0E94DF1EA0960F5F1D2DC0325C
:102CD000F4E0DF0771F6DF91CF911F910F91FF9024
:102CE000EF90DF90CF9008950F9300E00E94FA5389
:102CF0000F9108950F931F93CF93DF93D82F162F23
:102D0000C42FB9010E94B0222C2F206A85E0089FB1
:102D1000A00111246D2F88E40E947416CC2349F081
:102D20004FE0602F812FDF91CF911F910F910C9475
:102D3000143D802FDF91CF911F910F910895AF9295
:102D4000BF92CF92DF92EF92FF920F931F93CF9398
:102D5000DF93D42EF52EE90158012E2D0E94741612
:102D6000E1FE0AC002E09501AE016D2D7F2D8C2D94
:102D70000E94DF3BD82EF92E8D2D9F2DDF91CF9114
:102D80001F910F91FF90EF90DF90CF90BF90AF9089
:102D90000895CF92EF920F931F93CF93DF93EA01A1
:102DA0004981988196FF02C05FEF01C050E0C02EBC
:102DB000E22E05EF10E02BE03FEF0E949F16898383
:102DC000288197FF03C02064288303C0822F8F7B54
:102DD0008883DF91CF911F910F91EF90CF9008954D
:102DE0001F93CF93DF93182FC62FD42F242F462F56
:102DF00050E060E080E80E947416CA3010F0CFE620
:102E000001C0C5E72D2F4FE260E08C2F0E94751F97
:102E1000412F50E04F5F5F4F2D2F60E08C2FDF91EF
:102E2000CF911F910C9474166F927F928F929F9204
:102E3000AF92BF92CF92EF92FF920F931F93CF93D7
:102E4000C82FB62E3A01A22EF090B20B9090B10B83
:102E50000115110549F08E2DFE1408F48F2DF8018F
:102E6000E80FF11D849001C0812C6114710409F4F4
:102E70003BC0F11030C080911E0381112CC0C436BC
:102E800059F0C53611F0EB2D14C0BB2011F0EB2D1D
:102E900001C0EA2DE1500DC08B2D90E04A2D50E08D
:102EA00041505109841795071CF4EB2DEF5F01C0C9
:102EB000E0E0FF27E7FDF0958B2D90E0E817F9079C
:102EC00061F0EE0FFF1FE60DF71D25913491C9014A
:102ED0000E94872002C040E001C042E010921E0321
:102EE0006A2D8B2D0E94F016C03659F188F4C33438
:102EF00009F485C030F4C132B1F1C23409F09DC08B
:102F000056C0C43409F443C0C53409F096C06BC040
:102F1000C43609F43FC038F4C23609F44BC0C33696
:102F200009F08BC06EC0C138D9F0CF3B21F0C53657
:102F300009F083C05AC08FEF8093E307912CF12CE6
:102F40007CC06114710419F0FF2009F47DC081E098
:102F50009091E30719160CF480E08093E3076DC0AD
:102F60001092E3070CC08091E30718161CF410922E
:102F7000E30763C0FF2019F06114710419F40E9483
:102F800094205BC080E00E94B424912C5DC0981412
:102F900009F453C0012B09F450C08091E3071816BF
:102FA0000CF44BC0981408F045C0939446C0FC1430
:102FB00009F443C08091E30718160CF43EC0FC14DA
:102FC00010F4F39401C0F12C0115110599F18F2D26
:102FD000EF1408F48E2DF801E80FF11DE491EF3F96
:102FE00009F04FC0ECCF992041F1012B31F18091D4
:102FF000E307181614F19920D9F09A941EC0FF2007
:10300000E1F08091E3071816C4F0FF2011F0FA9464
:1030100001C0FC2C0115110569F08F2DEF1408F487
:103020008E2DF801E80FF11DE491EF3F51F5EDCF42
:10303000982C03C0912C01C09E2E672811F047E008
:1030400001C046E0F11004C01092E207F12C14C058
:103050005091E2072F2D30E0852F90E0840F911DD5
:10306000821793071CF48F2D841B04C05F1520F07A
:103070008F2D81508093E207F092B20B9092B10BAA
:1030800003C09E16D0F2D8CFCF911F910F91FF9021
:10309000EF90CF90BF90AF909F908F907F906F9068
:1030A00008954F925F926F927F928F92AF92BF92EC
:1030B000CF92DF92EF92FF920F931F93CF93DF9304
:1030C000D82E809126010E94DA23EC0149814370B9
:1030D0004F5F20E060E08DE20E947D55E5E0CE2E5E
:1030E000F4E0EF2E01EB10E020E040E050E060E083
:1030F0008D2D0E94141787E39EE00E94A722409026
:10310000B20B612C712CA9E0FA2E552447FC509487
:10311000B4E0BB2E862D4614570439F49091E30792
:1031200019162CF473E0E72E04C0E12C02C062E013
:10313000E62E823009F440C030F4882369F08130F3
:1031400009F0AAC01BC0843009F47DC008F469C02E
:10315000853009F0A1C087C064EC7CE08F2D0E940F
:10316000B0224A81CD2C04E610E020E030E050E0AF
:103170006F2D8EE30E949F168A838EC066EB70E0EF
:103180008F2D0E94B022898187FF03C09B819111FE
:1031900011C08F7789834B81552747FD5095CD2CE2
:1031A00004E610E02CE93FEF6F2D8EE30E949F169E
:1031B0008B8372C02E2D2EC06DEB7CE08F2D0E9474
:1031C000B02289812E2D87FD03C08B81811122C001
:1031D0004B816F2D8CE20E94C255EE2009F45CC039
:1031E0004EE06B818D2D0E94143D8B83882309F462
:1031F00053C099819068998387300CF44DC090E852
:10320000D9124AC087508093250186EA9AE20E942B
:103210001B1542C04BEB50E06F2D8CE20E94A022A8
:103220003BC02981269526952F710E2D4D2D6F2D92
:1032300080E20E94973D8F71880F880F9981937863
:10324000982B998329C04881459545950D2D2E2DA4
:103250006F2D8CE20E94183D880F880F9881937023
:10326000982B988319C0888183700B2D081B8D2C97
:10327000AE2C53E0C52EEE24E39425E33FE04FEB64
:1032800050E06F2D8CE20E944F3D9B2D981B937058
:1032900088818C7F892B888388E0F80E9FEF691ADC
:1032A000790A81E4F81236CF60E088EC94E10E945C
:1032B0001916E981E370F0E0EE0FFF1FE05FFC4FAD
:1032C00060807180C3010E94160D482F552747FD6D
:1032D000509520E060E388E70E947416C3010E94C5
:1032E000C814EC010E94160D482F552747FD509534
:1032F00020E068E084E50E9474169E013C5F37FF81
:1033000002C02F5F3F4F359527954FE3429FC00185
:10331000439F900D1124892F992786958695CFE399
:10332000D0E0C81BD90B35E0769467943A95E1F765
:10333000C301825A9F4FD82F6C2F635047E00E94E1
:10334000DF1E20E047E06C2F8D2F8350DF91CF915F
:103350001F910F91FF90EF90DF90CF90BF90AF90B3
:103360008F907F906F905F904F900C94531F4F926F
:103370005F926F927F928F929F92AF92BF92CF9205
:10338000DF92EF92FF920F931F93CF93DF93882EDC
:10339000809126010E942224EC010E94A00F4091FE
:1033A0002601841302C020E401C020E04F5F60E0EA
:1033B0008EE40E94485580912601811102C082E06E
:1033C00001C084E0C82E23E0E22E04E811E020E0F2
:1033D00040E050E060E0882D0E94141788E891E0FA
:1033E0000E94A722C090B20B5090E30739E0F32E61
:1033F000712C10E0DD24C7FCD0945E0126E0A20E03
:10340000B11C80912601811103C0113009F413E031
:10341000872D90E0C816D90629F415142CF493E0F2
:10342000E92E04C0E12C02C082E0E82E1230F9F04F
:1034300030F4112359F0113009F07FC00FC0133060
:1034400009F45EC0143009F078C067C0082D26E08A
:10345000A5016F2D88E40E94643C6FC0082D2E2DBD
:103460004D816F2D88E40E94183D8D8366C065E90B
:1034700071E08F2D0E94B02208E4602E912C809183
:10348000B10B891511F000E001C00E2D292D4091DE
:1034900026016F2D862D0E944A24EE2051F1409086
:1034A000B10B491026C0151424F5692D8091260111
:1034B0000E942A24843F21E0920714F484EF91E0D3
:1034C00002E028EF31E044EF51E0BC01882D0E947A
:1034D000DF3B20912401222361F0843F21E0920709
:1034E00011F480E090E0AC01642D809126010E94EF
:1034F000B43B939486E0680E24E09212C0CF1DC0C6
:103500000C850F702BE931E04E2D682D8F2D0E9418
:103510007A168F709C85907F0EC00C8502950F7077
:1035200024EA31E04E2D682D8F2D0E947A16829567
:10353000807F9C859F70982B9C871F5F739488E089
:10354000F80E153008F45DCFDF91CF911F910F91E8
:10355000FF90EF90DF90CF90BF90AF909F908F90B3
:103560007F906F905F904F900895CF92EF920F935E
:103570001F93C02EE12C00E010E00E9414171F9151
:103580000F91EF90CF9008958F929F92AF92BF923C
:10359000CF92DF92EF92FF920F931F93CF93DF931F
:1035A000C82F06E02AE044EA53E163E00E94B51A1E
:1035B00080E691E00E94A722B090B20BBA94C03688
:1035C00019F0C43699F409C085E0B81206C010920B
:1035D000E30788EC80931B0109C0E4E0EB1530F0B1
:1035E000B092260187EB99E10E941B1519E0C0E01B
:1035F000D0E0CB2CDD24C7FCD094AC2ECC15DD055F
:1036000011F402E001C000E08A2D0E9422247C0116
:103610000E94A00F8A1102C020E401C020E0202BEC
:103620004A2D4F5F612F80E00E944855A7014A5FF5
:103630005F4F00E826E0612F88E10E943F22A11041
:1036400007C04EE651E0612F85E40E94AD2217C00D
:1036500020E0F7014581612F85E40E94C4224DE5F9
:10366000842E912C00E0292D4A2D612F882D0E9457
:103670004A249394F6E08F0E84E09812F3CFF7017A
:103680008485882371F0982F9F7021F0807F21F02E
:103690004AE203C04FE401C049E4612F8AE70E9477
:1036A00084202196185F113309F0A7CF67E771E0F6
:1036B00089E30E94B0224091A70B4F5F20E069E3AD
:1036C00086E30E944855F5E0BF1213C080911B01AC
:1036D00081110FC087E0DF91CF911F910F91FF9073
:1036E000EF90DF90CF90BF90AF909F908F900C9411
:1036F0000A16DF91CF911F910F91FF90EF90DF900D
:10370000CF90BF90AF909F908F900895EF92FF92CF
:103710000F931F93CF93DF93C82F08E02AE044EA6A
:1037200053E167E00E94B51A8EEA91E00E94A72259
:103730001091B20B1150C03611F0C43641F417FD90
:1037400006C01093250186EA9AE20E941B1559E0F3
:10375000E52EF12CC12FDD27C7FDD0952091E20782
:103760002F0D822F90E0C817D90711F402E001C095
:1037700000E02F5F4EEA50E06E2D80E00E94315550
:10378000F39488E0E80E87E0F812E8CF17FD0BC04D
:103790001093250187E1DF91CF911F910F91FF9049
:1037A000EF900C946456DF91CF911F910F91FF9091
:1037B000EF900895BF92CF92DF92EF92FF920F9316
:1037C0001F93CF93DF9300E026E04CE552E163E0E6
:1037D0000E94B51A86EB91E00E94A7224DEB51E0C2
:1037E00068E184E50E94AD2210E1C0E0D0E065E030
:1037F000C62E75E0E72EF12CDC2E88E0C81791F17B
:103800002C2F2695022F000F000F000F005EBC2EFC
:1038100081E0B822C0FF06C043E75CE0602F84E58A
:103820000E941257AE014A5F5F4FBB2011F088E73C
:1038300001C08CE6602F0E94792585E08D1590F0FF
:103840002C2D2D1900E047E851E1612F80E00E9406
:10385000B522A7014C1B5D0B612F80E20E947925E8
:10386000DD2081F0012F08514D2D4F5F20E0602FAA
:1038700080E30E94C422AE01425F5F4F602F84E468
:103880000E9479252196185F183509F0B5CFDF9190
:10389000CF911F910F91FF90EF90DF90CF90BF904D
:1038A00008950F9300E026E04CE552E162E00E94AB
:1038B000B51A85EC91E00E94A7226DEC71E080E1E1
:1038C0000F910C94B022552747FD509520E00C94A1
:1038D0007416CF93C82F8FED90E00E94A722C136B7
:1038E000A1F0C23679F0C036A1F48FEF8093F707CC
:1038F0001092F8071092260C1092250C80E00E947E
:10390000B42407C08CE19EE102C08AE39EE40E94D9
:10391000872065EE70E088E00E94B0224091F807B1
:10392000469568E084E50E94631C65EF70E080E1E5
:103930000E94B0224091F707469560E184E50E941D
:10394000631C65E071E088E10E94B0224091F807B5
:1039500050E08091F707481B510957FF02C04F5FA5
:103960005F4F5595479568E184E50E94631C65E1CA
:1039700071E080E20E94B0228091250C9091260C8B
:1039800024E6289FA001299F500D1124F4E05695AC
:103990004795FA95E1F720E360E284E50E9474160A
:1039A00062E271E088E20E94B022EBE3FCE08191E8
:1039B0008535E9F3AF014A535C4028E068E284E5CD
:1039C0000E94741640E351E069E388E10E94AD2251
:1039D00087E0CF910C940A16CF93DF93D62FC22F96
:1039E000922F9073903311F420E001C020E22C2B31
:1039F0002F7B6D2F0E947416C6FD09C02C2F46E543
:103A00006D2F80910F03DF91CF910C94751FDF9183
:103A1000CF9108959F92AF92BF92CF92DF92EF9293
:103A2000FF920F931F93CF93DF93D82E01E026E0F0
:103A30004CE552E164E00E94B51A84EC90E00E94EB
:103A4000A722C0E0D0E049E1C42EBC2EFC2EF694A3
:103A5000FF0CFF0CFF0C89E0F80EC0FF03C035E43B
:103A6000E32E01C0E12C2B2D2F5F00E049EC50E04C
:103A70006F2D8E2D0E9431554AE36F2D80912301C9
:103A80000E9484208B2D0E9496238C0196E2A92E01
:103A9000AE0C22E1922E9E0C8BEFA80EA8014F7067
:103AA00055274A302CF0495C41341CF028E002C014
:103AB000405D20E06F2D8A2D0E94751F84E01695D1
:103AC00007958A95E1F7A910E7CF93E09B1558F089
:103AD0008091A80BFE0194E0899FE00DF11D112457
:103AE000ED5FFB4EB490EB2DF0E0EE0FFF1FE05FBB
:103AF000FC4F80819181C89EA001C99E500D112468
:103B000057FF02C041505F4F452F550F550B6F2D8A
:103B10008E2D855C0E94631C2196C730D10509F06B
:103B200094CF4BEC50E061E285E40E94AD224091DD
:103B3000AE0B5091AF0B20E061E286E60E94741656
:103B40006FEC70E08EE20E94B0228091B20B813067
:103B500011F422E001C020E04091B00B50E06EE291
:103B600082E70E94EC1C8091B20B813049F42FE770
:103B700041E86091ED0B8D2D0E94403D8093ED0B4F
:103B8000DF91CF911F910F91FF90EF90DF90CF9039
:103B9000BF90AF909F900895BF92CF92DF92EF9227
:103BA000FF920F931F93CF93DF93D82F162F7A0195
:103BB000C22FB02E27FD05C022FF02C0DE5201C079
:103BC000DA51F7FE10C0C2FF02C088E001C085E0F4
:103BD0002C2F4DE2612F9D2F981B892F0E94751F5E
:103BE000F194E194F1086CE370E0C7010E940F6466
:103BF0006B017C012C2F206902E0AB01612F8D2F1E
:103C00000E94FA532B2D2C234AE3612F80910F033E
:103C10000E94751F2B2D2069A701612F8091230120
:103C20000E94FA53DF91CF911F910F91FF90EF9077
:103C3000DF90CF90BF9008950F93CF93C82F82E469
:103C400091E00E94A722C13629F0C33639F489E6F3
:103C50009CE102C08AE39EE40E94872048E451E090
:103C600060E086E00E94AD2240912403509125033C
:103C700000E020E068E088E30E94CC1D40912C0326
:103C800050912D0320E068E082E60E94CC1D409117
:103C9000190150911A0120E060E188E30E94CC1DD7
:103CA000409117015091180164E0569547956A9527
:103CB000E1F720E060E182E60E94CC1D4091150111
:103CC0005091160120E060E082E60E94CC1DCF9169
:103CD0000F910895FC01808141FF02C0682B06C04E
:103CE00042FF03C06095682301C068276083089580
:103CF000EDE7F0E080818F7D8083179AAAE8B0E03D
:103D00001C9210928B008AE08C9380818861808362
:103D1000089587FD53C047FF02C0640F419567FFB8
:103D200002C0460F60E0A42FBB27A7FDB095A60FE9
:103D3000B11D67FDBA95A134B10514F040E4461BEE
:103D4000253511F460FF2AEA362F359535953595DE
:103D5000E82FF0E050E83503E00DF11D1124E15BA0
:103D6000FC4F6770B9F081E090E0062E01C0880F2B
:103D70000A94EAF781958223908189278083E0580D
:103D8000FF4F6850460F06C0808182278083E0582D
:103D9000FF4F48501416C4F3442381F0485F71F07C
:103DA000E058F10981E090E0042E01C0880F0A94E8
:103DB000EAF78195822390818927808308952FEFE8
:103DC0000C94891EEF92FF920F931F93CF93DF9372
:103DD000122F603470F5C82FD0E0FE01E40FF11D02
:103DE000E138F10514F040E8481B862F869586954A
:103DF000869590E8899FC00DD11D1124677081E0E0
:103E000090E0E82E01C0EE0C6A95EAF7C15BDC4F4A
:103E1000FC2EF40E0CC010FF08C0402F6E2DCE01FA
:103E20000E946A1E1695106801C016952196FC1214
:103E3000F2CFDF91CF911F910F91FF90EF900895F6
:103E4000DF92EF92FF920F931F93CF93DF93C82FD0
:103E5000162FD42FD22EF02E202F4D2D0E94891EEA
:103E60008C2F8150202F4D2D612F8D0F0E94891E88
:103E7000E3FC02C0CF5FD250612F61506D0D00E0B6
:103E80002F2D4D2F8C2F0E94E21E2F2D4D2F612F95
:103E90008C2F0E94E21EDF91CF911F910F91FF9016
:103EA000EF90DF9008950F93022F2FEF0E94E21EF4
:103EB0000F910895262F26952695269590E030E8B7
:103EC000239F800D911D1124815B9C4F27E08F342F
:103ED000920750F4262F277061E070E001C0660F52
:103EE0002A95EAF70C946A1E08957F928F929F920A
:103EF000AF92BF92CF92DF92EF92FF920F931F93F8
:103F0000CF93DF93C62FC695C695C695D0E0DE0148
:103F1000B695BA2FAA27B795A795A80FB11D982FC8
:103F2000915090932301A25BBC4F20FF07C03091BA
:103F3000210136FF07C021FD07C0D8C021FB332770
:103F400030F903C030E001C031E0522F5474D1F099
:103F5000542F5C525F3010F45F5F15C0542F5154E2
:103F60005A3110F4505F0FC0542F51565A3110F48B
:103F7000565D09C04F3521F0403221F02F7B02C041
:103F800054E001C050E022FF31C024E1529FA00163
:103F900011244A5E5B4F60E0611107C0882311F075
:103FA00031110CC09F5F11961DC06B3039F0FA01C2
:103FB000249131964E5F5F4FE49102C0E0E020E033
:103FC0007E2F72237F3F71F0332311F02095E0950F
:103FD000ED01C058DF4FF7E0CF34DF0718F42D9321
:103FE000E8839F5F6F5F6C30B9F67EC0677026FD17
:103FF00007C075E0479FA001112443585E4F06C0DB
:10400000E5E05E9FA00111244A59564FD695DC2F5A
:10401000CC27D795C795C153DC4FE62EF12CEFEF97
:10402000F0E0BE2E062E01C0BB0C0A94EAF7AB2CC2
:10403000A09470E0E8E09E2E922208E010E00E19B5
:104040001F09F0E17F2E7222711107C0882311F041
:10405000311111C09F5F119643C0763041F0FA01D3
:104060004F5F5F4FE491EF3F19F47720C9F1E0E033
:10407000332319F001C0E0E0E095992011F072308F
:1040800079F1F7E0AF34BF0748F5AC17BD0730F55D
:10409000CE2ED12CF6010E2C01C0EE0F0A94EAF7B9
:1040A0008C908A208E2A8C926623C1F0FD01E05804
:1040B000FF4F27E0EF34F20750F4002E02C0D594F2
:1040C000C7940A94E2F7D080DB20DC28D082332327
:1040D00029F0613019F4E82DE160EC9311969F5FAF
:1040E0007F5F773009F0B0CF90932301DF91CF91BC
:1040F0001F910F91FF90EF90DF90CF90BF90AF9006
:104100009F908F907F90089520E00C94751FE09110
:10411000B70BF0E0EE0FFF1FE65DF34F9183808356
:104120008FEB8093B80B0895E7EBFBE08081815023
:1041300080838EEB8093B80B0895282F2F7130E089
:10414000245031092230310518F48093DC08089599
:104150001092B10B0895882371F0E82FF0E0E65635
:10416000F54F2081332727FD309595E0899F200D5D
:10417000311D112402C020E030E02D55354FC9011A
:1041800008951F93CF93DF93182F0E94AB20EC016B
:10419000812F8F5F0E94AB208C1B9D0B80FD04C084
:1041A00086958F5F91E001C090E0BE01DF91CF91D5
:1041B0001F9108950F931F93CF93DF93C82F809182
:1041C00025010E94C120482F092FFB01C817D0F5F7
:1041D0002C2F30E0C90155E0880F991F5A95E1F75F
:1041E000642F669570E00E940F64D62FD35CE20FB7
:1041F000F31FA0818FE3A802D0011124CD018456C2
:10420000974E68E37FEF0E940F64162F115C002326
:10421000D9F0CC23C9F050E0DA0111972A173B07F7
:104220009CF4E40FF51F3197808120E48202C001E5
:1042300011248C59964E68EC70E00E940F64D62FC2
:10424000D35C02C010E0D0E08D2F912FDF91CF9191
:104250001F910F91089583393CF4282F332727FDB0
:1042600030952F573F4F0FC087303CF495E08902BF
:10427000900111242B5C3D4F06C09AE08902900109
:1042800011242E5E3D4FC9010895863040F08930DB
:1042900040F08C3040F08E3040F08A50089580E03D
:1042A000089581E0089582E0089583E0089590E004
:1042B0009C01220F331F280F391F255F344FC9017E
:1042C00008958F929F92BF92CF92DF92EF92FF92CA
:1042D0000F931F93CF93DF93C82E8091F00885FF33
:1042E00003C0C0E0D5E002C0C0E0D4E0CC2039F08B
:1042F00021E0E2E4F8E0C21204C080E103C0EAEF8A
:10430000F7E088E0D090EF08D594D594D594D59473
:10431000DD0CD80E4091F10884E64802A00111247A
:10432000485A5D4F08EC1FEA041B150BA091A30B24
:10433000BB27A7FDB09528EE33E00E947363600FA2
:10434000711F811D911DA1E0CA1204C0B8EFBB2EE0
:10435000BD0C2BC0B12C29C02B2D30E0220F331FF8
:10436000215D3C4FD901ED90FC90E814F90424F054
:10437000EC16FD061CF403C0740101C07E01B8E414
:10438000EB1AB4EFFB0A8701222717FD2095322F85
:10439000601B710B820B930B51834083E41AF50A67
:1043A000F382E2823496B39404C0882499248C1A50
:1043B0009D0ABD1488F2518340836115710521E087
:1043C000820791053CF46832A3E27A0781059105E2
:1043D00034F009C06FEF7FEF80E090E004C068E246
:1043E00073E280E090E0DF011496C1100BC0685EBC
:1043F0007340738362838AEF97E090930301809305
:10440000020109C073836283CB01885E934090935D
:104410008B0880938A081D921C92DF91CF911F9187
:104420000F91FF90EF90DF90CF90BF909F908F9073
:104430000895882309F187FF06C0863E1CF0E0E658
:10444000E81B1BC081958B311CF4E82FE05C15C084
:1044500085321CF4E82FEB5E10C0893244F4E82F5B
:10446000FF27E7FDF095E354F54FE49106C08C3249
:104470001CF4E82FE95A01C0E0E28E2F0895AF92B4
:10448000BF92CF92DF92EF92FF920F931F93CF9341
:10449000DF931F92CDB7DEB7E82EF62ED22E5A014B
:1044A000182FC12CD40E802F807A898337C0E981E0
:1044B000E03219F0E03851F403C0F501408108C042
:1044C000F50180810E941922482F02C0F501449114
:1044D000C1101CC0442321F1403240F0202F6F2D29
:1044E000812F0E94751F1091230115C04F3189F053
:1044F0004E3139F4F8E0FF0E8FE31E2D8F1580F05A
:104500000AC0842F880F840F180F05C0142FC12CE8
:1045100002C0CC24C394EFEFAE1ABE0ADA10C7CFA4
:1045200010930F03109323010F90DF91CF911F91F0
:104530000F91FF90EF90DF90CF90BF90AF900895D4
:104540000F93022F2FEF0E943F220F91089522E038
:10455000AC0160E080E00C94A02220E00C94A0224A
:10456000AB01682F80E00C94AD220F93FA01949177
:104570000F754F5F5F4F929F400D511D1124292FE2
:104580000E943F220F9108950F931F93CF93DF93C3
:10459000D82F162FC42F022F423E21F420E049E8E5
:1045A0005EE00AC047FF05C041E282500E94751FCD
:1045B000C1952C2F46EA51E1612F8D2F0E94B52223
:1045C000DF91CF911F910F9108950F9347FD0AC07E
:1045D00045303CF4022F242F4BE452E10E94B522D7
:1045E00004C044500F910C94C4220F9108950F936E
:1045F0004150022F242F4FEF5EE00E94B5220F9111
:1046000008952091E50732B78091E5072813F9CF87
:10461000922F80E0AC01432B9A01C901089580914B
:10462000EF08877090918C07911184E090910401BC
:10463000981709F463C0809304011EBC1DBC1CBC08
:1046400097B7937C97BF90917D009E7F90937D005C
:104650009CE396BF9FE390937C00813019F08230F9
:1046600081F51CC080E49CE99BBD8ABD87B7806151
:1046700087BF1FBC8AE08EBD81E00E94612180E57A
:1046800093EC909387008093860088E893E1909361
:104690008500809384000E94781E30C082E00E94D2
:1046A000612180E593EC909387008093860088E8F1
:1046B00093E190938500809384000E94781EC098B7
:1046C0001DC080917D00857E80937D0017981F9A84
:1046D00010928A0010928B0082E880938A00809169
:1046E0007D00806280937D0080EE9BEA9BBD8ABD49
:1046F00087B7806187BF1FBC8AE08EBD8091F008BC
:10470000829581708093F9070E9401232091A30B69
:1047100038E02302800D911D1124885B9E4F9093F9
:10472000280C8093270C80E00C946121E82FF0E0A6
:10473000E951F54FE491F0E0EE0FFF1FE85DFE4F09
:1047400020813181C90108958091050C2AEF829F53
:10475000C0011124880F991F9093120180931101B9
:1047600008958250823028F485E0689FB0011124BA
:1047700001C070E0CB010895EEEBFBE020E030E0FB
:1047800081919191280F391F8BE0E63DF807C1F721
:10479000C901089595E0899F900111242D5E354F40
:1047A000C901089599E0899F900111242D50374F38
:1047B000C901089594E0899F900111242D59354F26
:1047C000C90108951F93CF93DF93182F882311F009
:1047D000CDE001C0CFE1D0E08C2F112331F00E9459
:1047E000DA23FC019081937005C00E94D223FC0162
:1047F00094819F739111DF5FC150C7FFEDCF8D2F63
:10480000DF91CF911F910895CF93C82F0E94E2238B
:10481000282F30E0C1110CC00FC08AEB9AE002C013
:104820008DEC9AE09093BA0B8093B90B81E008C0AD
:104830002E30310594F703C0203231058CF780E02B
:10484000CF9108959DE0899F900111242E59344FF6
:10485000C9010895CF93C62F0E9422246C2F70E0C7
:10486000FC01E60FF71F4081FC012481332727FD5F
:104870003095660F771F02C0359527956A95E2F748
:1048800023703327F4E04F02200D311D1124C9019C
:10489000CF910895FF920F931F93CF93DF93C82F6B
:1048A000D62FF42E122F622F842F0E942A24853FA8
:1048B00021E092078CF0982F955F9F1508F09F5F7D
:1048C000492F405D202F6D2F8C2FDF91CF911F91AD
:1048D0000F91FF900C94751F412F4F5F202F6D2F6C
:1048E0008C2FDF91CF911F910F91FF900C94F722A5
:1048F0001F93CF93DF93C82F162FD5E0CC2381F0E1
:10490000612F8C2F0E942A24853F21E0920744F0DA
:10491000855F8C1708F08F5FD150C82F79F7C0E002
:104920008C2FDF91CF911F910895CF93C62F0E94B6
:1049300078246C2FCF910C942A24E091060CF0E09F
:10494000E151F54FE491F0E024E030E0281B31091B
:10495000220F331F02C0F595E7952A95E2F7E37021
:10496000FF278E2F8F5F08959091000C95FF05C053
:10497000823018F024E1209310019871983049F0AA
:10498000911103C0811105C008959831C1F483309D
:10499000B0F090910A0C9295990F907E959595950F
:1049A000959595959595E82FF0E085E09802E00DB6
:1049B000F11D1124EF5EF44FE491E0938E08089509
:1049C00080918E08811108C080918C08811104C0EB
:1049D00080918D08882311F084E105C080911E012B
:1049E000882321F0815080931E0106C080916300CE
:1049F0008695817080931F0180911F010895633017
:104A000099F020F4613061F068F408C0653081F0FD
:104A100068F0663079F0673089F40EC080740895CC
:104A2000807808958870089584700895807208953C
:104A300080710895827008958170089580E00895CE
:104A40008E30910554F4FC01EE0FFF1FE80FF91FA3
:104A5000E85CFE4F81E0908148C08231910509F108
:104A60007CF48F30910531F124F48E309105D9F525
:104A70001BC08031910539F181319105A1F52DC01F
:104A80008431910559F03CF08531910519F1863159
:104A9000910549F525C091B1947026C091B19270ED
:104AA00023C0909163001AC09091630093FB9927F3
:104AB00090F90DC08091630083FF15C091B196FB02
:104AC000992790F911C091B196FB992790F981E04F
:104AD00098270AC091B1907107C091B1917004C03C
:104AE00091B1907201C090E081E0911101C080E02D
:104AF0000895CF93DF93C82FD62FCA010E94202597
:104B0000882311F022E001C020E0482F405D6D2F86
:104B10008C2FDF91CF910C94751FF8942091210177
:104B2000309122017894C9010895EF92FF920F937A
:104B30001F93CF93DF93C6E1D0E000E810E0EDE0F3
:104B4000EE2E809120018023FF24F394811101C077
:104B5000F12CCE010E942025F816C9F03C2F3151CE
:104B60002C2F2D50353018F0811103C006C088233A
:104B700011F0122F02C01E2D1C1B243018F411112D
:104B800001C011E0809120018027809320010695CB
:104B90002197CE30D105A9F60E948D2520911C01C8
:104BA00030911D01821B930B0B9708F010E00E94BF
:104BB0008D2590931D0180931C01812FDF91CF9152
:104BC0001F910F91FF90EF9008952F923F924F9277
:104BD0005F926F927F928F929F92AF92BF92CF928D
:104BE000DF92EF92FF920F931F93CF93DF93F82EF4
:104BF000D090EF0827E0D22232E03D1510F082E19C
:104C000001C081E1C82E52E1E52E00E21BE02AE05E
:104C100044EA53E161E08F2D0E94141783E39BE087
:104C20000E94A7225090B20B5A949090E30719E08B
:104C3000B12C66246394712C7FE0472E2091E2070B
:104C40002B0D191414F483E001C082E0521611F008
:104C5000A12C01C0A82E2A3009F428C168F42730FD
:104C600018F4213030F51BC08091F008283009F489
:104C7000F1C008F0FFC0DEC02E3009F473C130F47B
:104C80002C3009F444C108F054C122C1203109F488
:104C900028C208F4E1C1213109F010C394C2EA2C02
:104CA0000F2D2AE04EED58E0612F8EE30E94643C08
:104CB00005C331E0243008F430E0832F90E0EC01AC
:104CC000CC0FDD1FC80FD91FC751D74F223011F0AD
:104CD000253081F48A81EF2C0A2D20E43BE0412F1E
:104CE0006EE385FB882780F90E940F569A8180FB2E
:104CF00095F912C0233011F0263081F48A81EF2C0F
:104D00000A2D2AE43BE0412F6EE3829581700E94D8
:104D10000F569A8180FB94F99A83D0C2332311F005
:104D200022E001C021E000E043E55BE0612F80E08C
:104D30000E9431558091B10B882311F020E001C011
:104D40002A2D4881612F8EE30E94E5228091B10BCC
:104D5000823021F0813029F000E001C00A2D20E0EE
:104D600002C02A2D00E049815A815F70612F84E7DB
:104D70000E94CC1DAA2009F4A1C219140CF09EC2F5
:104D80009A816CE370E089819F700E940F641C011E
:104D90008091B10B813099F020F0823009F08EC201
:104DA0001FC06881772767FD709502E023E230E03D
:104DB00041EE5FEF8F2D0E94DF3B88837FC24BE384
:104DC0008F2D0E94143D91014CE38402200D311D72
:104DD0001124C90129839F708A81807F892B28C073
:104DE000622D6E5F2EE341E08F2D0E94053D9927D5
:104DF00087FD90950297281A390A89812A81922F76
:104E00009F708215930544F08219930989839F70DE
:104E1000822F807F892B8A8389812A81922F9F709C
:104E200080319E4008F44AC24982822F807F8E6082
:104E30008A8344C2EF2C0A2D2BE53BE0412F6EE321
:104E400085FB882780F90E940F569091F00880FB1F
:104E500095F932C2EF2C0A2D27E63BE0412F6EE395
:104E600086FB882780F90E940F569091F00880FBFE
:104E700096F922C2082F0295000F007E0595059530
:104E80000595059505958F2C92E0C92E2EEFE22E03
:104E900020EE3EE041E75BE0612F8EE30E944F3D54
:104EA00087709091F008987F982B06C28091F00847
:104EB00087FB882780F9EF2C0A2D2AE73BE0412F5A
:104EC0006EE30E940F569091F00880FB97F9F4C1B1
:104ED00063E87BE0812F0E94B022AA2041F043E1E9
:104EE0006091A40B8F2D0E94143D8093A40B8091A0
:104EF000A40B482F4D5F443020F04F5F483008F03E
:104F00004D5D2A2D612F8EE30E947D55D7C1809182
:104F1000EF08EF2C0A2D2EE83BE0412F6EE383FBD8
:104F2000882780F90E940F569091EF0880FB93F933
:104F300029C18091F00883FB882780F9EF2C0A2D86
:104F400027E93BE0412F6EE391E089270E940F564D
:104F500091E0811190E08091F00890FB83F98093BB
:104F6000F008ACC162EA7BE0812F0E94B022009180
:104F7000A50BAA20C9F01092E30720E2F21621F057
:104F800030E8F31211C015C0C3010090B10B02C08C
:104F9000880F991F0A94E2F79091A60B9827909397
:104FA000A60B82E00E94A83B212C312CC0E0D0E06F
:104FB00010C00E949525809120018093A50B83E06D
:104FC0000E94B42482E00E94A83B80E80E940D1554
:104FD000EBCF3C2F8091A60B90E00C2E02C0959554
:104FE00087950A94E2F780958170C11107C0E02F80
:104FF000E370E05D0695069520E00CC000FF02C05E
:10500000811102C020E001C022E0F101E055FE4E16
:10501000E4910695AA2041F09091B10B931304C03E
:10502000811107C021E002C0811104C020FF04C02B
:1050300001C023E04E2F01C04DE2822D815E612F21
:10504000880F0E94751F219683E0280E311CC63000
:10505000D10509F0BECF32C16DEA7BE0812F0E94FD
:10506000B0228EE3382EC0E0D0E02C2F8091B10B1F
:105070008C1302C0A1100DC04091F20850E00C2E1C
:1050800002C0559547950A94E2F740FF04C002E03C
:1050900003C003E001C000E04FEF5EE0612F832D0D
:1050A0000E94B522219626E0320E38E63312DDCF7B
:1050B000AA2009F403C140E2F41200C11092E307F0
:1050C000C3010090B10B02C0880F991F0A94E2F748
:1050D0009091F20898279093F20882E00E94A83BF2
:1050E000EDC069EB7BE0812F0E94B0228091B10B73
:1050F000882311F000E001C00A2D2D2D47E05FE06C
:10510000612F8EE30E94B5228091B10B92E09D1534
:1051100098F0811102C000E001C00A2D2091EF0833
:1051200025952595259525952E5F47E95EE0612F0C
:1051300088E60E94B52209C0882339F0AA2009F424
:10514000BDC08F2D0E949D2009C0AA2009F4B6C0C1
:10515000191424F022E02D1508F0B0C08091B10B95
:10516000882321F0813009F0A9C00FC06091EF08B9
:10517000677042E08F2D0E94143D87709091EF0878
:10518000987F982B9093EF0899C06091EF086595F0
:1051900065956595659524E04EEF8F2D0E94053D40
:1051A0008295807F8595859585958595282F229573
:1051B000207F9091EF089F70922B9093EF08880FBB
:1051C000880F880F60C032E03D1508F477C060ECAE
:1051D0007BE0812F0E94B0224AEC5BE0612F80E5EA
:1051E0000E94AD228091B10B811103C02A2D206A4B
:1051F00001C020EA4091A30B85E04802A0011124E0
:105200004F515F4F612F8EE30E94741645E7612F67
:1052100080E70E9484208091B10B813011F020E062
:1052200001C02A2D4091F10892E34902A001112406
:10523000445D5E4F612F80E70E9474168091B10B30
:10524000823011F020E001C02A2D8091F00884FF07
:1052500002C04BE201C04DE2612F8AE70E94751F38
:10526000AA2061F1191454F58091B10B813071F0CD
:1052700018F0823019F514C023E24CEE6091A30BB4
:105280008F2D0E94053D8093A30B18C02AE04CEFA0
:105290006091F1088F2D0E94053D8093F1080EC0AA
:1052A0006091F0086295617041E08F2D0E94143D7D
:1052B0009091F00880FB94F99093F008B394185FF4
:1052C00027E0B212BBCCDF91CF911F910F91FF90DD
:1052D000EF90DF90CF90BF90AF909F908F907F9096
:1052E0006F905F904F903F902F900895BF92CF9214
:1052F000DF92EF92FF920F931F93CF93DF93F82EDD
:105300000E94E024C82F882311F0C12C02C086E03F
:10531000C82E05E0E02E0DEC1BE026E04CE552E146
:1053200061E08F2D0E94141783ED9BE00E94A7225D
:10533000CC2379F04BED5BE060E28AE2DF91CF9124
:105340001F910F91FF90EF90DF90CF90BF900C9442
:10535000AD228091E30718161CF413E0B12E02C0B1
:10536000D2E0BD2E41EE5BE069E082E10E94AD2219
:10537000CC24C394C1E1EC2E8C2D0E949D24C82F17
:10538000D0E0CC0FDD1FCB50D44F20E0482F6E2D46
:1053900080E00E947D55D12C8091B20B8C1104C00D
:1053A0008091B10B8D1511F010E001C01B2D81E033
:1053B000D81611F1E2E02881DE1689F122952695B2
:1053C00026952370012F49EC5EE06E2D88E10E9446
:1053D000B52210FF3AC06881629566956695637044
:1053E00022E040E08F2D0E94403D8295880F880F7B
:1053F000807C98819F7327C04981552747FD509530
:10540000212F6E2D82E40E94741610FF1EC0698148
:105410002DE743E88F2D0E94403D898316C02F73EE
:10542000012F43ED5EE06E2D88E40E94B52210FF4F
:105430000CC068816F7323E040E08F2D0E94403DD7
:105440008F739881907C982B9883D394F3E0DF122C
:10545000A3CF88E0E80EC394E1E3EE128DCF8091F4
:10546000B20B853011F0C0E001C0CB2D6FEE7BE0B8
:1054700081E30E94B0222C2F20624091070C552717
:1054800047FD5095465F5F4F61E384E50E947416C7
:10549000CC2349F028E246EF6091070C8F2D0E9443
:1054A000403D8093070C8091B20B863009F43FC0D9
:1054B000D12C2D2D4BEF5BE069E380E00E94A02210
:1054C00006EE17E0CFEEDBE0A0E3EA2EF801419113
:1054D00051918F0169917991461B570B440F551FCC
:1054E00020E269E38E2D0E947416F8E1EF0E80E948
:1054F000E812ECCFDD2001F1E0E8FE121DC088E0EB
:10550000E6EEF7E0AFEEBBE001900D928A95E1F791
:1055100081E00E94A83B83E0DF91CF911F910F9122
:10552000FF90EF90DF90CF90BF900C94B424109236
:10553000E307E2E0DE2EBDCFDF91CF911F910F9107
:10554000FF90EF90DF90CF90BF9008956F927F9281
:105550008F929F92AF92BF92CF92DF92EF92FF9283
:105560000F931F93CF93DF93182F8FEF9BE00E9431
:10557000A7224091250150E04F5F5F4F22E860E095
:1055800085E20E947416809125010E94C120082F97
:10559000792EEB01153409F473C050F4113209F47B
:1055A00060C0143409F4AEC0103209F015C10EC049
:1055B000153609F465C020F4143609F00DC1A2C0F7
:1055C0001038A9F01F3B09F007C10FC08091E30715
:1055D00018161CF01092B10B08C0813031F47720FE
:1055E00021F082E08093E307F7C081E0FBCF809158
:1055F000E30718160CF4F0C08091B10B8F5F853073
:105600000CF401C08CEF8093B10B802F8695FE01C6
:105610006E01C80ED11C72E3F72E202F30E021500E
:10562000310914C0BF016C197D098091B10B482F5D
:105630004603D001479FB00D1124FA9EC001FB9E86
:10564000900D1124B9010E940F6461938E2F8C1B61
:10565000801740F382E00E94A83B80E80E940D156D
:10566000BBC08091E307181644F481508093E30790
:105670008111B2C01092B10BAFC00E949420ACC097
:105680008091E307813049F48091B10B882309F4BC
:10569000A3C081508093B10B9FC018160CF49CC01E
:1056A000772021F062E0601B40E009C00430C8F0C0
:1056B000402F50E04F5F5F4F559547956FEF8091BA
:1056C0002501DF91CF911F910F91FF90EF90DF9017
:1056D000CF90BF90AF909F908F907F906F900C94E1
:1056E000514082E0DF91CF911F910F91FF90EF9099
:1056F000DF90CF90BF90AF909F908F907F906F90F2
:105700000C94B4248091E307813081F44091B10B73
:10571000842F90E0202F30E0215031098217930729
:105720000CF05AC04F5F4093B10B56C018160CF4E2
:1057300053C0711008C0602F6250402F8091250126
:105740000E94514049C0013108F043C040E061E08F
:10575000809125010E945140882309F43DC0402FCB
:10576000440F425060E070E06E01C40ED11C47FD52
:10577000DA942CC0242F259540FF1BC0C601860F4C
:10578000971FDE01A20FB11D27FDBA955C91FD01A7
:105790002181332727FD3095250F311D57FD3A957F
:1057A00037FF02C02F5F3F4F35952795FC012083BF
:1057B0000AC0DE01A20FB11D27FDBA958C91D6015A
:1057C000A60FB71F8C9341506150710947FFD2CF8C
:1057D00003C082E00E94B42466E07CE088E30E947B
:1057E000B0228091E30718161CF092E0F92E01C058
:1057F000F12CC02ED12C2F2D2068A60168E38CE15E
:105800000E947416772019F04CE05CE002C040E181
:105810005CE02F2D68E380910F030E94A02280E0BE
:105820000E9464568091E30718160CF0B2C0F09005
:10583000B10B8F2D0E94DA20B82EA92E8091E3079C
:10584000813021F08091210186FD11C06A2D6250C6
:1058500002E025E045E08B2D81500E94C6536A2D61
:10586000615000E023E043E08B2D0E94C653AF2C33
:10587000B12C4601F1E08F1A910828ECF29EC0018C
:105880001124B4010E940F64062F0456772061F0A2
:10589000FF2051F0A814B9043CF4FE01EC0DFD1DED
:1058A000EA0DFB1D3197008143E15CE060E187E098
:1058B0000E94AD22402F552747FD509520E860E11A
:1058C00083E10E94741646E15CE068E187E00E9493
:1058D000AD223E016F0C711CF3014081552747FD3D
:1058E000509520E868E183E10E947416E12C0FEFE7
:1058F00026E148E26CE083E00E94201F812F82565F
:10590000823020F0123411F0133449F424E64CE9CB
:10591000F3016081812F0E94053DF3018083FF2008
:10592000C1F1A814B904ACF58091E307823089F580
:10593000812F8456823020F0153411F0143449F54B
:10594000C6010297A816B90641F0FE01EC0DFD1D37
:10595000EA0DFB1D2081215001C023E6F1E0FF1676
:1059600049F0FE01EC0DFD1DEA0DFB1D3297408153
:105970004F5F01C04DE9CA0CDB1C81E0C81AD10899
:10598000CC0EDD1EF6016081812F0E94053DF601DF
:105990008083DF91CF911F910F91FF90EF90DF9067
:1059A000CF90BF90AF909F908F907F906F90089511
:1059B0008F92AF92CF92DF92EF92FF920F931F934D
:1059C000CF93DF93F82E06E02AE044EA53E162E049
:1059D0000E94B51A89E19CE00E94A722D090B20BE8
:1059E000DA94D9E0C0E0DC1206C08091E307181613
:1059F00024F413E003C010E001C012E0C33009F446
:105A00005AC028F4C13029F1C23049F43AC000919B
:105A10005F0BC43009F464C0C53009F475C000914F
:105A20005F0B0695069506958F2CA12EF4E0CF2EE0
:105A3000E12C23E731E143E25CE06D2F84E50E9435
:105A40004F3D880F880F880F90915F0B9770982BB0
:105A50006FC08F2CA12EEAE3CE2EE12C0091600BBB
:105A600020E030E041E35CE06D2F84E50E944F3D93
:105A70008093600B212F482F6D2F84E50E947D5568
:105A800059C06BE37CE08D2F0E94B022212F20684B
:105A90004091610B50E06D2F84E50E947416112334
:105AA00009F448C044E66091610B8F2D0E94143DBB
:105AB0008093610B3FC000915F0B01708F2CA12E72
:105AC000CC24C394E12C20E93EE048E45CE06D2F57
:105AD00084E50E944F3D90915F0B80FB90F928C0B8
