:100000000C94100D0C942F0D0C942F0D0C942F0D9F
:100010000C942F0D0C942F0D0C942F0D0C942F0D70
:100020000C942F0D0C942F0D0C942F0D0C942F0D60
:100030000C94766C0C942F0D0C942F0D0C943B6B40
:100040000C947D6D0C942F0D0C94086B0C94D96C52
:100050000C942F0D0C942F0D0C94B76B0C942F0D4A
:100060000C942F0D0C94FB6C0C94246C0C94EF6B83
:100070000C942F0D0C942F0D0C942F0D0C942F0D10
:100080000C942F0D0C942F0D0C942F0DD814D81404
:10009000E314E314E314E314C014C714E314CC14FE
:1000A000CC14D014D614C014D014E314E314D81410
:1000B000DA14D814E314E314E314D014DC14D414C5
:1000C000E314E314E314C014C014C714CC14CC1408
:1000D000D014D614D414E314E314E314D814D814AD
:1000E0002452F851F85139523952005200523D52BF
:1000F0003D523D523D523D523D523D523D522252A3
:100100002452245227522A522C522E522E522E5210
:100110003B52305236523D52FF51FF513D523D52FB
:100120003D523D523D523D523D5236522252245292
:10013000245227522C5230644E64E76416651665CB
:1001400030644E64E76416651665056608660866E1
:1001500093669966BC66E6661367366767676A6783
:100160009067056843684368436843680568436867
:10017000436843684368C8712F7232725E72A3721B
:10018000C472CA721973E97200733E734173677364
:1001900053738F73A873D773F07318745D74000072
:1001A000FFFFFFFFFF6FFFFFFF070007FF1830187B
:1001B0000C06087F7F7F08231308646236495522A6
:1001C00050FF0503FFFFFF1C2241FFFF41221CFFE0
:1001D00014083E081408083E0808FF5030FFFF00CE
:1001E000080808FFFFFF40FFFF20100804023E41FF
:1001F000413EFF00427F40FF62514946FF4149496D
:1002000036FF1814127FFF27454539FF3E49493212
:10021000FF01790503FF36494936FF0649291EFFCC
:10022000FF3636FFFFFF5636FFFFFF08142241144A
:100230001414141441221408FF020151090606097E
:100240000906FF7E0909097E7F494949363E414139
:1002500041227F4141221C7F494949417F090909C7
:10026000013E4149497A7F0808087FFF417F41FFED
:100270002040413F017F081422417F404040FF7FE2
:10028000020C027F7F0408107F3E4141413E7F09FE
:100290000909063E4151215E7F091929462649492F
:1002A000493201017F01013F4040403F1F20402073
:1002B0001F3F4030403F631408146307087008076D
:1002C0006151494543FF7F4141FF0204081020FF6F
:1002D00041417FFF605846586040404040FFFF0169
:1002E0000204FF20545454787F484444383844442E
:1002F0004420384444487F3854545418087E090137
:10030000020C5252523E7F08040478FF447D40FFA5
:100310002040443DFF7F102844FFFF417F40FF7C89
:10032000041804787C0804047838444444387C1465
:10033000141408081414187C7C0804040848545445
:100340005420043F4440203C4040207C1C2040205E
:100350001C3C4020403C44281028440C5050503C49
:100360004464544C4410081008FFFFFF7FFFFF4116
:10037000225428FF0808221C08081C2208083854A8
:1003800056551838555654182055565478FF4A7902
:1003900042FF1CA2622210000000000000000000CA
:1003A00000FFFFFFFFFFFFFFFFFFFFFFFFFFFF005B
:1003B000660076003E001EFFFFFFFFFFFFFFFF808D
:1003C000018001800180018001800180018001FFA6
:1003D000FFFFFFFFFFFFFF0030007800780030FFD5
:1003E000FFFFFFFFFFFFFF00600060006000600094
:1003F00060006000600060FFFFFFFFFFFFF81FFC70
:100400003F0E70066006600E70FC3FF81FFFFFFF96
:10041000FF000018601C60FE7FFE7F00600060002F
:1004200000FFFFFFFF18781C7C0E6E06678663CE08
:1004300061FC607860FFFFFFFF06600660866186F2
:10044000618661CE73FC3F781EFFFFFFFF8007C00F
:1004500007E006700638061C06FE7FFE7FFFFFFFE2
:10046000FF7E187E38667066606660E670C63F86FE
:100470001FFFFFFFFFF81FFC3F8E71866186618EB4
:10048000731C3F181EFFFFFFFF06000600867FC695
:100490007FE60076003E001E00FFFFFFFF781EFC97
:1004A0003FCE7386618661CE73FC3F781EFFFFFFEF
:1004B000FF7800FC00CE6186718639CE1DFC0FF8F6
:1004C00007FFFFFFFF0000300C781E781E300CFF86
:1004D000FFFFFFFFFFFFFFE07FF07FB8019C018E71
:1004E000018E019C01B801F07FE07FFE7FFE7F86D8
:1004F000618661866186618661CE73FC3F781EF8F5
:100500001FFC3F0E7006600660066006600E701CE1
:10051000381818FE7FFE7F0660066006600E701CAD
:1005200038381CF00FE007FE7FFE7F86618661860B
:100530006186618661866106600660FE7FFE7F8659
:10054000018601860186018601860106000600F803
:100550001FFC3F0E7006608661866186618E719C0D
:100560007F983FFE7FFE7F800180018001800180B7
:10057000018001FE7FFE7FFFFFFFFF06600660FE39
:100580007FFE7F06600660FFFFFFFF001800380057
:1005900070006006600670FE3FFE1F06000600FE4B
:1005A0007FFE7F8001C003E007700E381C1C380EF0
:1005B000700660FE7FFE7F006000600060006000EB
:1005C00060006000600060FE7FFE7F1C003800F06D
:1005D00001F00138001C00FE7FFE7FFE7FFE7F7071
:1005E00000E000C00180030007000EFE7FFE7FF8E0
:1005F0001FFC3F0E7006600660066006600E70FC11
:100600003FF81FFE7FFE7F860186018601860186F8
:1006100001CE01FC007800F81FFC3F0E700660065A
:1006200066066E063C0E38FC7FF867FE7FFE7F860E
:100630000186018607860F861DCE39FC70786078AA
:1006400018FC38CE7186618661866186618E731C66
:100650003F181E0600060006000600FE7FFE7F060D
:1006600000060006000600FE1FFE3F00700060004E
:1006700060006000600070FE3FFE1FFE07FE0F007E
:100680001C0038007000700038001CFE0FFE07FED2
:100690001FFE3F00700070003E003E00700070FEC4
:1006A0003FFE1F1E783E7C700EE007C003C003E0D3
:1006B00007700E3E7C1E787E00FE00C001800300A5
:1006C0007F007F8003C001FE007E000678067C0666
:1006D0006E06678663C661E66076603E601E6000F7
:1006E00018003C607E6066606660666066E066C0BA
:1006F0007F807FFE7FFE7F8061C061E06060606020
:1007000060E070C03F801F801FC03FE0706060608D
:100710006060606060607000380018801FC03FE05B
:100720007060606060E060C0618061FE7FFE7F801D
:100730001FC03FE0766066606660666066E066C027
:1007400007800780018001F87FFC7F8E018601060B
:10075000000E001C001800E001F00338671866184E
:1007600066186618661876F83FF81FFE7FFE7F80D1
:1007700001C001E00060006000E000C07F807FFFFA
:10078000FFFFFF60606060E67FE67F00600060FF63
:10079000FFFFFFFFFF00180038007000606060601E
:1007A00070E63FE61FFFFFFE7FFE7F0006000F8022
:1007B0001FC039E0706060FFFFFFFFFFFFFFFF0613
:1007C000600660FE7FFE7F00600060FFFFFFFFE0CD
:1007D0007FE07F6000E000C007C007E000E000C0ED
:1007E0007F807FE07FE07F8001C001E000600060EB
:1007F00000E000C07F807F801FC03FE070606060CD
:100800006060606060E070C03F801FE07FE07F60FC
:10081000066006600660066006E007C0038001808F
:1008200001C003E007600660066006C0078007E0BD
:100830007FE07FE07FE07F8001C001E0006000603A
:1008400000E000C00180018061C063E06760666015
:100850006660666066607E003C001860006000F8BC
:100860001FF83F607060600060007000380018E0A2
:100870001FE03F007000600060007000380018E06A
:100880007FE07FE007E00F001C0038007000700080
:1008900038001CE00FE007E01FE03F007000700030
:1008A00038003800700070E03FE01F6060E070C00A
:1008B00039801F000F000F801FC039E0706060E0BA
:1008C00001E003006700660066006600660076E0EF
:1008D0003FE01F606060706078607C606E6067E021
:1008E00063E061E0606060000000FFFFFF80E060A7
:1008F000FF00181818FFFF6060FFFF60606060FF76
:100900003E7F417F3E00427F7F406273594F4641A8
:10091000497F7F36181C127F7F2767457D393E7FD0
:10092000497B3201797D0703367F497F36064F695F
:100930003F1EFF3636FFFF7E7F097F7E7F7F497F28
:10094000363E7F4177367F7F413E1C7F7F4949415C
:100950007F7F0909013E7F415B7A7F7F087F7F416E
:100960007F7F41FF3070417F3F7F7F1C77637F7FB8
:100970004040FF7F7E0C7E7F7F7E1C3F7F3E7F411D
:100980007F3E7F7F090F063E7F412F5E7F7F196F7D
:1009900046264F5D7932017F7F01FF3F7F607F3FB9
:1009A0001F3F603F1F7F3F103F7F63771C776307C8
:1009B0000F787F0F71795D4F472074547C787F7F6B
:1009C000447C38387C444420387C447F7F387C54D5
:1009D0005C18087E7F09020C5E527E3E7F7F047C9D
:1009E00078447D7D40FF3070447D3D7F7F2844FF0B
:1009F000417F7F40FF7C1C381C787C780C7C7838E9
:100A00007C447C387C7C243C18183C247C7C7C789E
:100A10000C1C18485C7C7420043F7F44203C7C60A4
:100A20003C7C1C3C603C1C3C7038703C446C386C1A
:100A3000440C5C507C3C4464745C4C4D6178206593
:100A400078706F732061747465696E7421004D61F4
:100A500078206D6978616765732061747465696E6B
:100A60007421005F2D2E2C000301020004050607EF
:100A70001B1E272D36394B4E636C7278878D939CE5
:100A8000B1B4C6C9D2D8E1E40101020A3C010104B3
:100A900014500101081E6402020F287805051E3259
:100AA00096546F7563686520706F75722069676E04
:100AB0006F7265720054783A0052783A004E4F20B7
:100AC00044415441004163633A004C617469747558
:100AD0006465004C6F6E67697475646500525353AA
:100AE00049204D696E2E00454550524F4D20706C87
:100AF00065696E652100494E544552530047415A7D
:100B00000047617A207061732082207A80726F00C2
:100B1000546F7563686520706F757220636F6E74B3
:100B2000696E756572001B20FC04040404040484CF
:100B3000C48404E4F4E40484C4C404040404040485
:100B40000404FCFF000000FCFE00FFFFFF80FFFF2D
:100B5000FF80FFFFFF0000008080800000FFFF009B
:100B60000000FFFFFFFFFFFFFFFFFFFFFFFFFFFF93
:100B7000F8FCFF3F0F030000FF3F20202021272724
:100B80002F2F2F2B272F2F2F2F2F2F2723202020C2
:100B90002020203F414C45525445004480706173F1
:100BA00073656D656E7420454550524F4D0043424C
:100BB0000056470044522F4558504F00000303038E
:100BC00003030303030303030303030303004C4969
:100BD0004D4954455300055472696D73203D3E20C4
:100BE0005375627472696D7300496E7665727365D0
:100BF000722047617A3F002F3134002F3332004D8D
:100C0000495845555200434F5552424553005645A9
:100C10005253494F4E0046571F1B3A206F70656E66
:100C200074782D39783132381E564552531F1B3A8D
:100C300020322E312E391E444154451F1B3A20329A
:100C40003031362D30392D31351E54494D451F1B5D
:100C50003A2032303A33333A30301E454550521F35
:100C60001B3A203231372D333237373100494E5459
:100C7000455253005472696D2D202B000000000175
:100C8000010000494E5345524552204D49584147B5
:100C90004500454449544552204D49584147450077
:100CA0005472696D0044526578004469666600417B
:100CB0006C65727465004F4646004F7080726174B7
:100CC000696F6E00526574617264206861757400AA
:100CD000526574617264206261730052616C656E6A
:100CE000746920686175740052616C656E74692066
:100CF000626173000004464F4E4354494F4E5320E7
:100D0000535045432E00032D3D312B3D3100000251
:100D10000202020045434F4C41474500456C817635
:100D200065004D6F6465062520536F75726365001D
:100D30004D756C7469706C696575720043616C0007
:100D40008871E145D43DE63DAD5A2C4C43414C49B8
:100D500042524154494F4E00065B4D454E555D2071
:100D6000504F555220444542555400085245474C77
:100D70004552204E45555452455300065B4D454E55
:100D8000555D205155414E44205052455400044277
:100D90004F5547455220535449434B532F504F54BE
:100DA0005300434F5552424500015479706500701D
:100DB000742700707400783D00793D000503070634
:100DC000060D05055354415453001F665345531EE9
:100DD000544D311F66544D321E47415A1F66475AC3
:100DE0002500444542554700546D72314C617420D2
:100DF0006D61781F54757300546D72314C617420AD
:100E00006D696E1F54757300546D7231204A697498
:100E10007465721F54757300546D6978206D617824
:100E20001F546D73004672656520537461636B1FB8
:100E30005462005B4D454E555D20706F7572207297
:100E400065736574005452004348004D4F44454C4F
:100E50004500436F7572626500526174696F0041AD
:100E60004E415300410042473A0043616C69622E93
:100E7000204261747465726965000000020000021E
:100E800000000001000000000007060102434F4E71
:100E9000462E204D4F44454C45004E6F6D0001429B
:100EA0006970206D696E2E00014269702066696E5E
:100EB000004368726F6E6F20004C696D69746573D2
:100EC0002080742E005472696D732080742E005B34
:100ED00052415A5D00506173205472696D00496E31
:100EE000762E2067617A00536F75726365204761C3
:100EF0007A005472696D2067617A00416C65727482
:100F0000652067617A00416C6572746520696E7452
:100F1000003C5D00426970732063656E747200541A
:100F200072616D652050504D006D7300000000002F
:100F30004578706F004E2F4400436F748000496EF7
:100F40007465720001536F75726365000150726FB2
:100F5000746F2E0001448063616C6167650000FF5F
:100F600001000202FF01000202FF0101FF00000078
:100F70000000FF000100020202020002020202540D
:100F8000454C454D455355524500410001506C615B
:100F90006765005253534900446F6E6E806573005D
:100FA0000150616C6573000154656E73696F6E006A
:100FB00001436F7572616E740001436F7272204657
:100FC000415300566172696F00014C696D69746527
:100FD00000456372616E2000000003494E54455283
:100FE00053204C4F472E000E6E79543A3D3E3DFC47
:100FF00035423D72694D43C7635355505052494D78
:101000004552204D4F44454C4500436F7069652E55
:101010002E2E004480706C6163656D656E742E2E9B
:101020002E0064697370004D4F44454C4553004396
:1010300068617267656D656E742E2E2E0045455091
:10104000524F4D00000102030002010303010200A0
:1010500003020100E2AEA1A6A4A2C02F258122AF07
:10106000454550524F4D20636F72726F6D707565BC
:1010700000466F726D617461676520454550524F3F
:101080004D00535053008040FFFFFFFFFFFFFFFF65
:10109000FFFFFFFFFFFFFFFFFFFFFFFFFFFFFFFF60
:1010A000FFFFFFFFFFFFFFFFFFFFFFFFFFFFFFFF50
:1010B000FFFFFFFFFFFFFFFFFFFFFFFFFFFFFFFF40
:1010C000FFFFFFFFFFFFFFFFFFFFFFFFFFFFFFFF30
:1010D000FFFFFFFFFFFFFFFFFFFFFFFFFFFFFFFF20
:1010E000FFFFFFFFFFFFFFFFFFFFFFFFFFFFFFFF10
:1010F000FFFFFFFFFFFFFFFFFFFFFFFFFFFFFFFF00
:10110000FFFFFFFFFFFFFFFFFFFFFFFFFFFFFFFFEF
:10111000FFFFFFFFFFFFFFFFFFFFFFFFFFFFFFFFDF
:10112000FFFFFFFFFFFFFFFFFFFFFFFFFFFFFFFFCF
:10113000FFFFFFFFFFFFFFFFFFFFFFFFFFFFFFFFBF
:10114000FFFFFFFFFFFFFFFFFFFFFFFFFFFFFFFFAF
:10115000FFFFFFFFFFFFFFFFFFFFFFFFFFFFFFFF9F
:10116000FFFFFFFFFFFFFFFFFFFFFFFFFFFFFFFF8F
:10117000FFFFFFFFFFFFFFFFFFFFFFFFFFFFFFFF7F
:10118000FFFFFFFFFFFFFFFFFFFFFFFFFFFFFFFF6F
:10119000FFFFFFFFFFFFFFFFFFFFFFFFFFFFFFFF5F
:1011A000FFFFFFFFFFFFFFFFFFFFFFFFFFFFFFFF4F
:1011B000FFFFFFFFFFFFFFFFFFFFFFFFFFFFFFFF3F
:1011C000FFFFFFFFFFFFFFFFFFFFFFFFFFFFFFFF2F
:1011D000FFFFFFFFFFFF07070707070707070707CF
:1011E000070707070707070707FFFFE7C7070707FF
:1011F0000707071F7FFFFFFF3F0F07070707078747
:10120000E7F7FFFFFFFFFFFFFFFFFFFFFFFF1F07E6
:101210000303C1F1F8F8F8F8F0F1C10303071FFF69
:10122000FFFF00000000F8F8F87000010307FFFF5F
:1012300000000000383838383838FFFF0000000060
:1012400081030F1F3FFFFF00000000FFFFFF0001B1
:1012500003070F1F3F7FFEFEFEFEFEFE00000000A4
:10126000000000FEFEFEFEFEFEFFFFFFFFFFFEF899
:10127000F0C08000000103000000C0E0F8FCFFFFA8
:10128000FFFFFFFFFFFFFFFFFFFFFFFFFFFFF8E094
:10129000C0C0838F1F1F1F1F1F8F83C0C0E0F8FFB8
:1012A000FFFF00000000F8F8F8F8F8FCFCFFFFFF73
:1012B000000000001E1E1E1E1E1EFFFF000000007C
:1012C000FFFFFCF8F0C08100000000FFFFFF0000FE
:1012D00080C0E0F0F8FCFEFFFFFFFFFF0000000011
:1012E000000000FFFFFFFFFFFFFFFFFFFF7F1F0F5B
:1012F0000301000080E0F0C000000003071F3FFF73
:10130000FFFFFFFFFFFFFFFFFFFFFFFFFFFFE7E71D
:10131000E7E7E7E7E7E7E7E7E7E7E7E7E7E7E7E75D
:10132000E7E7E7E7E7E7E7E7E7E7E7E7E7E7E7E74D
:10133000E7E7E7E7E7E7E7E7E7E7E7E7E7E7E7E73D
:10134000E7E7E7E7E7E7E7E7E7E7E7FFFFFFFEFFB6
:10135000FFFFFFFFFFFFFFFFFFFFFFFFE0E0E0E019
:10136000E0E0E0FFFFFFFFFFFFEFE7E1E0E0E0E0AC
:10137000E0F0F8FEFFFFFFFFFFFCF8E0E0E0E0E058
:10138000E1E7EFFFFFFFFFFFFFFFFFFFFFFFFFFFB3
:10139000FFFFFFFFFFFFFFFFFFFFFFFFFFFFFFFF5D
:1013A000FFFFFFFFFFFFFFFFFFFFFFFFFFFFFFFF4D
:1013B000FFFFFFFFFFFFFFFFFFFFFFFFFFFFFFFF3D
:1013C000FFFFFFFFFFFFFFFFFFFFFFFFFFFFFFFF2D
:1013D000FFFFFFFFFFFFFFFFFFFFFFFFFFFFFFFF1D
:1013E000FFFFFFFFFFFFFFFFFFFFFFFFFFFFFFFF0D
:1013F000FFFFFFFFFFFFFFFFFFFFFFFFFFFFFFFFFD
:10140000FFFFFFFFFFFFFFFFFFFFFFFFFFFFFFFFEC
:10141000FFFFFFFFFFFFFFFFFFFFFFFFFFFFFFFFDC
:10142000FFFFFFFFFFFFFFFFFFFFFFFFFFFFFFFFCC
:10143000FFFFFFFFFFFFFFFFFFFFFFFFFFFFFFFFBC
:10144000FFFFFFFFFFFFFFFFFFFFFFFFFFFFFFFFAC
:10145000FFFFFFFFFFFFFFFFFFFFFFFFFFFFFFFF9C
:10146000FFFFFFFFFFFFFFFFFFFFFFFFFFFFFFFF8C
:10147000FFFFFFFFFFFFFFFFFFFFFFFFFFFFFFFF7C
:10148000FFFFFFFFFFFFFFFF53504500534F4E008C
:10149000416C61726D657320448073616374697619
:1014A000806573005B4D454E555D085B455849545A
:1014B0005D001208001038101010381000001044A1
:1014C0000092004410000000000044FE44000000B0
:1014D0001044009200441000001044009200441098
:1014E00000000044FE440000000000104400920090
:1014F00044100000103810101038100001416C61C9
:10150000726D6500034F46464F4E00032D2D2D4949
:101510004E560401344348013643480138434831AC
:10152000304348313243483134434831364348052B
:10153000417563756E416C61726D4E6F4B65795488
:101540006F757400034F4646202B3D203A3D034300
:101550004831434832434833434834064578706F36
:101560000020457846696E0046696E0020204D6F68
:1015700079656E0047726F73002001445047413116
:1015800032330650504D00202050504D313600501F
:10159000504D73696D03504F534E4547044F4646B7
:1015A0000042746E734374726C546F75734F4E00C7
:1015B000032D2D2D783E30783C307C787C663E3093
:1015C000663C307C667C08416A6F75746500204D0E
:1015D000756C7469706C2E52656D706C6163650218
:1015E0002B3D2A3D3A3D034F46464F4E004469721B
:1015F00050726647617A41696C052D2D2D0020617E
:101600007B780020613E780020613C7800207C617E
:101610007C3E787C617C3C7845540020204F55000E
:1016200020204F55580020613D620020613E62003D
:1016300020613C6200205E7D7800207C5E7C7D78AD
:1016400054656D700042697374000D52656D706C65
:101650002E0020202020202045636F6C61676500EC
:1016600020202020205472696D20696E7374616E91
:10167000742E52656D6973652082203000202041F0
:101680006A75737465720020202020204269700002
:101690002020202020202020205B4A6F75657220AA
:1016A000666963682E5D5B4A6F756572206C657351
:1016B00020325D5B4C6972652076616C6575725D88
:1016C000566172696F00202020202020205B56691F
:1016D00062726575725D00202020528074726F8086
:1016E000636C2E00202020044368723143687232FC
:1016F000546F757454806C6D0442703100427032C6
:10170000004270330057726E3157726E3243686513
:1017100065526174615469636B5369726E52696E8C
:101720006753636946526F627443687270546164B0
:10173000614372636B416C726D042D2D2D0042610B
:10174000747443687231436872325478002052785E
:1017500000204131002041320020416C7400527061
:101760006D0043617262543100205432002056698A
:10177000740044697374416C7447456C656D5665BB
:101780006C6D56666173436F7572436E736D507501
:10179000697341636358416363594163635A4361A9
:1017A000700056697456566974416445540041315D
:1017B0002D0041322D00416C742D416C742B527000
:1017C0006D2B54312B0054322B005669742B44730B
:1017D000742B5669412B456C6D2D456C732D5666E7
:1017E000732D4375722B5075692B41636300546DE3
:1017F0007073035600204100206D2F732D00206B65
:101800006D686D00204000202500206D41006D4175
:1018100068570020042D2D2D2D4A61756E4F726181
:101820006E526F7567013C3E07417563756E2020EF
:10183000487562002020205753484869676804446F
:101840004D53004E4D4541032D2D2D413100413268
:101850000046415343656C05416C746900416C74EA
:10186000692B566172696F413100202041320004BA
:1018700056616C2E42617273054D656E7500457838
:101880006974004261730020486175740044726F8E
:1018900069744761756368032D2D2D4944304944AF
:1018A00031494432544852525544454C4541494CC3
:1018B00047454154524E7444677444647450627492
:1018C00050687447627447687441677441644C316E
:1018D000004C32004C33004C34004C35004C360088
:1018E0004C37004C38004C39004C31304C31314CC5
:1018F00031324F4E00556E042D2D2D00446972007B
:101900005072660047617A0041696C0050310020D6
:1019100050320020503300204D4158005B43315D70
:101920005B43325D5B43335D54726D4454726D5062
:1019300054726D4754726D4133504F53034F4646B6
:101940004F4E00475A73475A25475A74000001FF0B
:10195000000000FF00000000FF0000000000000089
:101960000001434F4E46494720524144494F0050E1
:101970006C61676520626174746572696500536F9C
:101980006E00014D6F64650001447572806500430F
:101990006F6E74726173746500416C61726D657312
:1019A0000001426174746572696500014D806D6F5C
:1019B00069726520706C65696E65000153696C65BC
:1019C0006E63650001496E616374697669748000B5
:1019D000528074726F80636C616972616765000127
:1019E0004475728065004C6F676F20642761636384
:1019F0007565696C0046757365617520686F726105
:101A000069726500436F6F72646F6E6E80657300FC
:101A10004F7264726520766F6965732052580000BA
:101A200011241FBECFEFD0E1DEBFCDBF11E0A0E09B
:101A3000B1E0E8E6F5EF00E00BBF02C007900D92C1
:101A4000AA32B107D9F71DE0AAE2B1E001C01D92A8
:101A5000AE3BB107E1F70E94BB740C94B27A0C94D0
:101A600000008E5291404BEA5AEA849F9001859F74
:101A7000300D949F300D1124C9010895EDE7F0E079
:101A800080818F7D8083179AAAE8B0E01C92109223
:101A90008B008AE08C9380818861808308959C010B
:101AA00045E0359527954A95E1F7280F391FAC0198
:101AB000440F452F441F550B241B350B892F990FBD
:101AC000990B8595280F391FC901089549E2489F50
:101AD0009001499F300D112435952795359527950F
:101AE000492F441F4427441F50E0841B950BF6E008
:101AF00095958795FA95E1F7281B390B241B350B33
:101B0000C9010895992787FD90950C94660D9C0155
:101B1000220F331F492F441F4427441F50E0841BCA
:101B2000950BBC0175956795260F371F240F351F40
:101B300064E0959587956A95E1F7280F391F240F82
:101B4000351FC9010895992787FD90950C94870D3D
:101B5000CF92DF92EF92FF92CF93DF93EC01862F2B
:101B60000E94A30DFC019E01DE010E94D2799B011F
:101B7000AC01DF010E94E579272F382F492F552727
:101B8000DE010E94E5796B017C01CCE0F694E794DC
:101B9000D794C794CA95D1F720E031E02E1B3F0BB4
:101BA0000E94D27960587F4F8F4F9F4F6C0D7D1DE3
:101BB0008E1D9F1D472F582F692F7727CA01DF9150
:101BC000CF91FF90EF90DF90CF9008958F718E307E
:101BD00050F490E0FC01EE0FFF1FE80FF91FE25DEB
:101BE000FE4F83E682830895CF93DF93EC0180E07C
:101BF0000E94E60DE091380DE1110EC081E7C83872
:101C0000D80719F481E08093340D8EE6CE30D807E2
:101C100051F41092340D07C0AE2FB0E0AC5CB24F5F
:101C20008091330D8C93EF5FE093380DF0E0EE0F71
:101C3000FF1FE555F24FD183C0838FEB8093390DA1
:101C4000DF91CF9108958F718E3058F490E0FC01B0
:101C5000EE0FFF1FE80FF91FE25DFE4F82E6828361
:101C6000118208951F93CF93DF93EC011881110F18
:101C700061111160188389818F5F89838A8188232C
:101C800061F011110AC0833631F0CE010E94310D8E
:101C9000806280932F0919821A828A81883091F19B
:101CA00048F48130B9F190F0823061F1843009F06C
:101CB00047C028C08F35D1F020F4803109F040C0F2
:101CC00021C0813639F08236D9F534C01F30C1F5D4
:101CD00081E634C0CE010E94310D806680932F09C9
:101CE00010929D0110929C018FE528C0898180325D
:101CF00029F4CE010E94310D806819C0883201F5A7
:101D000080E11CC09981903328F090E095958795EB
:101D10008A8319828A8190E00197298130E08223A9
:101D20009323892B69F4CE010E94310D8064809346
:101D30002F0906C08981803418F088E08A831982CF
:101D4000DF91CF911F910895282F30E82303F001F0
:101D50001124E558FD4F80E09081909591938F5F1D
:101D60008038D1F70895FC01808141FF02C0682BC3
:101D700006C042FF03C06095682301C068276083E6
:101D80000895EF92FF920F931F93CF93DF93122F3B
:101D9000603470F5C82FD0E0FE01E40FF11DE1388A
:101DA000F10514F040E8481B862F869586958695A8
:101DB00090E8899FC00DD11D1124677081E090E0EB
:101DC000E82E01C0EE0C6A95EAF7C558DD4FFC2EEF
:101DD000F40E0CC010FF08C0402F6E2DCE010E94E3
:101DE000B30E1695106801C016952196FC12F2CF1D
:101DF000DF91CF911F910F91FF90EF9008950F9376
:101E0000022F2FEF0E94C10E0F9108952F923F9243
:101E10004F925F926F927F928F929F92AF92BF92FA
:101E2000CF92DF92EF92FF920F931F93CF93DF93A6
:101E3000682E762E542E102FF62EC0E0D0E0A62E5F
:101E4000BB24A7FCB0946501C20ED11C68E0462EED
:101E50004E20342E3A943A94282E2394460181E061
:101E6000881A91081DC0442059F0F71419F08815FC
:101E7000990531F40E2D212F432D6F2D822D05C094
:101E80000E2D212F452D6F2D862D0E94C10E812FE5
:101E9000869590E8199F800D1124182FF3942196B0
:101EA000CE018A0D9B1D8C159D05ECF2DF91CF9123
:101EB0001F910F91FF90EF90DF90CF90BF90AF9068
:101EC0009F908F907F906F905F904F903F902F905A
:101ED0000895262F26952695269590E030E8239F95
:101EE000800D911D112485589D4F26E08B37920758
:101EF00050F4262F277061E070E001C0660F2A952C
:101F0000EAF70C94B30E08957F928F929F92AF924E
:101F1000BF92CF92DF92EF92FF920F931F93CF93D6
:101F2000DF93C62FC695C695C695D0E0DE01B6955F
:101F3000BA2FAA27B795A795A80FB11D982F915032
:101F400090937007A658BD4F20FF07C030914A0CF0
:101F500036FF07C021FD07C0D8C021FB332730F969
:101F600003C030E001C031E0522F5474D1F0542F3F
:101F70005C525F3010F45F5F15C0542F51545A31DA
:101F800010F4505F0FC0542F51565A3110F4565D63
:101F900009C04F3521F0403221F02F7B02C054E0C0
:101FA00001C050E022FF31C024E1529FA001112462
:101FB00049565C4F60E0611107C0882311F0311170
:101FC0000CC09F5F11961DC06B3039F0FA0124914F
:101FD00031964E5F5F4FE49102C0E0E020E07E2F3B
:101FE00072237F3F71F0332311F02095E095ED01CE
:101FF000C058DF4FF6E0CB37DF0718F42D93E883A6
:102000009F5F6F5F6C30B9F67EC0677026FD07C0BA
:1020100075E0479FA001112442505F4F06C0E5E0E4
:102020005E9FA00111244951574FD695DC2FCC2734
:10203000D795C795C550DD4FE62EF12CEFEFF0E0B8
:10204000BE2E062E01C0BB0C0A94EAF7AB2CA0945E
:1020500070E0E8E09E2E922208E010E00E191F09C1
:10206000F0E17F2E7222711107C0882311F0311127
:1020700011C09F5F119643C0763041F0FA014F5F67
:102080005F4FE491EF3F19F47720C9F1E0E033238B
:1020900019F001C0E0E0E095992011F0723079F17B
:1020A000F6E0AB37BF0748F5AC17BD0730F5CE2ECD
:1020B000D12CF6010E2C01C0EE0F0A94EAF78C9099
:1020C0008A208E2A8C926623C1F0FD01E058FF4FD2
:1020D00026E0EB37F20750F4002E02C0D594C794E7
:1020E0000A94E2F7D080DB20DC28D082332329F069
:1020F000613019F4E82DE160EC9311969F5F7F5FEA
:10210000773009F0B0CF90937007DF91CF911F9196
:102110000F91FF90EF90DF90CF90BF90AF909F9086
:102120008F907F90089520E00C94840FE091380DFB
:10213000F0E0EE0FFF1FE555F24F918380838FEBA8
:102140008093390D0895E8E3FDE08081815080831C
:102150008EEB8093390D0895282F2F7130E0245095
:1021600031092230310518F480932F090895109217
:10217000320D0895882371F0E82FF0E0E251F54F19
:102180002081332727FD309595E0899F200D311D53
:10219000112402C020E030E02950354FC9010895D4
:1021A0001F93CF93DF93182F0E94BA10EC01812F59
:1021B0008F5F0E94BA108C1B9D0B80FD04C086951A
:1021C0008F5F91E001C090E0BE01DF91CF911F9140
:1021D00008957F928F929F92AF92BF92CF92DF929B
:1021E000EF92FF920F931F93CF93DF937C01862F83
:1021F0000E94D010EB012CEFF21A1E141F040CF0F9
:1022000009C0882E912CE11488E0F80654F0C80D1E
:10221000D91D21978881992787FD9095982F882728
:1022200063C0911117C029C08A159B0551F0FE01AA
:10223000E80FF91FE80DF91D80810E94820D9C5F57
:1022400002C080E098E08E159F0558F57394A801B0
:102250008C010DC0712C00E010E040E050E0640102
:1022600021E0C21AD108540182E0A81AB108872DD2
:1022700090E08C159D05C4F216C0B401615071093F
:1022800080E098E00E947A7A8B01C7010E948E7AE2
:10229000762E609FA001619F500D1124040F151F21
:1022A00002C0A8018C01FE01E70DF11DC081DD27F0
:1022B000C7FDD0959701241B350BA181BB27A7FD36
:1022C000B095AC1BBD0B0E94DE79982F872F762F1F
:1022D00066279801241B350B40E050E00E94367AB7
:1022E0009C2F8827820F931F69E170E00E947A7A01
:1022F000CB01DF91CF911F910F91FF90EF90DF9075
:10230000CF90BF90AF909F908F907F9008959C0149
:102310006330A1F034F4613051F064F4662391F13C
:1023200020C06530A9F084F06630D9F416C097FF5C
:1023300029C010C0181619062CF50CC097FF22C032
:102340003195219531091EC018161906B4F002C046
:1023500097FD16C020E030E015C01816190684F469
:102360000CC067FF06C031952195310986E0861BB8
:10237000682F6750C9010C94E91020E034E002C0D6
:1023800020E03CEFC9010895609129070C94E91001
:102390000F931F93CF93DF93C82F809129070E943B
:1023A000D010482F092FFB01C817D0F52C2F30E093
:1023B000C90165E0880F991F6A95E1F7642F66955A
:1023C00070E00E947A7AD62FD35CE20FF31FA081CF
:1023D0008FE3A802D0011124CD018456974E68E303
:1023E0007FEF0E947A7A162F115C0023D9F0CC235C
:1023F000C9F050E0DA0111972A173B079CF4E40F6B
:10240000F51F3197808120E48202C00111248C598C
:10241000964E68EC70E00E947A7AD62FD35C02C0A8
:1024200010E0D0E08D2F912FDF91CF911F910F9170
:10243000089583393CF4282F332727FD30952F57F3
:102440003F4F0FC087303CF495E089029001112482
:102450002B5C3D4F06C09AE08902900111242E5E4C
:102460003D4FC9010895863040F0893040F08C30EE
:1024700040F08E3040F08A50089580E0089581E069
:10248000089582E0089583E0089590E09C01220F72
:10249000331F280F391F215A344FC90108958F92D5
:1024A0009F92BF92CF92DF92EF92FF920F931F9372
:1024B000CF93DF93C82E8091440985FF03C0C0E00D
:1024C000D5E002C0C0E0D4E0CC2039F021E0E5E660
:1024D000F8E0C21204C080E103C0EDE1F8E088E05A
:1024E000D0904309D594D594D594D594DD0CD80ECD
:1024F0004091450984E64802A0011124485A5D4FE5
:1025000008EC1FEA041B150BA0910F0CBB27A7FDBD
:10251000B09528EE33E00E94DE79600F711F811DB7
:10252000911DA1E0CA1204C0B8EFBB2EBD0C2BC098
:10253000B12C29C02B2D30E0220F331F275B384FE1
:10254000D901ED90FC90E814F90424F0EC16FD0696
:102550001CF403C0740101C07E01B8E4EB1AB4EFAF
:10256000FB0A8701222717FD2095322F601B710B74
:10257000820B930B51834083E41AF50AF382E282C3
:102580003496B39404C0882499248C1A9D0ABD14EF
:1025900088F2518340836115710521E0820791051E
:1025A0003CF46832A3E27A078105910534F009C052
:1025B0006FEF7FEF80E090E004C068E273E280E0BC
:1025C00090E0DF011496C1100BC0685E7340738306
:1025D00062838DE198E0909303018093020109C02A
:1025E00073836283CB01885E93409093AE0880939F
:1025F000AD081D921C92DF91CF911F910F91FF901A
:10260000EF90DF90CF90BF909F908F900895882398
:1026100009F187FF06C0863E1CF0E0E6E81B1BC000
:1026200081958B311CF4E82FE05C15C085321CF4D9
:10263000E82FEB5E10C0893244F4E82FFF27E7FD56
:10264000F095E25CF54FE49106C08C321CF4E82F63
:10265000E95A01C0E0E28E2F0895AF92BF92CF9267
:10266000DF92EF92FF920F931F93CF93DF931F920E
:10267000CDB7DEB7E82EF62ED22E5A01182FC12C78
:10268000D40E802F807A898337C0E981E03219F037
:10269000E03851F403C0F501408108C0F5018081A4
:1026A0000E940713482F02C0F5014491C1101CC0BD
:1026B000442321F1403240F0202F6F2D812F0E94C2
:1026C000840F1091700715C04F3189F04E3139F4E5
:1026D000F8E0FF0E8FE31E2D8F1580F00AC0842FC7
:1026E000880F840F180F05C0142FC12C02C0CC24F2
:1026F000C394EFEFAE1ABE0ADA10C7CF10932807C3
:10270000109370070F90DF91CF911F910F91FF9061
:10271000EF90DF90CF90BF90AF9008950F93022F6E
:102720002FEF0E942D130F91089522E0AC0160E07D
:1027300080E00C948E1320E00C948E13AB01682F74
:1027400080E00C949B130F93FA0194910F754F5FE7
:102750005F4F929F400D511D1124292F0E942D1370
:102760000F9108950F931F93CF93DF93D82F162FB8
:10277000C42F022F423E21F420E044E055E10AC07C
:1027800047FF05C041E282500E94840FC1952C2F63
:1027900047E958E1612F8D2F0E94A313DF91CF915C
:1027A0001F910F9108950F9347FD0AC045303CF4E7
:1027B000022F242F4CE359E10E94A31304C044507C
:1027C0000F910C94B2130F9108952091FC0732B72A
:1027D0008091FC072813F9CF922F80E0AC01432BA6
:1027E0009A01C90108958091430987709091A307C8
:1027F000911184E090910401981709F463C08093CB
:1028000004011EBC1DBC1CBC97B7937C97BF909164
:102810007D009E7F90937D009CE396BF9FE3909305
:102820007C00813019F0823081F51CC080E49CE985
:102830009BBD8ABD87B7806187BF1FBC8AE08EBD04
:1028400081E00E944F1280E593EC90938700809383
:10285000860088E893E190938500809384000E942D
:102860003E0D30C082E00E944F1280E593EC9093C1
:1028700087008093860088E893E190938500809399
:1028800084000E943E0DC0981DC080917D00857E11
:1028900080937D0017981F9A10928A0010928B00E7
:1028A00082E880938A0080917D00806280937D0021
:1028B00080EE9BEA9BBD8ABD87B7806187BF1FBC46
:1028C0008AE08EBD809144098295817080931C08B6
:1028D0000E94E51320910F0C38E02302800D911D1A
:1028E0001124885B9E4F9093A90D8093A80D80E0E2
:1028F0000C944F12CF93DF9300D0CDB7DEB7E82F03
:10290000F0E0E859F54FE491F0E0EE0FFF1FEB58CF
:10291000F84F208131813A832983843090F42091CB
:102920008A0D30E002C0359527958A95E2F720FFA1
:1029300008C029813A8180E098E0821B930B9A833A
:10294000898329813A81C9010F900F90DF91CF913E
:1029500008958091860D2AEF829FC0011124880F6F
:10296000991F9093740780937307089590E0FC017A
:102970003297EA32F10538F5EA5BFF4F0C94527A50
:1029800088E0689FB0011124645F71401DC082E33C
:10299000689FB001112418C070E06E51710914C015
:1029A00070E0660F771F10C084E1F2CF88E0F0CFAF
:1029B00085E0EECF84E6ECCF8AE0689FB001112479
:1029C000625E744001C070E0CB0108951F93CF9305
:1029D000DF93EC018A818F700E9433126981188124
:1029E000811108C06058812F8F53DF91CF911F91C3
:1029F0000C94B6141F536058812F0E94B614EC013A
:102A000060E8812F0E94B6149E01281B390BC90172
:102A1000DF91CF911F9108958450863130F4E82FD3
:102A2000F0E0E45FFE4F808108958FEF08951F93DB
:102A3000481759071CF086179707D4F441385105F9
:102A40000CF4805887FF03C080951FEF01C011E090
:102A5000E82FEE0FFF0BED5EF34F20813181120363
:102A6000C001139F900D1124861797070CF4CB011A
:102A70009C01481759070CF49A01C9011F91089548
:102A8000EFE3FDE020E030E081919191280F391FC4
:102A90008DE0E735F807C1F7C901089595E0899FF2
:102AA000900111242959354FC901089599E0899F52
:102AB00090011124295B364FC901089594E0899F44
:102AC000900111242954354FC90108951F93CF93C4
:102AD000DF93182F882311F0CDE001C0CFE1D0E0C3
:102AE0008C2F112331F00E945E15FC0190819370B0
:102AF00005C00E945615FC0194819F739111DF5F00
:102B0000C150C7FFEDCF8D2FDF91CF911F91089559
:102B1000CF93C82F0E946615282F30E0C1110CC03A
:102B20000FC08BE39AE002C08EE49AE090933B0DD5
:102B300080933A0D81E008C02E30310594F703C030
:102B4000203231058CF780E0CF9108959DE0899F78
:102B5000900111242253344FC9010895CF93C62FF9
:102B60000E94A6156C2F70E0FC01E60FF71F408154
:102B7000FC012481332727FD3095660F771F02C0A3
:102B8000359527956A95E2F723703327F4E04F02D5
:102B9000200D311D1124C901CF9108951F93CF93AA
:102BA000DF93C82F162FD5E0CC2381F0612F8C2F17
:102BB0000E94AE15853F21E0920744F0855F8C1797
:102BC00008F08F5FD150C82F79F7C0E08C2FDF91CC
:102BD000CF911F910895CF93C62F0E94CE156C2FD1
:102BE000CF910C94AE15E091870DF0E0E059F54FD0
:102BF000E491F0E024E030E0281B3109220F331F7C
:102C000002C0F595E7952A95E2F7E370FF278E2F2E
:102C10008F5F08959091810D95FF05C0823018F067
:102C200024E1209372079871983049F0911103C004
:102C3000811105C008959831C1F48330B0F09091AE
:102C40008B0D9295990F907E959595959595959567
:102C50009595E82FF0E085E09802E00DF11D112434
:102C6000EE56F54FE491E093490C08958091490C9C
:102C7000811108C08091B308811104C08091B4080B
:102C8000882311F084E105C080912C01882321F074
:102C9000815080932C0106C08091630086958170DD
:102CA00080932D0180912D010895633099F020F4D7
:102CB000613061F068F408C0653081F068F066301A
:102CC00079F0673089F40EC0807408958078089593
:102CD00088700895847008958072089580710895B1
:102CE000827008958170089580E008958E30910576
:102CF00054F4FC01EE0FFF1FE80FF91FE25DFE4FD9
:102D000081E0908149C08231910509F17CF48F30D6
:102D1000910539F124F48E309105E1F51CC0803124
:102D2000910541F181319105A9F52EC084319105BC
:102D300059F03CF08531910521F18631910551F52D
:102D400026C091B1947027C093B3907824C090911D
:102D50006300917020C09091630093FB992790F9D4
:102D60000DC08091630083FF15C091B196FB992738
:102D700090F911C091B196FB992790F981E09827BD
:102D80000AC091B1907107C093B3907404C091B11F
:102D9000907201C090E081E0911101C080E008953F
:102DA0009F92AF92BF92CF92DF92EF92FF920F93DA
:102DB0001F93CF93DF93B82E882309F498C19927E6
:102DC00087FD909597FF03C0919581959109282FD4
:102DD0008F3139F491E080919B01882309F482C1FD
:102DE0007EC18E3109F47DC18A3030F499270D9669
:102DF0000E947616982F76C18231C8F42A50E0914D
:102E00003109822F869564E0E69FF0011124E80FD6
:102E1000F11DEC5BFF4E6491217080B3660F620F71
:102E200080950E94551691E081115CC158C1825174
:102E3000C82ED12CEE24E394F12C082E02C0EE0C07
:102E4000FF1C0A94E2F72091990130919A012E21FA
:102E50003F21232B59F02091A1073091A2072E2169
:102E60003F2191E0232B09F03DC139C12091990107
:102E700030919A012E293F2930939A01209399018C
:102E80000E944512EC019A81892F82958F708A30B9
:102E900008F0885F9F7009F42CC1882309F42FC1C2
:102EA0000E94D01681112BC124C1F601EE0FFF1F25
:102EB000E757F84F80E090E89183808304C18881D0
:102EC0000E94D016182F89810E94D0162A812F7057
:102ED00030E02630310521F027303105A9F411C04A
:102EE000112309F4F0C0882309F4EDC08091A107F3
:102EF0009091A2078E299F299093A2078093A10702
:102F0000F0C0112381F3F2CF8127EDCF84E0A81226
:102F10000CC0F601EE0FFF1FE757F84F808191813B
:102F2000181619060CF4CFC0E1CF95E0A91208C01D
:102F3000F601EE0FFF1FE757F84F80818170D3CF66
:102F400088810E9498188C0162E0A6121CC08981B9
:102F50000E9498182A812F7030E02930310521F025
:102F60002A30310559F405C00817190709F0ABC01C
:102F7000BDCF801791070CF4B9CFA5C0081719076A
:102F80000CF4B4CFA0C098808FE38915C8F4809169
:102F9000280D811104C092E4991508F494C0CE0163
:102FA0000E94E6149C01A11017C0E92DE754ED30F2
:102FB00098F4F0E0E558F94F8981805880830CC07F
:102FC0006AE3691528F42981332727FD309504C069
:102FD00089810E94820D9C014A814F7050E04330EC
:102FE000510581F13CF44130510559F04230510511
:102FF00071F51EC044305105B1F04530510539F529
:103000001CC0892D8B53853028F40217130709F053
:103010005AC06CCF021B130B015F1F4F0F311105FC
:1030200008F464CF50C017FF03C011950195110932
:10303000201731070CF45ACF46C017FF03C0119573
:1030400001951109021713070CF450CF3CC0C601BB
:10305000880F991FFC01E757F84F408151814115B6
:10306000504811F411830083FC01E757F84F808129
:103070009181A801481B590B8A818F708C3091F483
:1030800081E037FD07C0421753070CF480E057FF7B
:103090003FC011C0241735070CF480E01416150644
:1030A00054F036C057FF03C051954195510981E056
:1030B0004217530744F0F601EE0FFF1FE757F84F92
:1030C0001183008310CF8091A1079091A207E09413
:1030D000F094E822F922F092A207E092A10790E092
:1030E00001C091E01B14BCF081E0982714C091E06E
:1030F00012C08A818F708F3009F0D7CEE4CF8A81D9
:103100008F700E943312A82E81E0A812FFCED7CE76
:103110008111D1CFD8CF892FDF91CF911F910F91FE
:10312000FF90EF90DF90CF90BF90AF909F90089569
:10313000811103C020E030E038C1982F91509730C2
:1031400038F4E82FF0E0EE0FFF1FE85DF84F52C0B3
:10315000883009F41DC08C3068F3803168F4682F22
:103160006C50809130090E94EB1573E0880F991F15
:103170007A95E1F70C944F0D803169F481E00E945B
:10318000D016811110C182E00E94D0168111D2CFD9
:1031900020E034E00AC1873110F48D5003C083323F
:1031A00038F485500E94D016882309F4FCC0F0CF73
:1031B0008B32C0F4482F50E043525109DA01AA0F74
:1031C000BB1FA350B84F2D913C91873208F07FC0B0
:1031D000FA01EE0FFF1FE059F24F80819181281B09
:1031E000390B75C08B3348F4E82FF0E0EE0FFF1F6A
:1031F000ED5DFE4F20813181D8C0803438F4E82F56
:10320000F0E0EE0FFF1FE356F44FF4CF803419F4D3
:103210002091310DBCC0833448F498E0899FF001BF
:103220001124EF5CFA4F25813681BFC0833419F435
:1032300020915B0CACC0843419F42091570CA7C0CA
:10324000853419F420914D0CA2C0863419F42091D4
:10325000520C9DC0873429F420917F0C3091800C52
:10326000A4C0883429F42091650C3091660C9DC06F
:10327000893429F42091670C3091680C96C08A3407
:1032800029F42091630C3091640C8FC08B3429F4A5
:103290002091690C30916A0C88C08C3429F42091FB
:1032A000810C3091820C81C08D3429F42091C10CA5
:1032B0003091C20C7AC08E3429F42091610C309187
:1032C000620C73C08F3431F42091AE0C30E0220FC9
:1032D000331F6BC0803529F42091C70C3091C80C86
:1032E00064C0813529F42091D10C3091D20C5DC09D
:1032F000823529F42091AF0C3091B00C56C0833543
:1033000029F42091C90C3091CA0C4FC0843529F49E
:103310002091CD0C3091CE0C48C0853529F42091F8
:10332000A70C3091A80C41C0863529F42091A90C36
:103330003091AA0C3AC0873529F42091AB0C30911A
:10334000AC0C33C0883529F42091870C3091880C5F
:103350002CC0893529F42091BF0C3091C00C25C0B8
:103360008A3529F42091CF0C3091D00C1EC08B35BA
:1033700029F42091F10C3091F20C17C08C3519F41E
:1033800020914E0C04C08D3521F42091530C30E077
:103390000CC08B3608F0CECEE82FF0E0EE0FFF1F0A
:1033A000E55EF34F27CF20E03CEFC9010895CF93AE
:1033B000DF93C82FD62FCA010E947616882311F0FA
:1033C00022E001C020E0482F405D6D2F8C2FDF915F
:1033D000CF910C94840FF89420914A0C30914B0CAF
:1033E0007894C9010895EF92FF920F931F93CF93A2
:1033F000DF93C6E1D0E000E810E0BDE0EB2E809165
:103400006F078023FF24F394811101C0F12CCE01BA
:103410000E947616F816C9F03C2F31512C2F2D50F2
:10342000353018F0811103C006C0882311F0122F27
:1034300002C01E2D1C1B243018F4111101C011E014
:1034400080916F07802780936F0706952197CE3074
:10345000D105A9F60E94EB1920912A0130912B0188
:10346000821B930B0B9708F010E00E94EB199093CE
:103470002B0180932A01812FDF91CF911F910F9112
:10348000FF90EF900895CF93DF931F92CDB7DEB7F3
:1034900070E090E1899F600D711D1124605A7F4F8B
:1034A00041E050E0CE0101960E94A27A89810F90FE
:1034B000DF91CF91089560E00C94431A86EAEDE421
:1034C000FCE0DF011D928A95E9F71092280D109219
:1034D0008A0682E090E09093860C8093850C90930E
:1034E000840C8093830CEDEAFCE08081866080830D
:1034F000089580E00E94085F81E00E94085F0E94BA
:103500005E1A10929B0110926E0710926D07109236
:103510006C0710926B0708950F931F93CF93DF935F
:1035200086E193E0E2E3F9E0DF019C011D92215086
:103530003040E1F782E00E94C85F10E004E6812F8E
:103540000E945615EC01912F9F708881807F892BF6
:10355000888309831F5F812F0E94F3158F739C81DD
:10356000907C982B9C83143051F7DF91CF911F9161
:103570000F9108952F923F924F925F926F927F9298
:103580008F929F92AF92BF92CF92DF92EF92FF9273
:103590000F931F93CF93DF93CDB7DEB766970FB628
:1035A000F894DEBF0FBECDBF8D83662E0E944062B1
:1035B00080E4E5EEF6E0DF011D928A95E9F7EFEF92
:1035C000FFEFF887EF831E82198AFD81F470FD8B6F
:1035D0002D8128702E8B862D90E0A0E0B0E023E1B5
:1035E000880F991FAA1FBB1F2A95D1F78B879C872D
:1035F000AD87BE87ABEFB1E0B88BAF87812C912C44
:103600001A861986E62DF0E0FC8BEB8B8A8AFD8109
:10361000F1110BC02E81211108C0F401EE0FFF1F24
:10362000ED55F94F81818F7B81838A890E945615E0
:103630008C01FC017480FFE37F2209F416C3DC01D6
:103640002C91822F8F70E82FF0E04F81588502C0B7
:10365000569547958A95E2F740FFFAC25A89552355
:1036600029F019978C9182278F7051F0EE0FFF1F70
:10367000EE0FFF1FEB51F94F10821182128213825D
:10368000F80183818F7141F482818F73BB24B394DD
:10369000811104C0B12C02C0BB24B394A72CAA94FE
:1036A000F80183818F7190E00090300902C09595F8
:1036B00087950A94E2F780FD23C38281880F880FE3
:1036C000859585950E94D0168111E5C219C38B326C
:1036D00008F00DC380910D08882309F40FC307C3B8
:1036E000F3E0FA1508F4B4C222E0A21204C08091FB
:1036F000430983FDADC23E89311175C0EA2DF0E06A
:10370000EE0FFF1FEF59FE4FE080F1806EC043E0E7
:103710004A1580F0D8018C91EA2DF0E0EE0FFF1FE2
:1037200085FF03C0E156FE4F02C0EF59FE4FE08017
:10373000F1804FC0872D0E9498187C01272D2B52B5
:10374000203108F046C0F801A081AF70EA2FF0E008
:10375000422F50E0E417F507E1F181E090E002C06C
:10376000880F991FAA95E2F7DC0181E090E002C082
:10377000880F991F2A95E2F79C018F81988528234D
:103780003923662777276A1B7B0B89859A85682BE7
:10379000792B26233723232B21F08A2B9B2B9A87E7
:1037A00089874E175F071CF09E81992391F0FA01DB
:1037B000EE0FFF1FEE0FFF1FEB51F94F808191813C
:1037C000A281B381892F9A2FAB2FBB27A7FDBA9572
:1037D0007C01B1100CC0C701892F990F990B8595F9
:1037E0008595D82E04C0E12CF12CDD24D394F4016E
:1037F000EE0FFF1FDF01AC55B94F2C91322F3295E0
:10380000307F36FB330F330B30F9220F220F26FBAC
:10381000220F220B20F9AD81A11157C0D31609F454
:1038200041C2ED55F94F80814181942F9370892BCE
:1038300009F4232FF80185813D150CF401C0829510
:103840008F70F401EE0FFF1FED55F94F32E3389FF3
:10385000C00111248083392F33708181807F9D2D99
:103860009370990F990F832B892B922F93709295B8
:10387000907F8F7C892B818315C24B895C89841B47
:10388000950B97FF02C080E090E080839370818168
:103890008C7F892B8183B11009C0E22EFF24E7FCC5
:1038A000F094FE2CEE24FF0CFF0C09C2D110D0C105
:1038B00006C29D2D9370292F2295207F832F837C14
:1038C000990F990F822B892B8183D11012C0F80197
:1038D0008681882361F08281807C803841F0BB2022
:1038E00041F0712C811108C0E12CF12C08C0B110FD
:1038F000AFC17724739403C0E12C84E0F82EFD81DE
:10390000F1112FC0BB2069F0D1100BC0F401EE0FF4
:10391000FF1FED55F94F80812181922F9370892BE4
:1039200001F1F8018481982F907C89F08295869529
:103930008695837090E0019721E030E002C0220F6D
:10394000331F8A95E2F7C9013989382B398BF40185
:10395000EE0FFF1FED55F94F81814FEF40FB86F9C8
:1039600081837720F9F05D8951111CC0F8018381B2
:103970008595859585958595859587FF03C0282F25
:103980002095A0C181110EC0F3E0FA1558F02A2D40
:1039900099C12091440927FF03C0E81AF90A02C01F
:1039A000E80EF91ED8018C91F80191819B8386FF66
:1039B00002C08FEF01C080E08C8345EF50E06BE0E8
:1039C0007FEF8B819C810E9417150E94870D5C01FF
:1039D000FD81F23008F086C0F8018681882309F461
:1039E00081C0AF85B8892D903D904D905C90BB27EC
:1039F00057FCBA95A52D942D832D9701281B390BC3
:103A000009F470C0611004C080919B01811163C0F2
:103A1000C701AA2797FDA095BA2FCC24D82EE92E4E
:103A2000FA2E80919B011216130634F5882309F4AF
:103A300049C0F80186818F7090E0009709F442C078
:103A4000F2E3F89F9001F99F300D1124442737FDD0
:103A50004095542F6B857C858D859E850E94367A96
:103A6000220D331D441D551D2C153D054E055F05CA
:103A70004CF569017A0126C0882321F1F80186817D
:103A800082958F7090E00097E9F0F2E3F89F900143
:103A9000F99F300D1124442737FD4095542F6B8535
:103AA0007C858D859E850E94367AD201C101821B5C
:103AB000930BA40BB50BC816D906EA06FB0614F443
:103AC0006C017D01AF85B889CD92DD92ED92FC92BB
:103AD000139716012701BB2757FCBA95A52D942DE6
:103AE000832D7C01772059F0F8016781662339F036
:103AF000808184FF04C0C7010E9487117C01970167
:103B0000D5010E94CA791B012C01772019F1D80137
:103B10008C91F801908599838095881F8827881F4C
:103B200081508A8345EF50E06BE07FEF89819A8175
:103B30000E941715009771F00E94660DAA2797FD45
:103B4000A095BA2FBA2FA92F982F8827280E391E93
:103B50004A1E5B1ED801FC90F4FC2AC0F801878144
:103B600044E650E06CE97FEF992787FD90950E942D
:103B700017150E94A30D181619063CF457FE18C01D
:103B8000A0E0B1E0A81BB90B09C0009789F012149E
:103B900013041404150464F4DC01B395A20191012B
:103BA0000E94F079272E382E492E552447FC5A942E
:103BB000D8013C913F70F801828182958695869567
:103BC000837090E024E0329FF00111248130910550
:103BD000C9F0EB51F94F029779F520823182428288
:103BE00053823D81311134C01A891150103280F551
:103BF000812F0E945615DC018C918F258F7009F45E
:103C00006CC026C0552757FC5A95452D342D232DC1
:103C1000EB51F94F60817181828193810E94F87923
:103C20003AE095958795779567953A95D1F76083B2
:103C30007183828393830CC080819181A281B3813F
:103C4000820D931DA41DB51D80839183A283B38330
:103C5000BFEF8B1A9B0AEF85F8893496F88BEF87B4
:103C6000F0E28F16910409F0D1CC2E812F5F2E83C4
:103C7000253021F439893093580148C04F81588547
:103C800089859A854823592358874F83612C452B72
:103C900009F0A1CCEFCFF80184818F73833208F053
:103CA00016CD25C0F401EE0FFF1FED55F94F8081B1
:103CB0003181932F9370009709F0DFCDFACD7724EF
:103CC000739420CEE22FEE0FFF0BE75AFE4F808158
:103CD0009181223009F064CE5CCEE12FF0E0EE0F4E
:103CE000FF1FED55F94F81818F7B81837ECFFD8151
:103CF000F23008F0F5CCDD24D39409CDBB24B39485
:103D00002D81223008F0A4CFD12C01CD66960FB6BC
:103D1000F894DEBF0FBECDBFDF91CF911F910F9101
:103D2000FF90EF90DF90CF90BF90AF909F908F90DB
:103D30007F906F905F904F903F902F9008952F92BB
:103D40003F925F926F927F928F929F92AF92BF92BB
:103D5000CF92DF92EF92FF920F931F93CF93DF9357
:103D600000D000D000D0CDB7DEB70E94EB19209173
:103D7000A7013091A8018217930718F0582E521A04
:103D800002C0552453949093A8018093A7010E94E8
:103D9000BF5C8EE587B910929A011092990120912B
:103DA0000001222309F43FC02F3F09F434C0809161
:103DB000DA0B8F70E22FF0E03DE0239FD001112459
:103DC000A652B44F6C9162956F70681708F4682F13
:103DD00081E090E0022E01C0880F0A94EAF78F5F1D
:103DE0009091B801662369F0892B8093B8018EE128
:103DF00095E070E00E948E7A7093BA016093B901E9
:103E000010C0809589238093B801EE0FFF1FE25503
:103E1000FE4F118210828FEF9FEF9093AF0180933E
:103E2000AE0110920001C090B801CC2009F46EC020
:103E300080E4EBEBF1E0DF011D928A95E9F70EEAF1
:103E400011E01A821982812C912C54012C2C312CD6
:103E5000298110929A0110929901C101022E02C08B
:103E6000959587950A94E2F780FF3FC0209330092B
:103E7000211102C0652D01C060E081E0211101C067
:103E800080E00E94BA1AF801808191816C01E12CD6
:103E9000F12CE5EEF6E07BEB672E71E0772E2191B9
:103EA00031914191519164E055954795379527950A
:103EB0006A95D1F7C701B6010E94F879D3012D9117
:103EC0003D914D915C911397260F371F481F591F45
:103ED0002D933D934D935D933D01B7E0E532FB0794
:103EE000F1F68C0C9D1CAE1CBF1C10929A01109216
:103EF0009901E981FA813196FA83E9830E5F1F4FB8
:103F0000359709F0A5CF1092300909C010923009F9
:103F1000652D80E00E94BA1A812C912C5401552005
:103F200009F4B0C1E9E6F1E080E8819321E0E937E6
:103F3000F207D9F78FEF80930701809308018093F0
:103F4000090180930A0138EF232E3CE0332E00E074
:103F500010E0C12CD12C7601712CA801440F551F03
:103F6000400F511F4D57544F5E834D83DA018C91A2
:103F7000880F880F8595859509F471C10E94D01628
:103F8000ED81FE8120812295269526952370318131
:103F9000932F9370990F990F922B953020F4331F24
:103FA0003327331F8323811103C0973009F054C195
:103FB00021E030E040E050E0002E04C0220F331F2B
:103FC000441F551F0A94D2F729833A834B835C839D
:103FD000892F90E08330910509F494C03CF481303E
:103FE0009105F9F094F5892B79F02DC18530910573
:103FF00009F400C10CF499C08930910509F41EC17F
:104000000B9709F020C11DC1ED81FE81818186954C
:1040100086958F70A82FB0E0A759BE4F82818C93F0
:1040200012C1ED81FE812181269526952F7030E009
:104030002115310539F02150310901C0880F2A9529
:10404000EAF701C08FE0782AFEC0F0E17F2A809174
:10405000F30C84FDF8C08091AB0D9091AC0D27E47A
:104060008C3F920721F08A5E974209F0ECC082E013
:104070000E9440621E821D82612C42E06416A1F102
:10408000662D809130090E94CE15ED81FE81EF5999
:10409000FE4F20813181A90137FF04C044275527F5
:1040A000421B530B4F305105FCF0ED81FE81E75A66
:1040B000FE4F40815181420F531F57FF02C04F5F97
:1040C0005F4F559547954C309EEF59072CF0443F74
:1040D000A1E05A0724F405C04CE05EEF02C044EFB3
:1040E00051E0662D0E94D45F6394ED81FE8132968B
:1040F000FE83ED83F4E06F12C0CF82E00E94C85FC0
:1041000082E099C0ED81FE818281823041F020F011
:10411000833009F098C006C00E94085F94C00E94D6
:10412000791A91C00E945E1A8EC0ED81FE813181A4
:10413000832F8C7029F4832F82958F7062810FC03A
:10414000883089F4ED81FE818281E82FF0E0EE0F66
:10415000FF1FED5EF34F832F82958F706081877014
:104160000E94FF5F70C08C3049F54091F40C509173
:10417000F50C6091F60C7091F70C89819A81AB81F6
:10418000BC81482359236A237B23452B462B472B8D
:1041900009F059C0832F82958770E82FF0E0EE0F69
:1041A000FF1FED5EF34F6081ED81FE8192819923C7
:1041B00011F091E001C09FEF690FD2CFED81FE8138
:1041C0008281282F2C50243048F4E82FF0E0E5506D
:1041D000FF4F932F92959770908335C00E94981847
:1041E0000E941861ED81FE81918192959F70682FE8
:1041F000892FB5CF0E94EB19ED81FE816181669513
:1042000066956F70D1012D913C912115310579F0A2
:104210006623C9F0AC01421B530BE8EEF3E06E9F3E
:1042200090016F9F300D11244217530764F0D101A4
:104230008D939C9383E00E940A1605C0B0E27B2A0E
:1042400002C0E0E47E2A29813A814B815C81C22A46
:10425000D32AE42AF52A03C0D1011D921C920F5FD4
:104260001F4FB2E02B0E311C0831110509F075CE3D
:10427000C092F40CD092F50CE092F60CF092F70C90
:104280007092F30CE9E7EE2EE1E0FE2E09E417E070
:10429000612C712CD12C8091B801F301882391F00D
:1042A000E554FE4F6081718182819381A501940163
:1042B0000E94367A74E0220F331F441F551F7A95EF
:1042C000D1F706C0EB51F94F2081318142815381F2
:1042D000BB2757FDBA95A52F942F832FF701819304
:1042E00091937F01BA01A9018D2D0E943361F89449
:1042F000D8018D939D938D017894D394B4E06B0E87
:10430000711CE0E1DE12C7CF511002C0369A41C0E5
:104310001091B8011123D1F38091B9019091BA01A4
:10432000589E9001599E300D1124EEEAF1E080E094
:1043300090E061E070E0AFEFBFEF062F082E01C004
:10434000000F0A94EAF7402F4123D9F040815181B0
:1043500081110CC07A01E094F0942E153F0518F4F9
:10436000420F531F08C0B183A0830AC0241735072A
:1043700028F4421B530B5183408303C011821082E7
:10438000101B0196329685309105B9F61093B8014D
:10439000BDCF3699FECF84B195B19093300D809307
:1043A0002F0D552009F45FC2E091100CE43008F4A1
:1043B00042C08E2F8450A82FB0E0AA0FBB1FA75B6E
:1043C000B84FCD90DC900E944E157C01FC0181819C
:1043D0008C590E94820D8C01D7018C9184560E94C9
:1043E000820DF701248127FF05C098012C193D0992
:1043F000690102C0C81AD90A9801281B390BB1F00B
:10440000211548E0340791F0B601762F6627770F23
:10441000770F770F882777FD8095982F442737FDF2
:104420004095542F0E94367AC22ED32ED7FE15C047
:10443000C12CD12C12C0E11107C0C090A301D090B3
:10444000A4015CEFD51A09C0F0E0EE0FFF1FE05D9C
:10445000F84FC080D1808CEFD81A84E0D594C794EF
:104460008A95E1F79DE3A92E99E0B92EE12CF12C74
:104470002CE3622E712C33243394D5018C91F701F7
:10448000EE0FFF1FEE0DFF1DE25CF64F8080918165
:104490000FE0902E9922882309F40FC1F701B3E0B1
:1044A000EE0FFF1FBA95E1F7E75CF84FFA83E98357
:1044B0009481911107C08430C1F03482118210823E
:1044C00013821282833089F4A981BA812D913C91A3
:1044D00011972F5F3F4F11963C932E93FD01228140
:1044E00033812C0D3D1D33832283E981FA8197812D
:1044F000950D9783943608F4E0C0058116810F3F2F
:10450000FFE71F07C1F49090A90193949092A9012D
:10451000A090AA01B090AB01AC0CBD1CB092AB0155
:10452000A092AA018091AC01850D8093AC018A30E4
:1045300008F499C1CEC0011520E8120721F3945662
:10454000E981FA8197838114910421F09401201B61
:10455000310B8901813009F444C0823029F4C1143F
:10456000D10409F440C03DC0833001F5E981FA81EE
:10457000228133810190F081E02DC901BF010E94A9
:104580008E7A6038710568F00F5F1F4FF695FE2F29
:10459000EE27F795E7952E1B3F0BE981FA813383D0
:1045A0002283A981BA811D921C921DC0843091F48E
:1045B000BEE0CB16D10454F0E981FA8184818111E7
:1045C00005C034821182108213821282E981FA813D
:1045D000848105C018160CF484500E94D0168823DC
:1045E00011F00F5F1F4FE981FA818481813019F04A
:1045F0008230C1F40EC081149104D9F00815190558
:10460000A4F083E00E940A1682E0E981FA818483A3
:104610000CC0C401CB968017910724F483E0E98194
:10462000FA8184838114910421F09401201B310BC1
:104630008901E981FA818581968108171907E9F1D5
:104640001683058324812130C1F54701880C991C0C
:10465000F401EE0DFF1DDF01A15CB64F8C9184FFCC
:104660001BC0E25CF64F80813181932F9F70892BB4
:1046700099F00E31110521F482E08093B3080AC04D
:104680000431110519F42093B30803C00B30110550
:104690001CF482E00E940A16F401EE0DFF1DE15C9D
:1046A000F64F808185FF09C0C801B3010E947A7A64
:1046B000892B19F482E00E940A16FFEFEF1AFF0A15
:1046C00023E0A20EB11C32E0E316F10409F41BCF83
:1046D000D4CE8A508093AC01C090AD018C2C8394D1
:1046E0008092AD0109E817E0E12CF12CDD24D39490
:1046F0008E2D0E944512AC01FC0182818F708E309C
:1047000031F5D8018D919C91009721F08115B0E889
:104710009B0741F4FA0180810E94191291958195BD
:1047200091090CC097FF0EC00196F8019183808318
:10473000892BC9F5FA0181810E941912D8018D9344
:104740009C9331C00197F801918380832CC08F30F6
:1047500051F51701220C331C29E837E0220E331ED5
:10476000F1017180F1E07F22D1018C91882371F0F9
:10477000FA0181810E94D0168715A9F0F10181818B
:104780008D25818371100FC010820DC0DA018C91CC
:104790000E94D016781639F0F10181818D25818330
:1047A000711001C0D082FFEFEF1AFF0A0E5F1F4F9A
:1047B0002CE0E216F10409F09BCF39E0381508F03F
:1047C00052C08C2D89508093AD01809169079091E2
:1047D0006A07019690936A0780936907ECE9F1E014
:1047E000808191810196918380839C01277033277A
:1047F0002130310591F42091830D222371F0309105
:10480000310D333350F04CE3249F900111242817CD
:10481000390718F483E00E940A16692DC50170E07B
:104820000E948E7ACB0133E0959587953A95E1F712
:1048300020916B0730916C07820F931F90936C0748
:1048400080936B07672B49F080916D0790916E07FD
:10485000019690936E0780936D071092A9011092B4
:10486000AB011092AA0181E080939B0126960FB6BE
:10487000F894DEBF0FBECDBFDF91CF911F910F9196
:10488000FF90EF90DF90CF90BF90AF909F908F9070
:104890007F906F905F903F902F90089501C0A895F2
:1048A00086B380958E77D9F78AE2EEE2F1E0DF01F8
:1048B0001D928A95E9F710922F09089580E094E0FF
:1048C000EBE7F2E0DF019C011D9221503040E1F75F
:1048D00008959EE790930E0810920F08109210080A
:1048E0001092110810921208109213089091810DE5
:1048F0009871903109F420E0209314084093150832
:104900006E3719F06D3721F402C06EE501C06DE518
:1049100060931608809317088EE7809318088BE041
:104920008093480C559A08951F93CF93DF9310E01E
:10493000CBE7D2E084E00E94B65C80E10E94B65CE6
:10494000812F806B0E94B65CA998AB9AAC98CE017F
:1049500080589F4FFE0121912BBBAD9AAD98E8176F
:10496000F907C9F7C058DF4FAB9AA99A1F5F1830F3
:1049700009F7DF91CF911F910895CF93C82F81E858
:104980000E94B65C8C2FCF910C94B65C80916C0D1C
:104990000C94BD240F931F93CF93DF93142F022FFA
:1049A00087FD6AC047FF02C0640F119567FF02C010
:1049B000160F60E0E12FFF27E7FDF095E60FF11DF0
:1049C00067FDFA95E134F10514F010E4161B053586
:1049D00011F460FF0AEA262F259525952595C82F05
:1049E000D0E030E82303C00DD11D1124C558DD4FA0
:1049F000677069F1E1E0F0E02E2F062E01C0220F72
:104A00000A94EAF76850160F17FD03C0822F8195AC
:104A10000DC0812F992787FD90950896AF0102C0A0
:104A2000440F551F8A95E2F7CA01821B682F602345
:104A300040E0CE010E94B30EC058DF4F08C040E0F6
:104A4000602FCE010E94B30EC058DF4F18501830AF
:104A5000B4F711168CF481E090E001C0880F1A952C
:104A6000EAF7682F6150602340E0CE01DF91CF91DB
:104A70001F910F910C94B30EDF91CF911F910F9165
:104A80000895EF920F93CF93DF93D82F8091920DDB
:104A9000811117C080919A0D811104C08091A50DDC
:104AA000882329F16091A40D80919B0D90919C0D1C
:104AB00070E00E948E7AC7E0C61B19F0C73018F468
:104AC00003C0C1E001C0C7E084E0E82E0FEF28E09A
:104AD00045E060E08D2F8F5F0E94060F67E06C1B42
:104AE000E12C2C2F43E08D2F8E5F0E94060FDF916B
:104AF000CF910F91EF900895FF920F931F93CF9353
:104B0000DF93F62E1091E406662311F0115001C0D8
:104B10001F5F8823C9F18091E4060E945E15EC01B5
:104B2000098117FF06C0802F837009F46FC08D5F65
:104B300008C01E3059F4802F8370833009F466C09A
:104B40008F5F83700C7F082B09835EC0812F0E94CA
:104B50005E15FC0181818027837019F48081837048
:104B6000D1F58981982F9370FF2029F0992309F4BA
:104B70004DC09D5F04C0933009F448C09F5F93709F
:104B80008C7F892B898340C08091E4060E94561552
:104B9000EC01088117FF05C0802F8F70B9F1815F8C
:104BA00007C0103251F4802F8F708F3079F18F5FF2
:104BB0008F70007F082B088327C0812F0E94561515
:104BC000FC010F7084818F7341F080818F70081316
:104BD00004C089E015C084E013C0FF2021F0002349
:104BE000A9F0015F03C00F3089F00F5F0F7088815B
:104BF000807F802B888308C098812081299391939E
:104C00008150D0F71093E40681E001C080E0DF918D
:104C1000CF911F910F91FF900895DF92EF92FF9235
:104C20000F931F93CF93DF93C82F162FD42FD22E1D
:104C3000F02E202F4D2D0E94CA248C2F8150202F22
:104C40004D2D612F8D0F0E94CA24E3FC02C0CF5F5F
:104C5000D250612F61506D0D00E02F2D4D2F8C2F04
:104C60000E94C10E2F2D4D2F612F8C2F0E94C10E3F
:104C7000DF91CF911F910F91FF90EF90DF900895FA
:104C8000EF920F93CF93DF938091280D882309F43F
:104C90006CC020E040E867E380E00E94FF0EC09116
:104CA0005B0CC43608F0C3E665EB7AE089E30E944A
:104CB0009E1302E020E14C2F50E069E389E10E945D
:104CC000AB4EE12C0FEF27E046E269E38AE10E9458
:104CD0000D2680E00E94ED5CC81710F405E501C0C8
:104CE0000FEF24E0C29FC00111246BE070E00E942E
:104CF0007A7A462FE12C25E06AE38AE10E94060FCA
:104D0000C091570CC43608F0C3E649EB5AE069E39A
:104D100088E60E949B1302E020E14C2F50E069E3FB
:104D200081E80E94AB4EE12C0FEF27E046E269E3F9
:104D300081E40E940D2624E0C29FC00111246BE093
:104D400070E00E947A7AD62F80E00E94ED5CC8174E
:104D500010F405E501C00FEFE12C25E04D2F6AE3CB
:104D600086E68D1B0E94060F0EC021E04DEB5AE037
:104D700069E38AE20E948E1387E0DF91CF910F9161
:104D8000EF900C94A40EDF91CF910F91EF900895C6
:104D9000EF920F9394E0E92E0FEF28E24CE660E1EA
:104DA0008AE00E94060FE12C28E24CE660E18AE0EE
:104DB0000E940D2640913A0D50913B0D68E180E133
:104DC0000F91EF900C949B13CF93DF93CAE3DDE038
:104DD000998388830E94C82619821882DF91CF9117
:104DE0000C949424EF920F931F93CF93DF93C82FCB
:104DF000D62F122F442321F043E28F5F0E9493109D
:104E0000E12C0FEF27E047E06D2F8C2F112319F0D5
:104E10000E94060F02C00E940D26DF91CF911F91C4
:104E20000F91EF9008958F92AF92CF92DF92EF9211
:104E3000FF920F931F93CF93DF93D82E162FF42E4C
:104E4000E901202F482F6F2D812F0E94F2268E2CF2
:104E5000A02ECC24C394E12C0D2D20E030E0AE0137
:104E60006F2D812F0E949860DF91CF911F910F913C
:104E7000FF90EF90DF90CF90AF908F9008952FEF3D
:104E80000C94CA24DF92EF92FF920F931F93CF935B
:104E9000DF93182FD62ECA01E9012091AD0C22FD17
:104EA0008CC0611102C02DE2D22E64E670E00E9437
:104EB0007A7AAB017C0120E8612F8CE30E94B55027
:104EC00040E4612F809128070E94931090918B0DF0
:104ED00080912807FF2496FD4BC04D2D612F8B5FDD
:104EE0000E9493108091280702E020E9A701612F1A
:104EF000835F0E94AB4E42E0612F809128070E94A1
:104F00003F2726E02C9FC0012D9F900D112468EEB5
:104F100073E00E948E7AAB01EC018091280720E9B2
:104F2000612F8D5F0E94AB4E612F6A5F40E08091E0
:104F300028070E94690F8091280703E020E9AE014D
:104F4000612F8E5F0E94AB4E42E0612F8091280757
:104F50000E943F278091280742E0612F8E5FDF91FA
:104F6000CF911F910F91FF90EF90DF900C943F270E
:104F700002E020E9A701612F8A5F0E94AB4E612FFA
:104F80006A5F40E0809128070E94690F809128079E
:104F900004E028E9AE01612F8E5F0E94AB4E809144
:104FA00028074D2D612F8F5FDF91CF911F910F91BA
:104FB000FF90EF90DF900C9493104AEF55E1612F32
:104FC0008CE3DF91CF911F910F91FF90EF90DF90D5
:104FD0000C949B132F923F924F925F926F927F920D
:104FE0008F929F92AF92BF92CF92DF92EF92FF92F9
:104FF0000F931F93CF93DF9300D000D0CDB7DEB7D0
:105000008C838236F1F028F4803631F1813631F527
:1050100004C02C81233611F508C081E60E94E60DFC
:105020008CEF97E40E94961019C080918806982F03
:10503000915090938806811111C083E08093880677
:105040000DC080918806982F9F5F909388068330CB
:1050500029F41092880602C00E945E1A00E0209196
:105060006B0D42E359E060E080E00E94AA5341E00A
:105070009091310D80916D0D891708F440E060E04A
:1050800084E50E94B05180913D09882369F04091E8
:105090003E0750913F07252F221F2227221F022F54
:1050A00060E080E80E94E34F80E00E94A40E30910F
:1050B0008806323008F066C18CE0389F1001112458
:1050C000EDE2FCE02E0E3F1E8091290C829583704C
:1050D00090E002C0959587953A95E2F780FD09C06A
:1050E000F9E09F2EB12CA12CA1E47A2EB2E86B2E10
:1050F00039C173E0C72ED12CE5E06E2E8601000F7A
:10510000111F0C0D1D1D020D131DF8017080618112
:10511000872D0E94B6145C01F80162816095872D8D
:105120000E94B6144C01772009F493C0A816B90662
:105130000CF08FC0862D90E00696482EC89E400C3D
:105140001124662D6550640D00E0272D49E357E1D9
:1051500080E00E94A313262D2E5FE12C0FEF45E681
:10516000642D89E10E940D26872D815C0E9498188C
:105170007C01F3E0F71570F525E0872D271528F061
:1051800084500E94ED5C082F0EC090E0E7E0E71528
:1051900060F0069726E0289FF001299FF00D11246A
:1051A000E05EF34F008110E008C0FC01ED58F94FBC
:1051B0006081872D0E94B6148C010115110561F0E4
:1051C000A401B501C8010E94D75C582E84E658128C
:1051D00004C002C000E010E0512CA401B501C701D9
:1051E0000E94D75CB82EE016F10614F405E501C064
:1051F0000FEF872D8B50823008F40195F42CF39437
:10520000E12C262D4B2D6F2D8AE10E94060F18E10F
:10521000511610F0B11630F4462D6F2D812F865E99
:105220000E943F27175E133699F75520A1F0142DE1
:105230001250462D4D5F25E5612F852D865E0E941B
:10524000CA2420E043E0612F852D875E0E94FF0E77
:1052500002C06394639491E0C91AD10808F04ECF5C
:105260000E944026FCE0F61508F0AAC195C1F101A4
:10527000EE0DFF1D10811111A39423E0B21235C071
:1052800040E368E08FE30E943F278091280D882348
:1052900049F11C3211F565EC7AE089E30E949E1316
:1052A0004091A70C5091A80C00E020EB69E388E145
:1052B0000E94AB4E4091A90C5091AA0C20EB69E3DF
:1052C0008CE30E94AB4E4091AB0C5091AC0C20EBA8
:1052D00069E380E60E94AB4E3CC01D3231F40E946F
:1052E000815037C00E9440264AC0112339F1812FD6
:1052F000815C0E9498189C0183E0B81202C000E40F
:1053000001C004E419827A826B82412F4150F60178
:105310008081682D82500E94E651812F8250823018
:1053200018F4F3E0BF12175FF601319700E0212F68
:1053300049E357E1692D80810E94A3132FEFE21A00
:10534000F20A8FEFC81AD80A92E0E916F10409F0C0
:105350008ECFB394E0E19E0EF2E02F0E311C24E0DC
:10536000B21651F0892C8A9452E0C52ED12CCC0E65
:10537000DD1EE12CF12C7BCF87E00E94A40EA11052
:105380001FC10AC12091290C323009F0B6C0229504
:105390002695269523702F5F00E047E458E160E1F1
:1053A00080E00E94A3136091290C62956695669532
:1053B0006370862F90E08230910569F0039791F039
:1053C00080E10E9471521091290C12951695169544
:1053D00013701F5F12C02091D10C3091D20C04E0E9
:1053E00041E106C02091C70C3091C80C04E040E1B7
:1053F00068E08AE30E94E65110E02091460C277095
:10540000C9F100E047E458E160E280E00E94A313A4
:105410006091460C6770862F90E081309105ACF06A
:10542000833091051CF0039781F405C0615080E240
:105430000E9471520AC02091AF0C3091B00C04E070
:1054400042E168E18AE30E94E6512091CD0C30915F
:10545000CE0C04E844E168E284E00E94E651209129
:10546000C90C3091CA0C04E043E168E288E50E946F
:10547000E65110C0112321F062E0611B88E202C0F6
:1054800060E080E20E947152111104C061E080E38B
:105490000E9471528091AD0C82958F7059F143E753
:1054A000C42E4CE0D42EE12CF12C18E016C0F601ED
:1054B0009081981710F020E301C021E3F60141919B
:1054C0006F0150E0440F551F04E0612F80E80E94F7
:1054D000AB4E185FFFEFEF1AFF0A8091AD0C82957B
:1054E0008F7090E0E816F9060CF064C0183309F0EC
:1054F0005CC060C00E94402663C02370213041F52B
:105500006AEC7AE089E00E949E132091950C30911C
:10551000960C4091850C5091860C6091A50C89E009
:105520000E94422763ED7AE082E10E949E1320915F
:10553000930C3091940C4091830C5091840C6091A9
:10554000A30C82E10E9442270E9481501BE101C00E
:1055500019E06DED7AE0812F0E949E1345EB5AE031
:10556000612F8CE30E949B1340915C0C02E020E9C8
:1055700050E0612F8EE40E94AB4E49EB5AE0612F60
:1055800080E60E949B134091580C20E950E0612F67
:1055900082E70E94AB4E14C02C81233611F483E6BF
:1055A00001C082E680932F090BC080918306811190
:1055B0007ECF81CF4FE268E08CE60E943F279ACFF2
:1055C0000F900F900F900F90DF91CF911F910F913F
:1055D000FF90EF90DF90CF90BF90AF909F908F9013
:1055E0007F906F905F904F903F902F900895CF9253
:1055F000DF92EF92FF920F931F93CF93DF937C0183
:10560000C62F2EEE40E460E08EE58C1B0E94CA247B
:1056100000E02EEE40E460E28EE38C1B0E94C10E9F
:105620000DE30C1BC0E0DCEF1FEF3FE3C32ECE0108
:10563000F70109959C5F96958795C89EA001C99E24
:10564000500D1124852F86958695DC2CD81A1F3F86
:10565000C9F02D2D30E0211B31092F5F3F4F233042
:10566000310530F442E0612F802F0E94690F0AC09B
:10567000412F4D1961E01D1508F460E06D0D802F7C
:105680000E943F27A0960F5F1D2DC032F4E0DF0778
:1056900071F6DF91CF911F910F91FF90EF90DF9006
:1056A000CF900895EF920F93CF93DF93D82F682F69
:1056B00084EC91E10E94F72AC0E08C2F0E94C8116F
:1056C000CF5F882359F0692F615042E0E42E0FEF3D
:1056D00023E043E08D1B0E94060FEFCFDF91CF91B7
:1056E0000F91EF900895EF92FF920F931F93CF9336
:1056F000DF938091810D86FD0BC00E943454843667
:10570000910530F467EE7AE08DE390E10E94692D17
:105710000E942E2D1091110CCFEF012F03700F5FFF
:105720000E94F3192091120C30E0F0916F074F2F77
:105730004127A42FA37050E0E0E080E090E0B901A1
:10574000082E02C0759567950A94E2F760FD11C0B6
:10575000009719F4A1110CC00CC0BC016F5F7F4F02
:105760007A0102C0F594E7946A95E2F7E0FE01C081
:10577000E1E001968630910511F7EE2309F44DC062
:10578000CF1709F442C041EA5AE060E070E086EFCA
:105790009AE00E94E92CC0E0D0E062E0F62E4C2FA7
:1057A00020916F072127C11103C0237061F00DC044
:1057B00030E0BE016F5F7F4F02C0359527956A9537
:1057C000E2F720FD02C020E001C022E06091120C4F
:1057D00070E00C2E02C0759567950A94E2F760FDA3
:1057E00009C0442311F04D5F01C0402F68E28F2DA6
:1057F0000E94B21355E1E52EFE0C219680E8F812C6
:10580000CECF0E949424C0916F0786B380958E7787
:1058100021F40E940D62A89583CFDF91CF911F9153
:105820000F91FF90EF900C944E244F925F926F92E5
:105830007F928F929F92AF92BF92CF92DF92EF9220
:10584000FF920F931F93CF93DF938C01EB0164E6DC
:1058500070E08091850C9091860C0E947A7A6B01A1
:105860007C01D70120E137E20E94DE799B01AC0187
:105870008091950C9091960C280F391F411D511D58
:10588000A5E0B0E00E94E57923E0822E912CA12CC6
:10589000B12CA50194010E94147A29013A01D60184
:1058A00020E432E44FE050E00E94F079460E571EAB
:1058B000681E791EF801408251826282738264E61A
:1058C00070E08091830C9091840C0E947A7A6B0135
:1058D0007C01D70120E137E20E94DE799B01AC0117
:1058E0008091930C9091940C280F391F411D511DEC
:1058F000A5E0B0E00E94E579A50194010E94147A28
:1059000049015A01D60120E432E44FE050E00E9400
:10591000F079860E971EA81EB91E88829982AA82E7
:10592000BB82DF91CF911F910F91FF90EF90DF909D
:10593000CF90BF90AF909F908F907F906F905F902F
:105940004F9008950F931F93CF93DF93FA017491B3
:10595000DA0112963196E491F0E0379633E0F5954E
:10596000E7953A95E1F71E2F279F900111242E9F6E
:10597000A0012F9F500D3E9F500D1124A40FB51F65
:1059800066956695669590E0F0E86F9F800D911D95
:10599000112420E030E060E0472F50E013C0E9011F
:1059A000C80FD91FC558DD4FFD0103C004913196C2
:1059B00009930E2F0A1B0717C8F3A40FB51F6F5FBB
:1059C00020583F4F611758F3DF91CF911F910F91EE
:1059D0000895CF92DF92EF920F931F93CF93DF93AF
:1059E0008C016B01EA010E945E2420E046E25BE04C
:1059F00060E082E00E94A22C24E044E95BE060E0E9
:105A000084E20E948E1324E0A80160E184E20E94F7
:105A10008E13E12C0FEF20E240E860E080E00E946E
:105A2000060FC114D10421F0B60188E20E949E1332
:105A3000209739F0BE0188E30E949E1384E00E9403
:105A40000A160E9494240E94C624DF91CF911F91D0
:105A50000F91EF90DF90CF900C944E24CF93DF9373
:105A6000C091100C8C2F8150833010F4CD5F01C099
:105A7000C2E08091440983FD29C00E94BF5C82E09E
:105A80000E944062D0E0CC0FDD1FC65DD84F8881F8
:105A9000998181319C4FD4F041EA5AE061E07BE08A
:105AA0008DEF9AE00E94E92C0E94BF5C82E00E9488
:105AB00040628881998126B320952E7739F481310F
:105AC0009C4F24F00E940D62A895EECFDF91CF91FC
:105AD000089540E15BE00E94E92C86B380958E77C3
