:100000000C943D0C0C945A0C0C945A0C0C945A0CF5
:100010000C945A0C0C945A0C0C945A0C0C945A0CC8
:100020000C945A0C0C945A0C0C945A0C0C945A0CB8
:100030000C94BF610C945A0C0C945A0C0C94946060
:100040000C94BA620C945A0C0C9465600C941E6269
:100050000C945A0C0C945A0C0C940C610C945A0C81
:100060000C945A0C0C943C620C9471610C94406199
:100070000C945A0C0C945A0C0C945A0C0C945A0C68
:100080000C945A0C0C945A0C0C945A0C741474144E
:100090007F147F147F147F145C1463147F1468141E
:1000A00068146C1472145C146C147F147F14741430
:1000B000761474147F147F147F146C1478147014E5
:1000C0007F147F147F145C145C1463146814681428
:1000D0006C14721470147F147F147F1474147414CD
:1000E0006B3DC23DC53DF13D323E4F3E523E9D3ED1
:1000F0006D3E843EC23EC83EEE3EDA3E123F2B3F8E
:100100004F3F623F25404340D640054105412540D1
:100110004340D64005410541F341F641F641754261
:1001200078429642BB42E64204430A432C4395433D
:10013000D043D043D043D0439543D043D043D04362
:10014000D043515825582558665866582D582D5873
:100150006A586A586A586A586A586A586A586A588F
:100160004F58515851585458575859585B585B5824
:100170005B5868585D5863586A582C582C586A5810
:100180006A586A586A586A586A586A5863584F5881
:1001900051585158545859580000FFFFFFFFFF6F46
:1001A000FFFFFF070007FF1830180C06087F7F7F4E
:1001B0000823130864623649552250FF0503FFFFE8
:1001C000FF1C2241FFFF41221CFF14083E081408B7
:1001D000083E0808FF5030FFFF00080808FFFFFF37
:1001E00040FFFF20100804023E41413EFF00427FD5
:1001F00040FF62514946FF41494936FF1814127FBA
:10020000FF27454539FF3E494932FF01790503FF84
:1002100036494936FF0649291EFFFF3636FFFFFFE4
:100220005636FFFFFF0814224114141414144122FF
:100230001408FF020151090606090906FF7E090993
:10024000097E7F494949363E414141227F41412251
:100250001C7F494949417F090909013E4149497AC1
:100260007F0808087FFF417F41FF2040413F017F19
:10027000081422417F404040FF7F020C027F7F0430
:1002800008107F3E4141413E7F090909063E415128
:10029000215E7F09192946264949493201017F011A
:1002A000013F4040403F1F2040201F3F4030403F23
:1002B000631408146307087008076151494543FF38
:1002C0007F4141FF0204081020FF41417FFF605839
:1002D00046586040404040FFFF010204FF20545454
:1002E00054787F484444383844444420384444488F
:1002F0007F3854545418087E0901020C5252523E61
:100300007F08040478FF447D40FF2040443DFF7F88
:10031000102844FFFF417F40FF7C041804787C08CC
:1003200004047838444444387C1414140808141421
:10033000187C7C080404084854545420043F44406A
:10034000203C4040207C1C2040201C3C4020403C65
:1003500044281028440C5050503C4464544C4410E1
:10036000081008FFFFFF7FFFFF41225428FF080805
:10037000221C08081C2208083854565518385556AF
:1003800054182055565478FF4A7942FF1CA2622225
:100390001000000000000000000000FFFFFFFFFF52
:1003A000FFFFFFFFFFFFFFFFFF00660076003E003C
:1003B0001EFFFFFFFFFFFFFFFF8001800180018024
:1003C000018001800180018001FFFFFFFFFFFFFF2F
:1003D000FF0030007800780030FFFFFFFFFFFFFFD5
:1003E000FF0060006000600060006000600060006E
:1003F00060FFFFFFFFFFFFF81FFC3F0E7006600667
:10040000600E70FC3FF81FFFFFFFFF000018601C2C
:1004100060FE7FFE7F006000600000FFFFFFFF18AE
:10042000781C7C0E6E06678663CE61FC607860FF88
:10043000FFFFFF06600660866186618661CE73FC01
:100440003F781EFFFFFFFF8007C007E006700638F9
:10045000061C06FE7FFE7FFFFFFFFF7E187E3866CC
:100460007066606660E670C63F861FFFFFFFFFF89C
:100470001FFC3F8E71866186618E731C3F181EFFC4
:10048000FFFFFF06000600867FC67FE60076003E7F
:10049000001E00FFFFFFFF781EFC3FCE73866186C3
:1004A00061CE73FC3F781EFFFFFFFF7800FC00CE9B
:1004B0006186718639CE1DFC0FF807FFFFFFFF0034
:1004C00000300C781E781E300CFFFFFFFFFFFFFF8F
:1004D000FFE07FF07FB8019C018E018E019C01B886
:1004E00001F07FE07FFE7FFE7F8661866186618608
:1004F000618661CE73FC3F781EF81FFC3F0E7006CC
:10050000600660066006600E701C381818FE7FFEDC
:100510007F0660066006600E701C38381CF00FE025
:1005200007FE7FFE7F8661866186618661866186C1
:100530006106600660FE7FFE7F8601860186018679
:10054000018601860106000600F81FFC3F0E7006BA
:10055000608661866186618E719C7F983FFE7FFE1A
:100560007F800180018001800180018001FE7FFE8B
:100570007FFFFFFFFF06600660FE7FFE7F066006CE
:1005800060FFFFFFFF001800380070006006600683
:1005900070FE3FFE1F06000600FE7FFE7F8001C04A
:1005A00003E007700E381C1C380E700660FE7FFEDC
:1005B0007F0060006000600060006000600060001C
:1005C00060FE7FFE7F1C003800F001F00138001C47
:1005D00000FE7FFE7FFE7FFE7F7000E000C0018096
:1005E000030007000EFE7FFE7FF81FFC3F0E700623
:1005F000600660066006600E70FC3FF81FFE7FFE1E
:100600007F86018601860186018601CE01FC007885
:1006100000F81FFC3F0E7006600666066E063C0E74
:1006200038FC7FF867FE7FFE7F860186018607869D
:100630000F861DCE39FC7078607818FC38CE718634
:10064000618661866186618E731C3F181E060006F6
:100650000006000600FE7FFE7F060006000600067C
:1006600000FE1FFE3F007000600060006000600040
:1006700070FE3FFE1FFE07FE0F001C0038007000DA
:10068000700038001CFE0FFE07FE1FFE3F007000CA
:1006900070003E003E00700070FE3FFE1F1E783E60
:1006A0007C700EE007C003C003E007700E3E7C1EA6
:1006B000787E00FE00C0018003007F007F8003C0C1
:1006C00001FE007E000678067C066E06678663C61D
:1006D00061E66076603E601E600018003C607E60EF
:1006E00066606660666066E066C07F807FFE7FFE53
:1006F0007F8061C061E06060606060E070C03F80EA
:100700001F801FC03FE0706060606060606060607C
:100710007000380018801FC03FE07060606060E0CB
:1007200060C0618061FE7FFE7F801FC03FE0766019
:1007300066606660666066E066C00780078001806C
:1007400001F87FFC7F8E01860106000E001C001858
:1007500000E001F003386718661866186618661816
:1007600076F83FF81FFE7FFE7F8001C001E0006049
:10077000006000E000C07F807FFFFFFFFF606060DF
:1007800060E67FE67F00600060FFFFFFFFFFFF0085
:100790001800380070006060606070E63FE61FFF80
:1007A000FFFE7FFE7F0006000F801FC039E07060F3
:1007B00060FFFFFFFFFFFFFFFF06600660FE7FFE9A
:1007C0007F00600060FFFFFFFFE07FE07F6000E0F0
:1007D00000C007C007E000E000C07F807FE07FE04E
:1007E0007F8001C001E00060006000E000C07F8009
:1007F0007F801FC03FE0706060606060606060E0AC
:1008000070C03F801FE07FE07F600660066006608A
:10081000066006E007C00380018001C003E00760B6
:100820000660066006C0078007E07FE07FE07FE0AB
:100830007F8001C001E00060006000E000C0018036
:10084000018061C063E067606660666066606660E4
:100850007E003C001860006000F81FF83F60706088
:10086000600060007000380018E01FE03F0070007A
:10087000600060007000380018E07FE07FE007E073
:100880000F001C0038007000700038001CE00FE002
:1008900007E01FE03F007000700038003800700073
:1008A00070E03FE01F6060E070C039801F000F0003
:1008B0000F801FC039E0706060E001E00300670056
:1008C000660066006600660076E03FE01F606060DC
:1008D000706078607C606E6067E063E061E060603B
:1008E000604D6178206578706F73206174746569FC
:1008F0006E7421004D6178206D69786167657320A1
:1009000061747465696E7421005F2D2E2C000301E3
:100910000200040506071B1E272D36394B4E636C5B
:100920007278878D939CB1B4C6C9D2D8E1E4010135
:10093000020A3C01010414500101081E6402020F66
:10094000287805051E32960004464F4E4354494F01
:100950004E5320535045432E00032D3D312B3D3146
:100960000000020202020045434F4C41474500454A
:100970006C817665004D6F6465062520536F757236
:100980006365004D756C7469706C696575720043C0
:10099000616C00454550524F4D20706C65696E6525
:1009A0002100494E5445525300546F7563686520C9
:1009B000706F75722069676E6F7265720047415A79
:1009C0000047617A207061732082207A80726F0004
:1009D000546F7563686520706F757220636F6E74F5
:1009E000696E756572001B20FC0404040404048411
:1009F000C48404E4F4E40484C4C4040404040404C7
:100A00000404FCFF000000FCFE00FFFFFF80FFFF6E
:100A1000FF80FFFFFF0000008080800000FFFF00DC
:100A20000000FFFFFFFFFFFFFFFFFFFFFFFFFFFFD4
:100A3000F8FCFF3F0F030000FF3F20202021272765
:100A40002F2F2F2B272F2F2F2F2F2F272320202003
:100A50002020203F414C455254450054783A0052E2
:100A6000783A00448070617373656D656E742045DB
:100A70004550524F4D004163633A00525353492051
:100A80004D696E2E00000002000002000000000010
:100A90000000000005060102434F4E462E204D4F38
:100AA00044454C450001426970206D696E2E00017D
:100AB0004269702066696E004368726F6E6F200035
:100AC0004C696D697465732080742E005472696D71
:100AD000732080742E00506173205472696D004938
:100AE0006E762E2067617A00536F757263652047BA
:100AF000617A005472696D2067617A00416C657299
:100B000074652067617A00416C6572746520696E56
:100B10007400426970732063656E74720054726170
:100B20006D652050504D006D73004E6F6D000000DC
:100B30000000526174696F004578706F004E2F4459
:100B400000436F7572626500436F7480000000009F
:100B500001010000494E5345524552204D4958412C
:100B6000474500454449544552204D495841474561
:100B7000005472696D0044526578004469666600ED
:100B8000416C65727465004F4646004F708072611B
:100B900074696F6E00526574617264206861757467
:100BA00000526574617264206261730052616C6509
:100BB0006E746920686175740052616C656E746949
:100BC000206261730001536F75726365000150729A
:100BD0006F746F2E0001448063616C616765001261
:100BE0000800103810101038100000104400920057
:100BF0004410000000000044FE44000000104400C7
:100C000092004410000010440092004410000000C4
:100C100044FE440000000000104400920044100014
:100C2000001038101010381000034F46464F4E0089
:100C3000032D2D2D494E56040134434801364348B7
:100C40000138434831304348313243483134434816
:100C50003136434805417563756E416C61726D4E66
:100C60006F4B6579546F757400034F4646202B3DDA
:100C7000203A3D03434831434832434833434834E4
:100C8000064578706F0020457846696E0046696EAB
:100C90000020204D6F79656E0047726F7300200150
:100CA000445047413132330650504D0020205050BF
:100CB0004D31360050504D73696D03504F534E45C2
:100CC00047044F46460042746E734374726C546F0F
:100CD00075734F4E00032D2D2D783E30783C307CBF
:100CE000787C663E30663C307C667C08416A6F7575
:100CF000746500204D756C7469706C2E52656D7052
:100D00006C616365022B3D2A3D3A3D034F46464FD9
:100D10004E0044697250726647617A41696C052DD4
:100D20002D2D0020617B780020613E780020613C01
:100D30007800207C617C3E787C617C3C7845540066
:100D400020204F550020204F55580020613D620063
:100D500020613E620020613C6200205E7D780020C0
:100D60007C5E7C7D7854656D700042697374000D03
:100D700052656D706C2E0020202020202045636F6E
:100D80006C6167650020202020205472696D206905
:100D90006E7374616E742E52656D69736520822066
:100DA00030002020416A7573746572002020202075
:100DB00020426970002020202020202020205B4A33
:100DC0006F75657220666963682E5D5B4A6F756535
:100DD00072206C657320325D5B4C697265207661B0
:100DE0006C6575725D566172696F0020202020204D
:100DF00020205B566962726575725D00202020526A
:100E00008074726F80636C2E00202020044368720F
:100E10003143687232546F757454806C6D04427043
:100E20003100427032004270330057726E31577297
:100E30006E3243686565526174615469636B5369CE
:100E4000726E52696E6753636946526F627443688B
:100E50007270546164614372636B416C726D042DF6
:100E60002D2D0042617474436872314368723254AC
:100E7000780020527800204131002041320020418A
:100E80006C740052706D00436172625431002054E2
:100E90003200205669740044697374416C7447458C
:100EA0006C656D56656C6D56666173436F75724304
:100EB0006E736D5075697341636358416363594143
:100EC00063635A436170005669745656697441648D
:100ED00045540041312D0041322D00416C742D41AB
:100EE0006C742B52706D2B54312B0054322B0056E6
:100EF00069742B4473742B5669412B456C6D2D45D9
:100F00006C732D5666732D4375722B5075692B418A
:100F1000636300546D7073035600204100206D2FF1
:100F2000732D00206B6D686D00204000202500208F
:100F30006D41006D4168570020042D2D2D2D4A6113
:100F4000756E4F72616E526F7567013C3E07417559
:100F500063756E2020487562002020205753484852
:100F600069676804444D53004E4D4541032D2D2DB6
:100F700041310041320046415343656C05416C7478
:100F80006900416C74692B566172696F41310020B0
:100F9000204132000456616C2E42617273054D652A
:100FA0006E75004578697400426173002048617570
:100FB000740044726F69744761756368032D2D2D49
:100FC00049443049443149443254485252554445C9
:100FD0004C4541494C47454154524E744467744412
:100FE00064745062745068744762744768744167EF
:100FF0007441644C31004C32004C33004C34004C92
:1010000035004C36004C37004C38004C39004C3120
:10101000304C31314C31324F4E00556E042D2D2D58
:1010200000446972005072660047617A0041696C41
:10103000005031002050320020503300204D4158E4
:10104000005B43315D5B43325D5B43335D54726DE6
:101050004454726D5054726D4754726D4133504F09
:1010600053034F46464F4E00475A73475A25475A37
:1010700074000001FF000000FF00000000FF0000FE
:10108000000000FF01434F4E46494720524144496A
:101090004F00506C616765206261747465726965A8
:1010A00000536F6E00014D6F6465000144757280DE
:1010B0006500436F6E74726173746500416C617298
:1010C0006D65730001426174746572696500014D5C
:1010D000806D6F69726520706C65696E6500015383
:1010E000696C656E63650001496E61637469766958
:1010F000748000528074726F80636C616972616782
:10110000650001416C61726D650001447572806516
:10111000004C6F676F2064276163637565696C00BD
:101120004F7264726520766F6965732052580000B3
:10113000FF01000202FF01000202FF0101FF0000A7
:101140000000FF000100020202020002020202543B
:10115000454C454D455355524500410001506C6189
:101160006765005253534900446F6E6E806573008B
:101170000150616C6573000154656E73696F6E0098
:1011800001436F7572616E7400566172696F000180
:101190004C696D69746500456372616E2000004999
:1011A0006E746572002B3DC21DE55AF75A6E5B29BD
:1011B0005243414C4942524154494F4E00065B4D07
:1011C000454E555D20504F555220444542555400E0
:1011D000085245474C4552204E4555545245530000
:1011E000065B4D454E555D205155414E44205052B1
:1011F00045540004424F5547455220535449434BF0
:10120000532F504F545300434F5552424500015401
:101210007970650070742700707400783D00793D26
:101220000005030706060D05055354415453001FDE
:10123000665345531E544D311F66544D321E47416F
:101240005A1F66475A2500444542554700546D725F
:10125000314C6174206D61781F54757300546D7248
:10126000314C6174206D696E1F54757300546D723A
:1012700031204A69747465721F54757300546D6926
:1012800078206D61781F546D730046726565205338
:101290007461636B1F5462005B4D454E555D207059
:1012A0006F7572207265736574004E4F204441540F
:1012B00041005452004348004D4F44454C450043C3
:1012C000420056470044522F4558504F002F3134AA
:1012D000002F3332004D495845555200434F555267
:1012E0004245530056455253494F4E0046571F1B27
:1012F0003A206F70656E74782D39781E56455253BA
:101300001F1B3A20322E312E381E444154451F1BDC
:101310003A20323031362D30382D31371E54494D78
:10132000451F1B3A2032323A33383A33301E454596
:1013300050521F1B3A203231362D3300494E54454E
:101340005253005472696D2D202B00414E415300C1
:10135000410042473A0043616C69622E2042617449
:1013600074657269650045632935306B346B2B6891
:10137000535AB5666A1BBC3F5355505052494D45B0
:1013800052204D4F44454C4500436F7069652E2EE9
:101390002E004480706C6163656D656E742E2E2E18
:1013A0000064697370004D4F44454C4553004368D9
:1013B000617267656D656E742E2E2E004545505224
:1013C0004F4D00000102030002010303010200036C
:1013D000020100E2AEA1A6A4A2C02F258122AF4542
:1013E0004550524F4D20636F72726F6D707565007E
:1013F000466F726D617461676520454550524F4D6F
:1014000000535053008040FFFFFFFFFFFFFFFFFF2F
:10141000FFFFFFFFFFFFFFFFFFFFFFFFFFFFFFFFDC
:10142000FFFFFFFFFFFFFFFFFFFFFFFFFFFFFFFFCC
:10143000FFFFFFFFFFFFFFFFFFFFFFFFFFFFFFFFBC
:10144000FFFFFFFFFFFFFFFFFFFFFFFFFFFFFFFFAC
:10145000FFFFFFFFFFFFFFFFFFFFFFFFFFFFFFFF9C
:10146000FFFFFFFFFFFFFFFFFFFFFFFFFFFFFFFF8C
:10147000FFFFFFFFFFFFFFFFFFFFFFFFFFFFFFFF7C
:10148000FFFFFFFFFFFFFFFFFFFFFFFFFFFFFFFF6C
:10149000FFFFFFFFFFFFFFFFFFFFFFFFFFFFFFFF5C
:1014A000FFFFFFFFFFFFFFFFFFFFFFFFFFFFFFFF4C
:1014B000FFFFFFFFFFFFFFFFFFFFFFFFFFFFFFFF3C
:1014C000FFFFFFFFFFFFFFFFFFFFFFFFFFFFFFFF2C
:1014D000FFFFFFFFFFFFFFFFFFFFFFFFFFFFFFFF1C
:1014E000FFFFFFFFFFFFFFFFFFFFFFFFFFFFFFFF0C
:1014F000FFFFFFFFFFFFFFFFFFFFFFFFFFFFFFFFFC
:10150000FFFFFFFFFFFFFFFFFFFFFFFFFFFFFFFFEB
:10151000FFFFFFFFFFFFFFFFFFFFFFFFFFFFFFFFDB
:10152000FFFFFFFFFFFFFFFFFFFFFFFFFFFFFFFFCB
:10153000FFFFFFFFFFFFFFFFFFFFFFFFFFFFFFFFBB
:10154000FFFFFFFFFFFFFFFFFFFFFFFFFFFFFFFFAB
:10155000FFFFFFFFFF070707070707070707070743
:101560000707070707070707FFFFE7C7070707077B
:1015700007071F7FFFFFFF3F0F070707070787E7E3
:10158000F7FFFFFFFFFFFFFFFFFFFFFFFF1F070347
:1015900003C1F1F8F8F8F8F0F1C10303071FFFFFEA
:1015A000FF00000000F8F8F87000010307FFFF00DB
:1015B000000000383838383838FFFF00000000815C
:1015C000030F1F3FFFFF00000000FFFFFF000103AC
:1015D000070F1F3F7FFEFEFEFEFEFE000000000024
:1015E0000000FEFEFEFEFEFEFFFFFFFFFFFEF8F026
:1015F000C08000000103000000C0E0F8FCFFFFFF16
:10160000FFFFFFFFFFFFFFFFFFFFFFFFFFF8E0C04F
:10161000C0838F1F1F1F1F1F8F83C0C0E0F8FFFFF5
:10162000FF00000000F8F8F8F8F8FCFCFFFFFF00EE
:101630000000001E1E1E1E1E1EFFFF00000000FFF9
:10164000FFFCF8F0C08100000000FFFFFF000080F9
:10165000C0E0F0F8FCFEFFFFFFFFFF00000000000D
:101660000000FFFFFFFFFFFFFFFFFFFF7F1F0F03D4
:1016700001000080E0F0C000000003071F3FFFFFF3
:10168000FFFFFFFFFFFFFFFFFFFFFFFFFFE7E7E7B2
:10169000E7E7E7E7E7E7E7E7E7E7E7E7E7E7E7E7DA
:1016A000E7E7E7E7E7E7E7E7E7E7E7E7E7E7E7E7CA
:1016B000E7E7E7E7E7E7E7E7E7E7E7E7E7E7E7E7BA
:1016C000E7E7E7E7E7E7E7E7E7E7FFFFFFFEFFFF1B
:1016D000FFFFFFFFFFFFFFFFFFFFFFE0E0E0E0E0B5
:1016E000E0E0FFFFFFFFFFFFEFE7E1E0E0E0E0E029
:1016F000F0F8FEFFFFFFFFFFFCF8E0E0E0E0E0E1D4
:10170000E7EFFFFFFFFFFFFFFFFFFFFFFFFFFFFF11
:10171000FFFFFFFFFFFFFFFFFFFFFFFFFFFFFFFFD9
:10172000FFFFFFFFFFFFFFFFFFFFFFFFFFFFFFFFC9
:10173000FFFFFFFFFFFFFFFFFFFFFFFFFFFFFFFFB9
:10174000FFFFFFFFFFFFFFFFFFFFFFFFFFFFFFFFA9
:10175000FFFFFFFFFFFFFFFFFFFFFFFFFFFFFFFF99
:10176000FFFFFFFFFFFFFFFFFFFFFFFFFFFFFFFF89
:10177000FFFFFFFFFFFFFFFFFFFFFFFFFFFFFFFF79
:10178000FFFFFFFFFFFFFFFFFFFFFFFFFFFFFFFF69
:10179000FFFFFFFFFFFFFFFFFFFFFFFFFFFFFFFF59
:1017A000FFFFFFFFFFFFFFFFFFFFFFFFFFFFFFFF49
:1017B000FFFFFFFFFFFFFFFFFFFFFFFFFFFFFFFF39
:1017C000FFFFFFFFFFFFFFFFFFFFFFFFFFFFFFFF29
:1017D000FFFFFFFFFFFFFFFFFFFFFFFFFFFFFFFF19
:1017E000FFFFFFFFFFFFFFFFFFFFFFFFFFFFFFFF09
:1017F000FFFFFFFFFFFFFFFFFFFFFFFFFFFFFFFFF9
:10180000FFFFFFFFFFFFFF53504500534F4E0041C6
:101810006C61726D65732044807361637469768056
:101820006573005B4D454E555D085B455849545DF9
:10183000000003494E54455253204C4F472E0000A0
:101840000303030303030303030303030303030368
:10185000004C494D4954455300055472696D73203D
:101860003D3E205375627472696D7300496E7665F2
:10187000727365722047617A3F0011241FBECFEF5B
:10188000D0E1DEBFCDBF11E0A0E0B1E0E2E4F2EED6
:1018900002C005900D92AA32B107D9F71DE0AAE265
:1018A000B1E001C01D92A436B107E1F70E94386B88
:1018B0000C941F710C940000865595404BEA5AEA2F
:1018C000849F9001859F300D949F300D1124C90194
:1018D0000895EDE7F0E080818F7D8083179AAAE874
:1018E000B0E01C9210928B008AE08C93808188611A
:1018F000808308959C0145E0359527954A95E1F749
:10190000280F391FAC01440F452F441F550B241BD2
:10191000350B892F990F990B8595280F391FC90110
:10192000089549E2489F9001499F300D1124359553
:10193000279535952795492F441F4427441F50E08C
:10194000841B950BF6E095958795FA95E1F7281B92
:10195000390B241B350BC9010895992787FD9095F4
:101960000C94910C9C01220F331F492F441F4427D4
:10197000441F50E0841B950BBC0175956795260F9D
:10198000371F240F351F64E0959587956A95E1F719
:10199000280F391F240F351FC9010895992787FD86
:1019A00090950C94B20CCF92DF92EF92FF92CF936E
:1019B000DF93EC01862F0E94CE0CFC019E01DE011C
:1019C0000E943F709B01AC01DF010E945270272FE3
:1019D000382F492F5527DE010E9452706B017C0180
:1019E000CCE0F694E794D794C794CA95D1F720E059
:1019F00031E02E1B3F0B0E943F7060587F4F8F4F8E
:101A00009F4F6C0D7D1D8E1D9F1D472F582F692FD9
:101A10007727CA01DF91CF91FF90EF90DF90CF90B1
:101A200008958F718E3050F490E0FC01EE0FFF1F8F
:101A3000E80FF91FEA5AFA4F83E682830895CF939D
:101A4000DF93EC0180E00E94110DE0919D0CE1110B
:101A50000EC08DE3CB32D80719F481E08093990C46
:101A600083E6C534D80751F41092990C07C0AE2F05
:101A7000B0E0A756B34F8091980C8C93EF5FE09342
:101A80009D0CF0E0EE0FFF1FEF5EF24FD183C0839D
:101A90008FEB80939E0CDF91CF9108958F718E30E4
:101AA00058F490E0FC01EE0FFF1FE80FF91FEA5A0F
:101AB000FA4F82E68283118208951F93CF93DF93BA
:101AC000EC011881110F61111160188389818F5FFA
:101AD00089838A81882361F011110AC0833631F02D
:101AE000CE010E945C0C80628093BE0819821A822B
:101AF0008A81883091F148F48130B9F190F08230D8
:101B000061F1843009F047C028C08F35D1F020F44E
:101B1000803109F040C021C0813639F08236D9F5D4
:101B200034C01F30C1F581E634C0CE010E945C0C88
:101B300080668093BE081092C5051092C4058FE59B
:101B400028C08981803229F4CE010E945C0C806813
:101B500019C0883201F580E11CC09981903328F0CA
:101B600090E0959587958A8319828A8190E0019704
:101B7000298130E082239323892B69F4CE010E94CE
:101B80005C0C80648093BE0806C08981803418F0A4
:101B900088E08A831982DF91CF911F910895282FC1
:101BA00030E82303F0011124E25DFE4F80E09081D4
:101BB000909591938F5F8038D1F7089587FD53C03A
:101BC00047FF02C0640F419567FF02C0460F60E007
:101BD000A42FBB27A7FDB095A60FB11D67FDBA9531
:101BE000A134B10514F040E4461B253511F460FF23
:101BF0002AEA362F359535953595E82FF0E050E8EF
:101C00003503E00DF11D1124E25DFE4F6770B9F060
:101C100081E090E0062E01C0880F0A94EAF78195D2
:101C20008223908189278083E058FF4F6850460FB8
:101C300006C0808182278083E058FF4F48501416E9
:101C4000C4F3442381F0485F71F0E058F10981E06A
:101C500090E0042E01C0880F0A94EAF78195822350
:101C600090818927808308952FEF0C94DE0DFC016D
:101C7000808141FF02C0682B06C042FF03C060950F
:101C8000682301C0682760830895EF92FF920F9345
:101C90001F93CF93DF93122F603470F5C82FD0E0DD
:101CA000FE01E40FF11DE138F10514F040E8481B96
:101CB000862F86958695869590E8899FC00DD11DC3
:101CC0001124677081E090E0E82E01C0EE0C6A9567
:101CD000EAF7C25DDE4FFC2EF40E0CC010FF08C008
:101CE000402F6E2DCE010E94370E1695106801C050
:101CF00016952196FC12F2CFDF91CF911F910F9193
:101D0000FF90EF900895DF92EF92FF920F931F9351
:101D1000CF93DF93C82F162FD42FD22EF02E202F43
:101D20004D2D0E94DE0D8C2F8150202F4D2D612FC7
:101D30008D0F0E94DE0DE3FC02C0CF5FD250612FF9
:101D400061506D0D00E02F2D4D2F8C2F0E94450E00
:101D50002F2D4D2F612F8C2F0E94450EDF91CF919B
:101D60001F910F91FF90EF90DF9008950F93022F36
:101D70002FEF0E94450E0F9108958F929F92AF9280
:101D8000BF92CF92DF92EF92FF920F931F93CF9368
:101D9000DF93982EF62E842E102FC0E0D0E0C62EB2
:101DA000DD24C7FCD0945601A20EB11C10C06C2FCC
:101DB0006F0D0E2D212F482D892D0E94450E812F4C
:101DC000869590E8199F800D1124182F2196FE0109
:101DD000EC0DFD1DEA15FB0554F3DF91CF911F912A
:101DE0000F91FF90EF90DF90CF90BF90AF909F90BA
:101DF0008F9008955F926F927F928F929F92AF9291
:101E0000BF92CF92DF92EF92FF920F931F93CF93E7
:101E1000DF93C62FC695C695C695D0E0DE01B69570
:101E2000BA2FAA27B795A795A80FB11D982F915043
:101E300090930307A35DBE4F20FF07C03091C10BF5
:101E400036FF07C021FD07C0DEC021FB332730F974
:101E500003C030E001C031E022FF48C0242F2C52E3
:101E60002F3010F44B5211C0242F21542A3110F47A
:101E700041530BC0242F21562A3110F4475305C07B
:101E80004F3511F040E001C044E024E1429FA00141
:101E900011244F565C4F60E0611107C0882311F098
:101EA00031110CC09F5F11961DC06B3039F0FA01E3
:101EB000249131964E5F5F4FE49102C0E0E020E054
:101EC0007E2F72237F3F71F0332311F02095E09530
:101ED000ED01C058DF4FF5E0CE32DF0718F42D9347
:101EE000E8839F5F6F5F6C30B9F68BC007E0B02E60
:101EF000B622311102C060E001C06FEF75E0479F6C
:101F0000A001112448505F4FD695DC2FCC27D795E0
:101F1000C795C255DE4FEB2CF12CEFEFF0E0AE2E63
:101F20000B2C01C0AA0C0A94EAF77A2C709470E08A
:101F3000E8E09E2E9222F0E48F2E822208E010E04C
:101F40000E191F0910E1512E5222711107C088236A
:101F500011F0311112C09F5F11964FC0763049F0D9
:101F6000FA014F5F5F4FE491EF3F21F4552009F4F0
:101F700044C0E0E0332319F001C0E0E0E09599208F
:101F800011F07230D1F1882041F0FE2F332311F08F
:101F9000F62301C0F62B6E2FEF2FF5E0AE32BF0710
:101FA00050F5AC17BD0738F5CE2ED12CF6010E2C0E
:101FB00001C0EE0F0A94EAF76C9067206E2A6C92CB
:101FC000BB20C9F0FD01E058FF4F25E0EE32F207DB
:101FD00050F4002E02C0D594C7940A94E2F7D08042
:101FE000DA20DC28D082332331F0E1E0BE1203C0D6
:101FF000E62DE160EC9311969F5F7F5F773009F0EB
:10200000A4CF90930307DF91CF911F910F91FF9081
:10201000EF90DF90CF90BF90AF909F908F907F9088
:102020006F905F90089520E00C94FA0EEF920F935A
:102030001F93CF93DF93C82FD62F122F442321F065
:1020400043E28F5F0E941310E12C0FEF27E047E07F
:102050006D2F8C2F112319F00E94BD0E02C00E941B
:10206000830EDF91CF911F910F91EF900895E09132
:102070009D0CF0E0EE0FFF1FEF5EF24F9183808327
:102080008FEB80939E0C0895EDE9FCE080818150F8
:1020900080838EEB80939E0C0895282F2F7130E063
:1020A000245031092230310518F48093BE08089578
:1020B0001092970C0895882371F0E82FF0E0E35810
:1020C000F54F2081332727FD309595E0899F200D1E
:1020D000311D112402C020E030E02A57354FC901DC
:1020E00008951F93CF93DF93182F0E945B10EC018C
:1020F000812F8F5F0E945B108C1B9D0B80FD04C0A5
:1021000086958F5F91E001C090E0BE01DF91CF9195
:102110001F9108957F928F929F92AF92BF92CF921C
:10212000DF92EF92FF920F931F93CF93DF937C0187
:10213000862F0E947110EB012CEFF21A1E141F045F
:102140000CF009C0882E912CE11488E0F80654F0B8
:10215000C80DD91D21978881992787FD9095982FC3
:10216000882763C0911117C029C08A159B0551F0BB
:10217000FE01E80FF91FE80DF91D80810E94AD0CEA
:102180009C5F02C080E098E08E159F0558F573941F
:10219000A8018C010DC0712C00E010E040E050E07F
:1021A000640121E0C21AD108540182E0A81AB108E2
:1021B000872D90E08C159D05C4F216C0B4016150C6
:1021C000710980E098E00E94E7708B01C7010E94CE
:1021D000FB70762E609FA001619F500D1124040FAB
:1021E000151F02C0A8018C01FE01E70DF11DC08181
:1021F000DD27C7FDD0959701241B350BA181BB2797
:10220000A7FDB095AC1BBD0B0E944B70982F872F7C
:10221000762F66279801241B350B40E050E00E9482
:1022200081709C2F8827820F931F69E170E00E94C4
:10223000E770CB01DF91CF911F910F91FF90EF904D
:10224000DF90CF90BF90AF909F908F907F90089538
:102250009C016330A1F034F4613051F064F46623E2
:1022600091F120C06530A9F084F06630D9F416C031
:1022700097FF29C010C0181619062CF50CC097FF3F
:1022800022C03195219531091EC018161906B4F0E7
:1022900002C097FD16C020E030E015C018161906E0
:1022A00084F40CC067FF06C031952195310986E0A2
:1022B000861B682F6750C9010C948A1020E034E017
:1022C00002C020E03CEFC90108956091BD060C9466
:1022D0008A100F931F93CF93DF93C82F8091BD0671
:1022E0000E947110482F092FFB01C817D0F52C2F21
:1022F00030E0C90165E0880F991F6A95E1F7642F06
:10230000669570E00E94E770D62FD35CE20FF31F52
:10231000A0818FE3A802D0011124CD018456974EED
:1023200068E37FEF0E94E770162F115C0023D9F05D
:10233000CC23C9F050E0DA0111972A173B079CF42F
:10234000E40FF51F3197808120E48202C00111243F
:102350008C59964E68EC70E00E94E770D62FD35CE3
:1023600002C010E0D0E08D2F912FDF91CF911F910F
:102370000F91089583393CF4282F332727FD30959A
:102380002F573F4F0FC087303CF495E089029001F2
:1023900011242B5C3D4F06C09AE089029001112464
:1023A0002E5E3D4FC9010895863040F0893040F0DF
:1023B0008C3040F08E3040F08A50089580E00895CF
:1023C00081E0089582E0089583E0089590E09C0103
:1023D000220F331F280F391F2251354FC90108958D
:1023E0008F929F92BF92CF92DF92EF92FF920F93C4
:1023F0001F93CF93DF93C82E8091D30885FF03C02E
:10240000C0E0D5E002C0C0E0D4E0CC2039F021E04B
:10241000E4E2F8E0C21204C080E103C0ECEDF7E0B2
:1024200088E0D090D208D594D594D594D594DD0C7D
:10243000D80E4091D40884E64802A0011124485ADD
:102440005D4F08EC1FEA041B150BA091860BBB2700
:10245000A7FDB09528EE33E00E944B70600F711F0E
:10246000811D911DA1E0CA1204C0B8EFBB2EBD0CA6
:102470002BC0B12C29C02B2D30E0220F331F23524B
:10248000394FD901ED90FC90E814F90424F0EC16D2
:10249000FD061CF403C0740101C07E01B8E4EB1A10
:1024A000B4EFFB0A8701222717FD2095322F601B0E
:1024B000710B820B930B51834083E41AF50AF3826C
:1024C000E2823496B39404C0882499248C1A9D0A1D
:1024D000BD1488F2518340836115710521E08207A4
:1024E00091053CF46832A3E27A078105910534F046
:1024F00009C06FEF7FEF80E090E004C068E273E214
:1025000080E090E0DF011496C1100BC0685E73405C
:10251000738362838CED97E09093030180930201B3
:1025200009C073836283CB01885E934090936D08EA
:1025300080936C081D921C92DF91CF911F910F9197
:10254000FF90EF90DF90CF90BF909F908F90089575
:10255000882309F187FF06C0863E1CF0E0E6E81BF1
:102560001BC081958B311CF4E82FE05C15C08532CF
:102570001CF4E82FEB5E10C0893244F4E82FFF27EB
:10258000E7FDF095EC51F74FE49106C08C321CF456
:10259000E82FE95A01C0E0E28E2F0895AF92BF9272
:1025A000CF92DF92EF92FF920F931F93CF93DF931F
:1025B0001F92CDB7DEB7E82EF62ED22E5A01182F75
:1025C000C12CD40E802F807A898337C0E981E03214
:1025D00019F0E03851F403C0F501408108C0F5015D
:1025E00080810E94A812482F02C0F5014491C110B9
:1025F0001CC0442321F1403240F0202F6F2D812F49
:102600000E94FA0E1091030715C04F3189F04E3128
:1026100039F4F8E0FF0E8FE31E2D8F1580F00AC00D
:10262000842F880F840F180F05C0142FC12C02C0EF
:10263000CC24C394EFEFAE1ABE0ADA10C7CF1093C2
:10264000BC06109303070F90DF91CF911F910F915C
:10265000FF90EF90DF90CF90BF90AF9008950F93D1
:10266000022F2FEF0E94CE120F91089522E0AC01AD
:1026700060E080E00C942F1320E00C942F13EF9275
:102680000F9304E0E02E0FEF28E24CE660E18AE0D1
:102690000E94BD0EE12C28E24CE660E18AE00E9437
:1026A000830E40919F0C5091A00C68E180E10F9146
:1026B000EF900C943C13AB01682F80E00C943C131A
:1026C0000F93FA0194910F754F5F5F4F929F400DEA
:1026D000511D1124292F0E94CE120F9108950F939E
:1026E0001F93CF93DF93D82F162FC42F022F423E74
:1026F00021F420E049E25CE00AC047FF05C041E266
:1027000082500E94FA0EC1952C2F4CEB5FE0612F96
:102710008D2F0E946013DF91CF911F910F9108952B
:102720000F9347FD0AC045303CF4022F242F41E6A9
:1027300050E10E94601304C044500F910C946F1339
:102740000F9108952091BB0732B78091BB072813E2
:10275000F9CF922F80E0AC01432B9A01C901089573
:102760008091D208877090916207911184E09091D6
:102770000401981709F463C0809304011EBC1DBCBA
:102780001CBC97B7937C97BF90917D009E7F9093E0
:102790007D009CE396BF9FE390937C00813019F00D
:1027A000823081F51CC080E49CE99BBD8ABD87B75F
:1027B000806187BF1FBC8AE08EBD81E00E94F0115E
:1027C00080E593EC909387008093860088E893E1FE
:1027D00090938500809384000E94690C30C082E051
:1027E0000E94F01180E593EC90938700809386001F
:1027F00088E893E190938500809384000E94690C9F
:10280000C0981DC080917D00857E80937D001798C3
:102810001F9A10928A0010928B0082E880938A009F
:1028200080917D00806280937D0080EE9BEA9BBD5D
:102830008ABD87B7806187BF1FBC8AE08EBD80914B
:10284000D308829581708093DB070E94A2132091A8
:10285000860B38E02302800D911D1124885B9E4F6A
:1028600090930F0D80930E0D80E00C94F011E82FE3
:10287000F0E0E25FF64FE491F0E0EE0FFF1FE85565
:10288000F94F20813181C90108958091EB0C2AEF25
:10289000829FC0011124880F991F9093A7068093EF
:1028A000A606089590E0FC013297EA32F10538F56A
:1028B000EA5BFF4F0C949D7088E0689FB001112483
:1028C000645F71401DC082E3689FB001112418C08D
:1028D00070E06E51710914C070E0660F771F10C070
:1028E00084E1F2CF88E0F0CF85E0EECF84E6ECCF54
:1028F0008AE0689FB0011124625E744001C070E0FC
:10290000CB0108951F93CF93DF93EC018A818F70E1
:102910000E94D41169811881811108C06058812FEB
:102920008F53DF91CF911F910C9452141F53605815
:10293000812F0E945214EC0160E8812F0E945214F2
:102940009E01281B390BC901DF91CF911F9108957A
:102950008450863130F4E82FF0E0E45FFE4F808150
:1029600008958FEF08951F93481759071CF0861795
:102970009707D4F4413851050CF4805887FF03C001
:1029800080951FEF01C011E0E82FEE0FFF0BE65717
:10299000F44F208131811203C001139F900D112447
:1029A000861797070CF4CB019C01481759070CF4C4
:1029B0009A01C9011F910895E4EAFCE020E030E0AB
:1029C00081919191280F391F8CE0EC3BF807C1F7FA
:1029D000C901089595E0899F900111242A50364F2E
:1029E000C901089599E0899F900111242A52374F17
:1029F000C901089594E0899F900111242A5B354F05
:102A0000C90108951F93CF93DF93182F882311F0E6
:102A1000CDE001C0CFE1D0E08C2F112331F00E9436
:102A2000FA14FC019081937005C00E94F214FC011D
:102A300094819F739111DF5FC150C7FFEDCF8D2F40
:102A4000DF91CF911F910895CF93C82F0E94021557
:102A5000282F30E0C1110CC00FC081EE98E002C0F9
:102A600084EF98E09093A00C80939F0C81E008C0C5
:102A70002E30310594F703C0203231058CF780E009
:102A8000CF9108959DE0899F900111242B5B344FD5
:102A9000C9010895CF93C62F0E9442156C2F70E094
:102AA000FC01E60FF71F4081FC012481332727FD3D
:102AB0003095660F771F02C0359527956A95E2F726
:102AC00023703327F4E04F02200D311D1124C9017A
:102AD000CF9108951F93CF93DF93C82F162FD5E082
:102AE000CC2381F0612F8C2F0E944A15853F21E075
:102AF000920744F0855F8C1708F08F5FD150C82F84
:102B000079F7C0E08C2FDF91CF911F910895CF937B
:102B1000C62F0E946A156C2FCF910C944A15E09134
:102B2000EC0CF0E0EA5EF64FE491F0E024E030E0F7
:102B3000281B3109220F331F02C0F595E7952A950E
:102B4000E2F7E370FF278E2F8F5F08959091E60CD8
:102B500095FF05C0823018F024E12093A5069871F6
:102B6000983049F0911103C0811105C00895983142
:102B7000C1F48330B0F09091F00C9295990F907E53
:102B800095959595959595959595E82FF0E085E027
:102B90009802E00DF11D1124E85CF64FE491E093FA
:102BA000C00B08958091C00B811108C080917208FC
:102BB000811104C080917308882311F084E105C05D
:102BC00080912C01882321F0815080932C0106C034
:102BD000809163008695817080932D0180912D01F5
:102BE0000895633099F020F4613061F068F408C012
:102BF000653081F068F0663079F0673089F40EC096
:102C00008074089580780895887008958470089578
:102C1000807208958071089582700895817008957A
:102C200080E008958E30910554F4FC01EE0FFF1FF3
:102C3000E80FF91FEA5AFA4F81E0908149C08231CA
:102C4000910509F17CF48F30910539F124F48E302F
:102C50009105E1F51CC08031910541F1813191056B
:102C6000A9F52EC08431910559F03CF085319105CC
:102C700021F18631910551F526C091B1947027C09C
:102C800093B3907824C090916300917020C090918C
:102C9000630093FB992790F90DC08091630083FF37
:102CA00015C091B196FB992790F911C091B196FB8F
:102CB000992790F981E098270AC091B1907107C0D7
:102CC00093B3907404C091B1907201C090E081E020
:102CD000911101C080E008959F92AF92BF92CF9270
:102CE000DF92EF92FF920F931F93CF93DF93B82E53
:102CF000882309F498C1992787FD909597FF03C011
:102D0000919581959109282F8F3139F491E0809127
:102D1000C305882309F482C17EC18E3109F47DC1C7
:102D20008A3030F499270D960E941216982F76C19A
:102D30008231C8F42A50E091C008822F869564E061
:102D4000E69FF0011124E80FF11DED53FC4E649154
:102D5000217080B3660F620F80950E94F11591E09B
:102D600081115CC158C18251C82ED12CEE24E3944C
:102D7000F12C082E02C0EE0CFF1C0A94E2F7209101
:102D8000C1053091C2052E213F21232B59F02091FE
:102D90006007309161072E213F2191E0232B09F03C
:102DA0003DC139C12091C1053091C2052E293F296D
:102DB0003093C2052093C1050E94E611EC019A816F
:102DC000892F82958F708A3008F0885F9F7009F490
:102DD0002CC1882309F42FC10E946C1681112BC1CC
:102DE00024C1F601EE0FFF1FE85BF84F80E090E88A
:102DF0009183808304C188810E946C16182F898179
:102E00000E946C162A812F7030E02630310521F0A7
:102E100027303105A9F411C0112309F4F0C088232B
:102E200009F4EDC080916007909161078E299F2978
:102E30009093610780936007F0C0112381F3F2CF74
:102E40008127EDCF84E0A8120CC0F601EE0FFF1F22
:102E5000E85BF84F80819181181619060CF4CFC0F9
:102E6000E1CF95E0A91208C0F601EE0FFF1FE85B65
:102E7000F84F80818170D3CF88810E9434188C01F3
:102E800062E0A6121CC089810E9434182A812F702A
:102E900030E02930310521F02A30310559F405C0E0
:102EA0000817190709F0ABC0BDCF801791070CF4C4
:102EB000B9CFA5C0081719070CF4B4CFA0C09880EB
:102EC0008FE38915C8F480918D0C811104C092E4C0
:102ED000991508F494C0CE010E9482149C01A1109F
:102EE00017C0E92DE754ED3098F4F0E0E25DFA4FB9
:102EF0008981805880830CC06AE3691528F4298190
:102F0000332727FD309504C089810E94AD0C9C01B8
:102F10004A814F7050E04330510581F13CF441301B
:102F2000510559F04230510571F51EC0443051052C
:102F3000B1F04530510539F51CC0892D8B538530D2
:102F400028F40217130709F05AC06CCF021B130BA9
:102F5000015F1F4F0F31110508F464CF50C017FFF8
:102F600003C0119501951109201731070CF45ACFB0
:102F700046C017FF03C011950195110902171307E9
:102F80000CF450CF3CC0C601880F991FFC01E85BD0
:102F9000F84F408151814115504811F4118300834D
:102FA000FC01E85BF84F80819181A801481B590B17
:102FB0008A818F708C3091F481E037FD07C0421711
:102FC00053070CF480E057FF3FC011C024173507AA
:102FD0000CF480E01416150654F036C057FF03C0F9
:102FE00051954195510981E04217530744F0F6018C
:102FF000EE0FFF1FE85BF84F1183008310CF809125
:10300000600790916107E094F094E822F922F09231
:103010006107E092600790E001C091E01B14BCF0F2
:1030200081E0982714C091E012C08A818F708F30A0
:1030300009F0D7CEE4CF8A818F700E94D411A82ED8
:1030400081E0A812FFCED7CE8111D1CFD8CF892F62
:10305000DF91CF911F910F91FF90EF90DF90CF9074
:10306000BF90AF909F900895811103C020E030E0A1
:1030700038C1982F9150973038F4E82FF0E0EE0FD8
:10308000FF1FE454F94F52C0883009F41DC08C3042
:1030900068F3803168F4682F6C508091BF080E94FB
:1030A000871573E0880F991F7A95E1F70C947A0CD5
:1030B000803169F481E00E946C16811110C182E0B8
:1030C0000E946C168111D2CF20E034E00AC1873112
:1030D00010F48D5003C0833238F485500E946C1672
:1030E000882309F4FCC0F0CF8B32C0F4482F50E0A5
:1030F00043525109DA01AA0FBB1FA454B84F2D91B6
:103100003C91873208F07FC0FA01EE0FFF1FEB52AF
:10311000F34F80819181281B390B75C08B3348F4A4
:10312000E82FF0E0EE0FFF1FE55BFA4F20813181C1
:10313000D8C0803438F4E82FF0E0EE0FFF1FEC5ECB
:10314000F44FF4CF803419F42091960CBCC0833432
:1031500048F498E0899FF0011124EB53FB4F25813F
:103160003681BFC0833419F42091D20BACC08434B3
:1031700019F42091CE0BA7C0853419F42091C40B0B
:10318000A2C0863419F42091C90B9DC0873429F45C
:103190002091F60B3091F70BA4C0883429F42091CC
:1031A000DC0B3091DD0B9DC0893429F42091DE0BBE
:1031B0003091DF0B96C08A3429F42091DA0B3091DC
:1031C000DB0B8FC08B3429F42091E00B3091E10BA5
:1031D00088C08C3429F42091F80B3091F90B81C010
:1031E0008D3429F42091380C3091390C7AC08E340A
:1031F00029F42091D80B3091D90B73C08F3431F45E
:103200002091250C30E0220F331F6BC0803529F44C
:1032100020913E0C30913F0C64C0813529F42091FF
:10322000480C3091490C5DC0823529F42091260C60
:103230003091270C56C0833529F42091400C3091F1
:10324000410C4FC0843529F42091440C3091450C39
:1032500048C0853529F420911E0C30911F0C41C0C7
:10326000863529F42091200C3091210C3AC0873505
:1032700029F42091220C3091230C33C0883529F495
:103280002091FE0B3091FF0B2CC0893529F4209141
:10329000360C3091370C25C08A3529F42091460C24
:1032A0003091470C1EC08B3529F42091680C309169
:1032B000690C17C08C3519F42091C50B04C08D35ED
:1032C00021F42091CA0B30E00CC08B3608F0CECE32
:1032D000E82FF0E0EE0FFF1FEE56F44F27CF20E06F
:1032E0003CEFC9010895CF93DF93C82FD62FCA01B1
:1032F0000E941216882311F022E001C020E0482F1E
:10330000405D6D2F8C2FDF91CF910C94FA0EF894C5
:103310002091C10B3091C20B7894C9010895EF92AE
:10332000FF920F931F93CF93DF93C6E1D0E000E8A5
:1033300010E0BDE0EB2E8091A3068023FF24F394E0
:10334000811101C0F12CCE010E941216F816C9F0AD
:103350003C2F31512C2F2D50353018F0811103C0E6
:1033600006C0882311F0122F02C01E2D1C1B243012
:1033700018F4111101C011E08091A30680278093F9
:10338000A30606952197CE30D105A9F60E9487198C
:1033900020912A0130912B01821B930B0B9708F08F
:1033A00010E00E94871990932B0180932A01812FAE
:1033B000DF91CF911F910F91FF90EF900895EF92C1
:1033C0000F93CF93DF93D82F8091F70C811117C003
:1033D0008091000D811104C080910B0D882329F18B
:1033E00060910A0D8091010D9091020D70E00E9494
:1033F000FB70C7E0C61B19F0C73018F403C0C1E06A
:1034000001C0C7E084E0E82E0FEF28E045E060E06F
:103410008D2F8F5F0E94BD0E67E06C1BE12C2C2F5F
:1034200043E08D2F8E5F0E94BD0EDF91CF910F91F3
:10343000EF9008956F927F928F929F92AF92CF926A
:10344000DF92EF92FF920F931F93CF93C82FA62E78
:103450003A01922EF090980CD090970C011511051E
:1034600049F08E2DFE1408F48F2DF801E80FF11DA0
:10347000849001C0812C6114710409F44AC0F110D8
:103480002FC08091CC0681112BC0C43659F0C536AF
:1034900011F0EA2D13C0AA2011F0EA2D01C0E92D88
:1034A000E1500CC02A2D30E0892D90E001972817BB
:1034B00039071CF4EA2DEF5F01C0E0E0FF27E7FDCC
:1034C000F0958A2D90E0E817F90761F0EE0FFF1FE5
:1034D000E60DF71D25913491C9010E94371002C0F5
:1034E00040E001C042E01092CC06692D8A2D0E9476
:1034F00012572091BC062E508A2D90E0019666EF5F
:103500007FEF0E94E77084E0689F600D1124260F12
:1035100001C029E7822F0E94DF19C03659F188F4D3
:10352000C33409F485C030F4C132B1F1C23409F0BA
:103530009DC056C0C43409F443C0C53409F096C0D8
:103540006BC0C43609F43FC038F4C23609F44BC02E
:10355000C33609F08BC06EC0C138D9F0CF3B21F023
:10356000C53609F083C05AC08FEF8093B907D12CBC
:10357000F12C7CC06114710419F0FF2009F47DC0A6
:1035800081E09091B90719160CF480E08093B90797
:103590006DC01092B9070CC08091B90718161CF4C1
:1035A0001092B90763C0FF2019F06114710419F477
:1035B0000E9444105BC080E00E94A615D12C5DC023
:1035C000D81409F453C0012B09F450C08091B907F5
:1035D00018160CF44BC0D81408F045C0D39446C05C
:1035E000FC1409F443C08091B90718160CF43EC0CE
:1035F000FC1410F4F39401C0F12C0115110599F19C
:103600008F2DEF1408F48E2DF801E80FF11DE491D1
:10361000EF3F09F04FC0ECCFDD2041F1012B31F13C
:103620008091B907181614F1DD20D9F0DA941EC084
:10363000FF20E1F08091B9071816C4F0FF2011F0C7
:10364000FA9401C0FC2C0115110569F08F2DEF14BF
:1036500008F48E2DF801E80FF11DE491EF3F51F5CC
:10366000EDCFD82C03C0D12C01C0DE2E672811F07D
:1036700047E001C046E0F11004C01092B807F12CF9
:1036800014C05091B8072F2D30E0852F90E0840FA3
:10369000911D821793071CF48F2D841B04C05F15A6
:1036A00020F08F2D81508093B807F092980CD09223
:1036B000970C03C0DE16D0F2D8CFCF911F910F9197
:1036C000FF90EF90DF90CF90AF909F908F907F9082
:1036D0006F9008952F923F924F925F926F927F92D8
:1036E0008F929F92AF92BF92CF92DF92EF92FF9212
:1036F0000F931F93CF93DF9300D01F92CDB7DEB708
:10370000582E40E1C42EEE24E39407E419E029E0AA
:1037100046E653E167E00E941A1A89E499E00E94A4
:103720003613A090980CAA9459E0752E212CBB2436
:10373000A7FCB0948091B807820D93E0899F900117
:1037400011242E5E344F3B832A83F9019081929598
:103750009695969593706180F3E06F22660C660CE7
:10376000692A882E912CCC24C394D12C02C0CC0C75
:10377000DD1C8A95E2F7412CA814B90451F480911C
:10378000970C841106C08091B90718162CF012E02E
:1037900001C010E0312C03C013E03324339422E045
:1037A000421609F485C0241520F031E0431209C007
:1037B00036C083E0481609F4D1C094E0491609F4F4
:1037C00068C180916B0C90916C0C8C219D21892B90
:1037D00011F020E401C020E0212BEA81FB8140812F
:1037E000440F440F45954595672D83E00E946F1364
:1037F000332009F4A6C1EA81FB816081660F660F60
:10380000659565952FE141EE852D0E943F4A8F73A6
:10381000EA81FB819081907C982B908392C1EA8110
:10382000FB8180818F73B1F1012F262D4FE65DE082
:10383000672D8CE10E946013332009F483C1EA8173
:10384000FB81808182958695869583706181637006
:10385000660F660F682B4BE0852D0E944E4A282F7D
:103860002295220F220F207CEA81FB8190819F7399
:10387000922B908386958695837091819C7F982B5F
:1038800091838091A406882309F45CC19F7791837A
:10389000128258C1A814B90409F007C08091970C8E
:1038A000882319F0852D0E944D1024E0422E4AC134
:1038B00061100EC0EA81FB814181469546954F70AB
:1038C000455D212F672D809103070E94A8593BC0B9
:1038D000F1E06F120EC0EA81FB8141814695469569
:1038E0004F70212F672D809103070E94A85944E053
:1038F0002BC0F4E06F1222C0EA81FB812181229566
:1039000027702F5F012F42EC52E1672D8091030752
:103910000E948758332009F415C1EA81FB81618137
:103920006295677044E0852D0E944E4A87708295AB
:10393000807FEA81FB8191819F78FDC0112319F07E
:10394000852D0E944D104FE0332009F4FBC0EA8121
:10395000FB816181669566956F70E3C0EA81FB81AA
:103960004281E42EF12CF3E06F120AC0012F242FC4
:103970004CE05EE0672D8CE50E94601323E075C08B
:1039800061100FC0E42EFF24E7FCF094212F206883
:10399000A701672D8CE50E94E7563DE7398303E8D0
:1039A00066C084E0681258C0EA81FB8181818695F7
:1039B0008695837090E08130910581F08230910589
:1039C000A9F0892BF9F4212F2068A701672D8CE538
:1039D0000E94E756FDE7F98303E81FC0212F672DFA
:1039E0008CE50E94A8592AE3298316C0242F2F5F53
:1039F000012F42EC52E1672D8CE50E94875834E09C
:103A000039830AC0012F242F49E559E0672D8CE541
:103A10000E94601381E0898300E0112341F190E866
:103A2000591225C080E80E94110D81E09091B907DC
:103A3000911180E08093B907EA81FB819181892F00
:103A4000869586958F5F8370880F880F937F982B5C
:103A50009183E12CF12C0EC0112331F0852D0E94B1
:103A60004D10FFEFF98302C02FEF298300E03320D0
:103A700009F468C0402F552747FD509502E0298181
:103A800030E0B701852D0E94BA49EA81FB8182832B
:103A900059C0F4E0F615F8F0EA81FB81418147FB5B
:103AA000442740F9212F672D88E70E941610332004
:103AB00009F4FBCEEA81FB81618167FB662760F92F
:103AC00041E0852D0E944E4AEA81FB81918180FB75
:103AD00097F9918337C0F5E06F122FC0EA81FB811F
:103AE0004181842F8C7339F4212F4DE2672D8BE7B0
:103AF0000E94FA0E0CC0469546954F70FAE04F9F13
:103B0000A0011124212F672D80E80E94E756332061
:103B100009F4CBCEEA81FB816181669566956F7071
:103B200046E0852D0E944E4A8F70880F880FEA81EB
:103B3000FB819181937C982BCCCF112309F4B5CED6
:103B4000B1CE412C4394F5E04F1216CE239428E0D9
:103B5000720E37E02312EECD0F900F900F90DF9191
:103B6000CF911F910F91FF90EF90DF90CF90BF907A
:103B7000AF909F908F907F906F905F904F903F900D
:103B80002F900895BF92CF92DF92EF92FF920F9302
:103B90001F93CF93DF93F82E0E94D215C82F88234E
:103BA00011F0C12C02C016E0C12ED5E0ED2E01E6C9
:103BB00019E026E045EA51E161E08F2D0E941A1AD2
:103BC00087E699E00E943613CC2379F04FE659E05E
:103BD00060E28AE2DF91CF911F910F91FF90EF9009
:103BE000DF90CF90BF900C943C138091B9071816CA
:103BF0001CF4C3E0BC2E02C0B2E0BB2E45E759E086
:103C000069E082E10E943C13CC24C394A1E1EA2E36
:103C10008C2D0E948F15C82FD0E0CC0FDD1FC55210
:103C2000D34F20E0482F6E2D80E00E94A859D12C60
:103C30008091980C8C1104C08091970C8D1511F017
:103C400010E001C01B2D81E0D81611F1E2E02881BF
:103C5000DE1689F12295269526952370012F49E6D7
:103C60005CE06E2D88E10E94601310FF3AC068810D
:103C7000629566956695637022E040E08F2D0E9404
:103C80007A4A8295880F880F807C98819F7327C01D
:103C90004981552747FD5095212F6E2D82E40E94C2
:103CA000E75610FF1EC069812DE743E88F2D0E9463
:103CB0007A4A898316C02F73012F43E75CE06E2D8B
:103CC00088E40E94601310FF0CC068816F7323E0CA
:103CD00040E08F2D0E947A4A8F739881907C982BB8
:103CE0009883D394F3E0DF12A3CF88E0E80EC39467
:103CF000E1E3EE128DCF8091980C853011F0C0E099
:103D000001C0CB2D63E879E081E30E945B132C2F87
:103D100020624091ED0C552747FD5095465F5F4F5F
:103D200061E384E50E94E756CC2349F028E246EFA0
:103D30006091ED0C8F2D0E947A4A8093ED0C80915A
:103D4000980C863009F43FC0D12C2D2D4FE859E056
:103D500069E380E00E942F130CEB17E0C5EDDCE077
:103D6000E0E3EE2EF801419151918F016991799133
:103D7000461B570B440F551F20E269E38E2D0E940E
:103D8000E756F8E1EF0E80E9E812ECCFDD2001F113
:103D9000E0E8FE121DC088E0ECEBF7E0A5EDBCE02A
:103DA00001900D928A95E1F781E00E946F4983E0CE
:103DB000DF91CF911F910F91FF90EF90DF90CF9007
:103DC000BF900C94A6151092B90762E0D62EBDCF15
:103DD000DF91CF911F910F91FF90EF90DF90CF90E7
:103DE000BF900895FF920F931F93CF93DF93F62E0A
:103DF00010914507662311F0115001C01F5F882301
:103E0000C9F1809145070E94FA14EC01098117FF5E
:103E100006C0802F837009F46FC08D5F08C01E300C
:103E200059F4802F8370833009F466C08F5F8370EC
:103E30000C7F082B09835EC0812F0E94FA14FC01BD
:103E400081818027837019F480818370D1F5898105
:103E5000982F9370FF2029F0992309F44DC09D5F9E
:103E600004C0933009F448C09F5F93708C7F892B06
:103E7000898340C0809145070E94F214EC010881BB
:103E800017FF05C0802F8F70B9F1815F07C0103216
:103E900051F4802F8F708F3079F18F5F8F70007F9A
:103EA000082B088327C0812F0E94F214FC010F7099
:103EB00084818F7341F080818F70081304C089E082
:103EC00015C084E013C0FF2021F00023A9F0015F9A
:103ED00003C00F3089F00F5F0F708881807F802BC7
:103EE000888308C098812081299391938150D0F7CD
:103EF0001093450781E001C080E0DF91CF911F91D1
:103F00000F91FF900895AF92BF92CF92DF92EF9200
:103F1000FF920F931F93CF93DF937C01C62F2EEE5A
:103F200040E460E08EE58C1B0E94DE0D00E02EEE8A
:103F300040E460E28EE38C1B0E94450E3DE3D32EED
:103F4000DC1AC0E0DCEFBB24BA944FE3C42E01E0DE
:103F500010E0CE01F70109959C5F96958795C89E64
:103F6000A001C99E500D1124852F86958695AC2CF5
:103F7000A81AFFEFBF1691F12A2D30E02B19310955
:103F80002F5F3F4F23303105F8F48B2D86958695B2
:103F900086952D2D30E090E8899F200D311D11244C
:103FA000225D3E4FE5E02E323E07C0F46B2D677078
:103FB000C80102C0880F991F6A95E2F7BC0142E070
:103FC000C9010E94370E0AC04B2D4A1961E0BA148C
:103FD00008F460E06A0D8D2D0E94340EA096D394F3
:103FE000BA2CC03294E0D90709F0B3CFDF91CF915A
:103FF0001F910F91FF90EF90DF90CF90BF90AF9007
:104000000895EF920F93CF93DF93D82F682F85E613
:1040100091E10E94831FC0E08C2F0E946911CF5F45
:10402000882359F0692F615052E0E52E0FEF23E00D
:1040300043E08D1B0E94BD0EEFCFDF91CF910F911A
:10404000EF9008950F931F93CF93DF93FA0174912C
:10405000DA0112963196E491F0E03796C3E0F595D7
:10406000E795CA95E1F71E2F279F900111242E9FF7
:10407000A0012F9F500D3E9F500D1124A40FB51F7E
:1040800066956695669590E0F0E86F9F800D911DAE
:10409000112420E030E060E0472F50E013C0E90138
:1040A000C80FD91FC25DDE4FFD0103C004913196D8
:1040B00009930E2F0A1B0717C8F3A40FB51F6F5FD4
:1040C00020583F4F611758F3DF91CF911F910F9107
:1040D0000895CF92DF92EF920F931F93CF93DF93C8
:1040E0008C016B01EA010E94485A20E046EE59E03B
:1040F00060E082E00E94222024E044E55AE060E093
:1041000084E20E942F1324E0A80160E184E20E946F
:104110002F13E12C0FEF20E240E860E080E00E94E6
:10412000BD0EC114D10421F0B60188E20E945B13D8
:10413000209739F0BE0188E30E945B1384E00E945F
:10414000A6150E94E5340E942535DF91CF911F917D
:104150000F91EF90DF90CF900C944834CF93DF9382
:10416000C091870B8C2F8150833010F4CD5F01C03C
:10417000C2E08091D30883FD29C00E94694682E095
:104180000E94304CD0E0CC0FDD1FC254D94F888143
:10419000998181319C4FD4F049EA59E061EC79E092
:1041A0008DEB99E00E9469200E94694682E00E949E
:1041B000304C8881998126B320952E7739F481314E
:1041C0009C4F24F00E94FD4BA895EECFDF91CF913C
:1041D000089540ED59E00E94692086B380958E775E
:1041E00021F40E94FD4BA895F8CF0895EF92FF921D
:1041F0000F931F93CF93DF938091E60C86FD0BC046
:104200000E94A0348436910530F463E979E08CEBA8
:1042100093E10E94E9200E94AE201091880BCFEF1D
:10422000012F03700F5F0E948F192091890B30E0DE
:10423000F091A3064F2F4127A42FA37050E0E0E098
:1042400080E090E0B901082E02C0759567950A9448
:10425000E2F760FD11C0009719F4A1110CC00CC069
:10426000BC016F5F7F4F7A0102C0F594E7946A95B5
:10427000E2F7E0FE01C0E1E001968630910511F71A
:10428000EE2309F44DC0CF1709F442C049EA59E0C2
:1042900060E070E082EA99E00E946920C0E0D0E02E
:1042A00022E0F22E4C2F2091A3062127C11103C03A
:1042B000237061F00DC030E0BE016F5F7F4F02C020
:1042C000359527956A95E2F720FD02C020E001C0F0
:1042D00022E06091890B70E00C2E02C07595679505
:1042E0000A94E2F760FD09C0442311F04D5F01C05C
:1042F000402F68E28F2D0E946F1395E1E92EFE0C8E
:10430000219680E8F812CECF0E94E534C091A30632
:1043100086B380958E7721F40E94FD4BA89583CFBC
:10432000DF91CF911F910F91FF90EF900C94483443
:10433000BF92CF92DF92EF92FF920F931F93CF9392
:10434000DF937C016B01C0E0D0E08091FE0C90E037
:1043500086010C1B1D0B8017910708F48C01602F40
:10436000C7018C0F9D1F0E94092BC00FD11F809188
:10437000FE0C801B8093FE0C81113EC08091FD0CD1
:1043800090E0A6014C1B5D0B8417950708F4AC0167
:10439000B7016C0F7D1F88EF9CE00E945934C80F55
:1043A000D11D9091FD0C981B9093FD0C911124C090
:1043B00041E06DEF7CE088EF9CE00E945934813051
:1043C000D9F48091FD0C87FF0FC0282F30E044E026
:1043D000359527954A95E1F7277033272093FE0CF2
:1043E0008F708093FD0CB1CF86FFAFCF8F7380931A
:1043F000FE0C1092FD0CA9CFCE01DF91CF911F9141
:104400000F91FF90EF90DF90CF90BF9008951F9392
:10441000CF93DF93182FEB016AE0CE010E94092BA6
:10442000103160F4812F8F5F0E9431256AE070E0C7
:10443000CE01DF91CF911F910C949821DF91CF9104
:104440001F910895EF92FF920F931F93CF93DF93E5
:10445000162F7A01E901402F0E943B2580E18093CD
:10446000000DF092040DE092030DD093020DC09365
:10447000010D1092050D123011F484E601C08AE09E
:1044800080930A0D0E9420268091BC08882341F069
:104490008091000D882321F080916307882391F398
:1044A000DF91CF911F910F91FF90EF9008952F9280
:1044B0003F924F925F926F927F928F929F92AF92B4
:1044C000BF92CF92DF92EF92FF920F931F93CF9301
:1044D000DF9300D000D0CDB7DEB78C838236F1F009
:1044E00028F4803631F1813631F504C02C81233631
:1044F00011F508C081E60E94110D8DE89EE40E942E
:10450000371019C080915505982F915090935505FB
:10451000811111C083E0809355050DC08091550530
:10452000982F9F5F90935505833029F4109255057D
:1045300002C00E940F2B00E02091D00C41EC58E00B
:1045400060E080E00E94D75941E09091960C809104
:10455000D20C891708F440E060E084E50E94DD5742
:104560008091CC08882369F04091D2065091D306FF
:10457000252F221F2227221F022F60E080E80E94A1
:10458000C15580E00E94CF0D20915505223008F0E2
:1045900061C18CE0289F10011124E4EAFBE02E0E9B
:1045A0003F1E8091A00B8295837090E002C095958C
:1045B00087952A95E2F780FD09C069E0962EB12C17
:1045C000A12C71E4772EE2E86E2E34C143E0C42EB4
:1045D000D12C55E0652E8601000F111F0C0D1D1DFD
:1045E000020D131DF80170806181872D0E94521405
:1045F0005C01F80162816095872D0E9452144C0184
:10460000772009F493C0A816B9060CF08FC0862D48
:1046100090E00696482EC89E400C1124662D6550E9
:10462000640D00E0272D4EE55EE080E00E946013FF
:10463000262D2E5FE12C0FEF45E6642D89E10E94C7
:10464000830E872D815C0E9434187C01F3E0F715FE
:1046500070F525E0872D271528F084500E94974695
:10466000082F0EC090E0E7E0E71560F0069726E01F
:10467000289FF001299FF00D1124E956F44F008185
:1046800010E008C0FC01EA5DFA4F6081872D0E94AE
:1046900052148C010115110561F0A401B501C80186
:1046A0000E948146582E84E6581204C002C000E0E1
:1046B00010E0512CA401B501C7010E948146B82E1B
:1046C000E016F10614F405E501C00FEF872D8B50BD
:1046D000823008F40195F42CF394E12C262D4B2D17
:1046E0006F2D8AE10E94BD0E18E1511610F0B1162F
:1046F00030F4462D6F2D812F865E0E94340E175E9A
:10470000133699F75520A1F0142D1250462D4D5F08
:1047100025E5612F852D865E0E94DE0D20E043E0B9
:10472000612F852D875E0E94B60E02C0639463944C
:1047300091E0C91AD10808F04ECF0E945F56FCE004
:10474000F61508F077C162C1F101EE0DFF1D108171
:104750001111A39423E0B21230C040E368E08FE36C
:104760000E94340E80918D0C882321F11C3229F592
:1047700066E77AE089E30E945B1340911E0C50913A
:104780001F0C00E020EB69E388E10E949154409106
:10479000200C5091210C20EB69E38CE30E94915492
:1047A0004091220C5091230C20EB69E380E60E949B
:1047B000915437C00E945F564AC0112339F1812FAE
:1047C000815C0E9434189C0183E0B81202C000E4AE
:1047D00001C004E419827A826B82412F4150F601B4
:1047E0008081682D82500E941358812F8250823020
:1047F00018F4F3E0BF12175FF601319700E0212FA4
:104800004EE55EE0692D80810E9460132FEFE21A71
:10481000F20A8FEFC81AD80A92E0E916F10409F0FB
:1048200093CFB394E0E19E0EF2E02F0E311C24E012
:10483000B21651F0892C8A9422E0C22ED12CCC0ED3
:10484000DD1EE12CF12C80CF87E00E94CF0DA1105E
:10485000F1C0DCC0223009F0B6C02091A00B229537
:104860002695269523702F5F00E04CE65FE060E11F
:1048700080E00E9460136091A00B6295669566953A
:104880006370862F90E08230910569F0039791F074
:1048900080E10E949E581091A00B129516951695D6
:1048A00013701F5F12C02091480C3091490C04E036
:1048B00041E106C020913E0C30913F0C04E040E104
:1048C00068E08AE30E94135810E02091BD0B277026
:1048D000C9F100E04CE65FE060E280E00E94601316
:1048E0006091BD0B6770862F90E081309105ACF030
:1048F000833091051CF0039781F405C0615080E27C
:104900000E949E580AC02091260C3091270C04E08A
:1049100042E168E18AE30E9413582091440C3091EF
:10492000450C04E844E168E284E00E9413582091B9
:10493000400C3091410C04E043E168E288E50E94BC
:10494000135810C0112321F062E0611B88E202C0FD
:1049500060E080E20E949E58111104C061E080E393
:104960000E949E588091240C82958F7049F19AEE96
:10497000C92E9BE0D92EE12CF12C18E016C0F601CF
:104980009081981710F020E301C021E3F6014191D6
:104990006F0150E0440F551F04E0612F80E80E9432
:1049A0009154185FFFEFEF1AFF0A8091240C829553
:1049B0008F7090E0E816F906BCF5183381F534C025
:1049C0000E945F5637C06BE77AE089E00E945B1374
:1049D0004BE55AE069E08CE30E943C134091D30B15
:1049E00002E020E950E069E08EE40E9491544FE536
:1049F0005AE069E080E60E943C134091CF0B20E929
:104A000050E069E082E70E94915414C02C81233663
:104A100011F483E601C082E68093BE080BC080914A
:104A200036058111ACCFAFCF4FE268E08CE60E9433
:104A3000340EC6CF0F900F900F900F90DF91CF9153
:104A40001F910F91FF90EF90DF90CF90BF90AF90AC
:104A50009F908F907F906F905F904F903F902F909E
:104A60000895682F88EF9CE00E94DD481092FE0CAC
:104A70001092FD0C08951F93CF93DF93D82F162F1C
:104A8000C42F81E10E943125E4EBF8E010821295F9
:104A9000107F1183D093F80CC093BC08DF91CF91A5
:104AA0001F9108958091FB0C811116C08091F90C23
:104AB0009091FA0C892B81F480917E088093FB0CF5
:104AC0008093B308882341F00E94563480937E0877
:104AD0008091000D81603FC08091000D982F9F70E4
:104AE000913009F075C081503BC08091FB0C811161
:104AF00001C00EC09091FC0C9F30C8F01092FC0CCD
:104B00000E945634811111C060917E08611104C069
:104B100081E08093630760C08091000D8E5F809379
:104B2000000D8091FB0C0C941A498093FB0C809132
:104B3000000D982F9F70923019F09330A9F40FC098
:104B400080917E088093FB0C0E94563480937E08EF
:104B50008091000D8F5F8093000D0C94124983505B
:104B60008093000D60E0DDCF6091FC0C4FE0509130
:104B7000070D461B541708F4452F242F30E0809171
:104B8000080D9091090D820F931F9093090D80934A
:104B9000080D541B5093070D460F4093FC0C409199
:104BA000F90C5091FA0C420F531F5093FA0C40939A
:104BB000F90C4091FB0C70E050E1459F600D711DB8
:104BC00011246F5F7F4FA901821B930B0C94F34854
:104BD0008091070D811189CF80916307813069F43D
:104BE00083E69AE09093A00C80939F0C1092000DA6
:104BF0001092070D1092050D08958091BC08811147
:104C000002C00C94202608956093070D9093090D1F
:104C10008093080D0E9452258091BC08882341F0A2
:104C20008091070D882321F080916307882391F3F9
:104C300008958093060D61E086E09DE00C940426C3
:104C4000CF93DF936091050DE091030DF091040D7A
:104C5000662371F0CF01860F911D9093040D809310
:104C6000030D1092050DCF01DF91CF910C94042616
:104C700080812091010D3091020D2115310509F43B
:104C80005CC071E0811170E041E050E090E081E0B3
:104C9000DF01A40FB51F61E0AC91A11160E06713C3
:104CA0000BC08F3309F4C3C0992319F08F3009F476
:104CB000BEC042175307E1F57723B1F0883080F08A
:104CC000482F50E0E40FF51FF093040DE093030D1F
:104CD000241B350B3093020D2093010D806422C0FC
:104CE0004217530719F5ECCF492F50E0E40FF51F99
:104CF000F093040DE093030DBA01680F711D261B9C
:104D0000370B3093020D2093010D8093050D9923ED
:104D100049F09A01B4E0220F331FBA95E1F72068F9
:104D20003F6F822BDF91CF910C941926982F80E052
:104D30008F5F4F5F5F4F762FABCF8091000D803339
:104D400009F469C030F4803151F0803209F072C04A
:104D500058C08034E9F0803509F06CC04BC08091B8
:104D6000FB0C8823A9F00E945634C82F81115AC029
:104D70000FC08C2F0E945634C82F8C2F0E9456349F
:104D80008111F7CF80E28093000D6D2F8C2F3FC0F3
:104D90004091B3084093FB0C8091F80C282F30E031
:104DA000F901EE0FFF1FE20FF31FE058F74F90815C
:104DB0009093B308918122812F709093B4089091C1
:104DC000B508907F922B9093B50840839091F90C91
:104DD00091832091FA0C2F709281907F922B928375
:104DE0002091B508207F9F70922B928390E590933D
:104DF000000D03C01092000D81E1DF91CF910C9462
:104E0000264980E38093000D60E08091FB0CDF91E8
:104E1000CF910C941A4980E48093000DDF91CF91DB
:104E20000C941249D0917E0880937E08A6CF611120
:104E300047CF5ACFDF91CF91089501C0A8958091B7
:104E40000B0D1816DCF381E08093BC088091070DF0
:104E5000882321F080916307882349F08091000D19
:104E6000882341F080916307882339F003C00E94B2
:104E70005225ECCF1092BC0808950E942026EECF58
:104E80002F923F924F925F926F927F928F929F925A
:104E9000AF92BF92CF92DF92EF92FF920F931F9348
:104EA000CF93DF9390913D05913041F008F43AC2E1
:104EB000923091F0933009F03CC224C28E3709F44D
:104EC00038C290917408933108F02AC2E92FF0E0BB
:104ED000E25CFA4F808321C28D3711F483E027C250
:104EE0008E3709F002C280913E058D3F09F442C021
:104EF0008E3F09F0F7C14091960B42954F7060913B
:104F00003F0584EC9BE00E949C4840919C0B42959D
:104F10004F706091400589EC9BE00E949C48609135
:104F200041058EEC9BE00E940B476091420566951F
:104F300082ED9BE00E940B4784E680938D0C80916C
:104F40003C05805E80933C058091BC0B877083504C
:104F5000823008F0C7C135E0839FF0011124EC5383
:104F6000F44F608170E00E94C0469093370C8093AC
:104F7000360CB8C170903F0547E0742283E0780E8C
:104F8000A1E48A2EA5E09A2EB3E06B2E6818CAE041
:104F9000D0E014E3212E18E0312E0EE6402E512CE5
:104FA0000CE310E083E0E82EF12C92E0C92ED12C26
:104FB000AA24A394B12C91C18091A00B837081305D
:104FC00009F073C1F40120812E3529F4B092520505
:104FD000A09251056AC180915105909152050097A8
:104FE00009F463C187FF09C0F0E62F2780589109B3
:104FF000909352058093510508C02D3531F4806897
:10500000909352058093510550C180915105909124
:1050100052058130910579F4203428F01092520520
:105020001092510542C1220F20935305D092520590
:10503000C09251053AC1029739F420935405F09279
:105040005205E092510531C110925205109251055E
:1050500030915305832F992787FD9095FC01EA52E3
:10506000F44F409154054083DC01A952B44F2C9376
:10507000383409F413C190F43A3009F459C038F4C3
:10508000343009F444C0363009F00FC119C03C3047
:1050900009F4B4C0303209F008C191C0303509F4C8
:1050A00058C038F43A3409F4F9C03C3409F0FDC072
:1050B000F5C03A3609F45EC0363709F0F6C060C074
:1050C0006091A00B66956695637070E06E5F7F4F90
:1050D000C8010E94E7702091DC0B3091DD0B629FCC
:1050E000C001639F900D729F900D11249093DD0B72
:1050F0008093DC0B2091520C3091530C2817390708
:1051000008F0D3C09093530C8093520CCEC0809182
:10511000DA0B9091DB0B2091540C3091550C281731
:1051200039070CF0C2C09093550C8093540CBDC04D
:105130008091E00B9091E10B2091560C3091570C2F
:10514000281739070CF0B1C09093570C8093560C78
:10515000ACC08091260C9091270C2091640C30916A
:10516000650C2817390708F0A0C09093650C809350
:10517000640C9BC08091240C88608093240C95C0A3
:1051800020914C0C30914D0C42ED429FC001439F49
:10519000900D112440914A0C50914B0C429D90016E
:1051A000439D300D529D300D1124820F931FB2018B
:1051B0000E94FB707093490C6093480C76C08091FC
:1051C000D60B9091D70B2091F60B3091F70B892BD2
:1051D00041F488279927821B930B9093D70B8093D8
:1051E000D60B8091D60B9091D70B820F931F909383
:1051F000F70B8093F60B0E94A54657C06091E20B17
:105200007091E30B9B01207F3327F4E036952795BF
:10521000FA95E1F7422F2C3008F047C05091240C4A
:10522000852F82958F7090E0281739074CF0922FC8
:105230009F5F9295907F852F8F70892B8093240C90
:10524000CB018F709927982F8827672F7727860F94
:10525000971FBE010E94FB70862FF901EC53F44F9B
:1052600066A39091250C992331F0691720F0909155
:105270003D0C49131AC040933D0C8093250C80913E
:105280005E0C90915F0C7727009719F068177907EB
:1052900064F470935F0C60935E0C07C08081918111
:1052A000BE010E94E770718360838091A00B8370C0
:1052B000823081F4F401808190913B05923328F48F
:1052C0008093F60B0E94A54602C08093F70BFCE387
:1052D000F0933B053FEF831A930A862D880D8715BF
:1052E00008F46ACE10923D0524C090917408933161
:1052F00000F5E92FF0E0E25CFA4F80839F5F909326
:10530000740817C090917408933150F4E92FF0E0BD
:10531000E25CFA4F20E2282720839F5F9093740875
:1053200082E005C08E3729F41092740881E08093E2
:105330003D05DF91CF911F910F91FF90EF90DF908E
:10534000CF90BF90AF909F908F907F906F905F9025
:105350004F903F902F900895CF93DF93C62FD0E0CA
:105360008823A9F0862F0E94FA14AE01409550952B
:10537000425F5F4F440F551F440F551FBC016C5FC8
:105380007F4F0E94C57064E08AE79AE016C0862FBE
:105390000E94F2149E0120953095205E3F4F69E0F7
:1053A000629FA001639F500D1124BC01675F7F4F76
:1053B0000E94C57069E08DEE99E00E94092B82E0A1
:1053C000DF91CF910C946F490F931F93CF93DF938D
:1053D000062F10E0882319F1862F0E94FA14EC01A1
:1053E000A80140955095425F5F4F440F551F440FF1
:1053F000551FBC0104960E94C57064E0CE010E9456
:10540000092B888183608883909144079150937021
:1054100089818C7F892B898384E68A832CC0862F9F
:105420000E94F214EC01C80180959095809629E0C5
:10543000289FA001299F500D1124BE01CE0109967D
:105440000E94C57069E0CE010E94092B809144073B
:10545000282F21502F709881907F922B9883853030
:105460000CF002C00E948F158F739C81907C982B4A
:105470009C8384E6898382E0DF91CF911F910F9115
:105480000C946F49AF92BF92CF92DF92EF92FF924E
:105490000F931F93CF93DF93F82ED62EE42E809197
:1054A000850A062F112707FD10959801280F311D39
:1054B00087FD3A95213431052CF082E00E94A61533
:1054C00080E086C08F2D0E945B10EC01D7FC2EC0BF
:1054D0008F2D8F5F0E945B10EF2DF0E04F2D5BEF63
:1054E0005403900111242D5D3F4F4091850A240FF4
:1054F000311D47FD3A95E258F54F4081241B310993
:1055000047FD3395A901BC01800F911F0E94C57012
:10551000D7FE27C016C0DF01AA0FBB1FAC0FBD1FEF
:105520003C91EC0FFD1F30832F5F05C020E08E2DD6
:10553000992787FD9095E22FF0E0E817F9075CF3D3
:10554000C7CF6D2D6195C8018351954F0E94092BDE
:1055500008C0EF2DF0E0E258F54F80818D0D80837B
:10556000F39487E08F15A8F7CE2CE7FCC394C5947D
:10557000DD24C7FCD094B12C2E2D332727FD309588
:1055800089010250110978ECA72E790141E0E41A53
:10559000F10815C0FE01E80FF91FE20FF31FAC017F
:1055A0004F5F5F4FA49EC001A59E900D11248C0DEE
:1055B0009D1DB7010E94E77064566083B3948B2DE4
:1055C00090E08017910734F382E00E946F4981E0F8
:1055D000DF91CF911F910F91FF90EF90DF90CF90CF
:1055E000BF90AF900895CF93DF931F92CDB7DEB7F2
:1055F00070E090E1899F600D711D112441E050E041
:10560000CE0101960E940F7189810F90DF91CF9199
:105610000895462F50E060E070E00C94D77066EA81
:1056200084EC9BE00E94092B10928D0C10923C059B
:1056300082E090E09093FD0B8093FC0B9093FB0B2A
:105640008093FA0BE4E2FCE0808186608083089519
:1056500080E00E94B24881E00E94B2480E940F2B75
:105660001092C305109202071092010710920007D2
:105670001092FF0608952F923F924F925F926F9281
:105680007F928F929F92AF92BF92CF92DF92EF92D2
:10569000FF920F931F93CF93DF93CDB7DEB766973B
:1056A0000FB6F894DEBF0FBECDBF8D83662E0E946D
:1056B000304C60E483E29DE00E94092B2FEF3FEF26
:1056C00038872F831E82198A3D8134703D8B4D812E
:1056D00048704E8B862D90E0A0E0B0E023E1880F6B
:1056E000991FAA1FBB1F2A95D1F78B879C87AD876F
:1056F000BE87A3E2B6E0B88BAF87812C912C1A86C7
:105700001986E62DF0E0FC8BEB8B8A8AFD81F11186
:105710000BC02E81211108C0F401EE0FFF1FEC5FBA
:10572000F84F81818F7B81838A890E94F2148C01DA
:10573000FC017480FFE37F2209F416C3DC012C9185
:10574000822F8F70E82FF0E04F81588502C0569568
:1057500047958A95E2F740FFFAC25A89552329F006
:1057600019978C9182278F7051F0EE0FFF1FEE0F6B
:10577000FF1FED5DF24F1082118212821382F80139
:1057800083818F7141F482818F73BB24B394811123
:1057900004C0B12C02C0BB24B394A72CAA94F80176
:1057A00083818F7190E00090BF0802C09595879526
:1057B0000A94E2F780FD23C38281880F880F8595C4
:1057C00085950E946C168111E5C219C38B3208F0D1
:1057D0000DC38091CC07882309F40FC307C3F3E0FE
:1057E000FA1508F4B4C222E0A21204C08091D208D3
:1057F00083FDADC23E89311175C0EA2DF0E0EE0F98
:10580000FF1FE757FA4FE080F1806EC043E04A1572
:1058100080F0D8018C91EA2DF0E0EE0FFF1F85FF9C
:1058200003C0E953FA4F02C0E757FA4FE080F18016
:105830004FC0872D0E9434187C01272D2B52203118
:1058400008F046C0F801A081AF70EA2FF0E0422FC7
:1058500050E0E417F507E1F181E090E002C0880F25
:10586000991FAA95E2F7DC0181E090E002C0880F61
:10587000991F2A95E2F79C018F8198852823392367
:10588000662777276A1B7B0B89859A85682B792B7E
:1058900026233723232B21F08A2B9B2B9A8789875A
:1058A0004E175F071CF09E81992391F0FA01EE0FCD
:1058B000FF1FEE0FFF1FED5DF24F80819181A281EE
:1058C000B381892F9A2FAB2FBB27A7FDBA957C01F7
:1058D000B1100CC0C701892F990F990B859585953B
:1058E000D82E04C0E12CF12CDD24D394F401EE0F6A
:1058F000FF1FDF01AB5FB84F2C91322F3295307F05
:1059000036FB330F330B30F9220F220F26FB220F09
:10591000220B20F9AD81A11157C0D31609F441C261
:10592000EC5FF84F80814181942F9370892B09F4AB
:10593000232FF80185813D150CF401C082958F70ED
:10594000F401EE0FFF1FEC5FF84F32E3389FC00108
:1059500011248083392F33708181807F9D2D937036
:10596000990F990F832B892B922F93709295907F8B
:105970008F7C892B818315C24B895C89841B950B95
:1059800097FF02C080E090E08083937081818C7FDC
:10599000892B8183B11009C0E22EFF24E7FCF0942B
:1059A000FE2CEE24FF0CFF0C09C2D110D0C106C2A0
:1059B0009D2D9370292F2295207F832F837C990F13
:1059C000990F822B892B8183D11012C0F801868117
:1059D000882361F08281807C803841F0BB2041F0D7
:1059E000712C811108C0E12CF12C08C0B110AFC19D
:1059F0007724739403C0E12C84E0F82EFD81F1112B
:105A00002FC0BB2069F0D1100BC0F401EE0FFF1FB7
:105A1000EC5FF84F80812181922F9370892B01F1E7
:105A2000F8018481982F907C89F0829586958695DF
:105A3000837090E0019721E030E002C0220F331F15
:105A40008A95E2F7C9013989382B398BF401EE0FB9
:105A5000FF1FEC5FF84F81814FEF40FB86F9818398
:105A60007720F9F05D8951111CC0F801838185957B
:105A7000859585958595859587FF03C0282F209569
:105A8000A0C181110EC0F3E0FA1558F02A2D99C17A
:105A90002091D30827FF03C0E81AF90A02C0E80ED4
:105AA000F91ED8018C91F80191819B8386FF02C079
:105AB0008FEF01C080E08C8345EF50E06BE07FEF1B
:105AC0008B819C810E94B3140E94B20C5C01FD8109
:105AD000F23008F086C0F8018681882309F481C07D
